{
  "contractName": "MyContract",
  "abi": [
    {
      "constant": true,
      "inputs": [],
      "name": "getParentVar",
      "outputs": [
        {
          "name": "",
          "type": "string"
        }
      ],
      "payable": false,
      "stateMutability": "view",
      "type": "function"
    },
    {
      "constant": true,
      "inputs": [],
      "name": "getKid1Var",
      "outputs": [
        {
          "name": "",
          "type": "string"
        }
      ],
      "payable": false,
      "stateMutability": "view",
      "type": "function"
    },
    {
      "constant": true,
      "inputs": [],
      "name": "getKid2Var",
      "outputs": [
        {
          "name": "",
          "type": "string"
        }
      ],
      "payable": false,
      "stateMutability": "view",
      "type": "function"
    },
    {
      "constant": true,
      "inputs": [],
      "name": "getMyContractVar",
      "outputs": [
        {
          "name": "",
          "type": "string"
        }
      ],
      "payable": false,
      "stateMutability": "view",
      "type": "function"
    }
  ],
  "bytecode": "0x60606040526040805190810160405280600981526020017f706172656e7456617200000000000000000000000000000000000000000000008152506000908051906020019061004f929190610144565b506040805190810160405280600781526020017f6b696431566172000000000000000000000000000000000000000000000000008152506001908051906020019061009b929190610144565b506040805190810160405280600781526020017f6b69643256617200000000000000000000000000000000000000000000000000815250600290805190602001906100e7929190610144565b506040805190810160405280600d81526020017f6d79436f6e74726163745661720000000000000000000000000000000000000081525060039080519060200190610133929190610144565b50341561013f57600080fd5b6101e9565b828054600181600116156101000203166002900490600052602060002090601f016020900481019282601f1061018557805160ff19168380011785556101b3565b828001600101855582156101b3579182015b828111156101b2578251825591602001919060010190610197565b5b5090506101c091906101c4565b5090565b6101e691905b808211156101e25760008160009055506001016101ca565b5090565b90565b61057f806101f86000396000f300606060405260043610610062576000357c0100000000000000000000000000000000000000000000000000000000900463ffffffff168063029ea38d146100675780634c237164146100f55780635c9600fe14610183578063942bddda14610211575b600080fd5b341561007257600080fd5b61007a61029f565b6040518080602001828103825283818151815260200191508051906020019080838360005b838110156100ba57808201518184015260208101905061009f565b50505050905090810190601f1680156100e75780820380516001836020036101000a031916815260200191505b509250505060405180910390f35b341561010057600080fd5b610108610347565b6040518080602001828103825283818151815260200191508051906020019080838360005b8381101561014857808201518184015260208101905061012d565b50505050905090810190601f1680156101755780820380516001836020036101000a031916815260200191505b509250505060405180910390f35b341561018e57600080fd5b6101966103ef565b6040518080602001828103825283818151815260200191508051906020019080838360005b838110156101d65780820151818401526020810190506101bb565b50505050905090810190601f1680156102035780820380516001836020036101000a031916815260200191505b509250505060405180910390f35b341561021c57600080fd5b610224610497565b6040518080602001828103825283818151815260200191508051906020019080838360005b83811015610264578082015181840152602081019050610249565b50505050905090810190601f1680156102915780820380516001836020036101000a031916815260200191505b509250505060405180910390f35b6102a761053f565b60008054600181600116156101000203166002900480601f01602080910402602001604051908101604052809291908181526020018280546001816001161561010002031660029004801561033d5780601f106103125761010080835404028352916020019161033d565b820191906000526020600020905b81548152906001019060200180831161032057829003601f168201915b5050505050905090565b61034f61053f565b60018054600181600116156101000203166002900480601f0160208091040260200160405190810160405280929190818152602001828054600181600116156101000203166002900480156103e55780601f106103ba576101008083540402835291602001916103e5565b820191906000526020600020905b8154815290600101906020018083116103c857829003601f168201915b5050505050905090565b6103f761053f565b60028054600181600116156101000203166002900480601f01602080910402602001604051908101604052809291908181526020018280546001816001161561010002031660029004801561048d5780601f106104625761010080835404028352916020019161048d565b820191906000526020600020905b81548152906001019060200180831161047057829003601f168201915b5050505050905090565b61049f61053f565b60038054600181600116156101000203166002900480601f0160208091040260200160405190810160405280929190818152602001828054600181600116156101000203166002900480156105355780601f1061050a57610100808354040283529160200191610535565b820191906000526020600020905b81548152906001019060200180831161051857829003601f168201915b5050505050905090565b6020604051908101604052806000815250905600a165627a7a723058206fb669f80aa341987572a1bcc91092dbf24c67cfb0b471f90aabb68cae62d5a80029",
  "source": "pragma solidity ^0.4.4;\n\ncontract Parent {\n  string parentVar = \"parentVar\";\n}\n\ncontract Kid1 is Parent {\n  string kid1Var = \"kid1Var\";\n}\n\ncontract Kid2 {\n  string kid2Var = \"kid2Var\";\n}\n\ncontract MyContract is Kid1, Kid2 {\n  string myContractVar = \"myContractVar\";\n\n  function getMyContractVar() constant returns(string) {\n    return myContractVar;\n  }\n\n  function getKid1Var() constant returns(string) {\n    return kid1Var;\n  }\n\n  function getKid2Var() constant returns(string) {\n    return kid2Var;\n  }\n\n  function getParentVar() constant returns(string) {\n    return parentVar;\n  }\n}\n",
  "sourcePath": "D:\\ETB\\code\\episode7\\contracts\\MyContract.sol",
  "compiler": {
    "name": "solc",
    "version": "0.4.18+commit.9cf6e910.Emscripten.clang"
  },
  "schemaVersion": "1.0.1",
  "updatedAt": "2017-12-19T07:46:12.832Z"
}