{
  "contractName": "Compound",
  "abi": [
    {
      "inputs": [
        {
          "internalType": "address",
          "name": "_comptroller",
          "type": "address"
        },
        {
          "internalType": "address",
          "name": "_cEthAddress",
          "type": "address"
        }
      ],
      "stateMutability": "nonpayable",
      "type": "constructor"
    },
    {
      "inputs": [],
      "name": "cEth",
      "outputs": [
        {
          "internalType": "contract CEthInterface",
          "name": "",
          "type": "address"
        }
      ],
      "stateMutability": "view",
      "type": "function"
    },
    {
      "inputs": [],
      "name": "comptroller",
      "outputs": [
        {
          "internalType": "contract ComptrollerInterface",
          "name": "",
          "type": "address"
        }
      ],
      "stateMutability": "view",
      "type": "function"
    },
    {
      "inputs": [
        {
          "internalType": "address",
          "name": "cTokenAddress",
          "type": "address"
        }
      ],
      "name": "getcTokenBalance",
      "outputs": [
        {
          "internalType": "uint256",
          "name": "",
          "type": "uint256"
        }
      ],
      "stateMutability": "view",
      "type": "function"
    },
    {
      "inputs": [
        {
          "internalType": "address",
          "name": "cTokenAddress",
          "type": "address"
        }
      ],
      "name": "getUnderlyingBalance",
      "outputs": [
        {
          "internalType": "uint256",
          "name": "",
          "type": "uint256"
        }
      ],
      "stateMutability": "nonpayable",
      "type": "function"
    },
    {
      "inputs": [],
      "name": "getUnderlyingEthBalance",
      "outputs": [
        {
          "internalType": "uint256",
          "name": "",
          "type": "uint256"
        }
      ],
      "stateMutability": "nonpayable",
      "type": "function"
    }
  ],
  "bytecode": "0x608060405234801561001057600080fd5b506040516105173803806105178339818101604052604081101561003357600080fd5b810190808051906020019092919080519060200190929190505050816000806101000a81548173ffffffffffffffffffffffffffffffffffffffff021916908373ffffffffffffffffffffffffffffffffffffffff16021790555080600160006101000a81548173ffffffffffffffffffffffffffffffffffffffff021916908373ffffffffffffffffffffffffffffffffffffffff1602179055505050610437806100e06000396000f3fe608060405234801561001057600080fd5b50600436106100575760003560e01c80631031cb5f1461005c5780635fe3b567146100b4578063703d795c146100e8578063a44026a314610106578063f0d23e8f1461013a575b600080fd5b61009e6004803603602081101561007257600080fd5b81019080803573ffffffffffffffffffffffffffffffffffffffff169060200190929190505050610192565b6040518082815260200191505060405180910390f35b6100bc61023d565b604051808273ffffffffffffffffffffffffffffffffffffffff16815260200191505060405180910390f35b6100f0610261565b6040518082815260200191505060405180910390f35b61010e61032e565b604051808273ffffffffffffffffffffffffffffffffffffffff16815260200191505060405180910390f35b61017c6004803603602081101561015057600080fd5b81019080803573ffffffffffffffffffffffffffffffffffffffff169060200190929190505050610354565b6040518082815260200191505060405180910390f35b60008173ffffffffffffffffffffffffffffffffffffffff166370a08231306040518263ffffffff1660e01b8152600401808273ffffffffffffffffffffffffffffffffffffffff16815260200191505060206040518083038186803b1580156101fb57600080fd5b505afa15801561020f573d6000803e3d6000fd5b505050506040513d602081101561022557600080fd5b81019080805190602001909291905050509050919050565b60008054906101000a900473ffffffffffffffffffffffffffffffffffffffff1681565b6000600160009054906101000a900473ffffffffffffffffffffffffffffffffffffffff1673ffffffffffffffffffffffffffffffffffffffff16633af9e669306040518263ffffffff1660e01b8152600401808273ffffffffffffffffffffffffffffffffffffffff168152602001915050602060405180830381600087803b1580156102ee57600080fd5b505af1158015610302573d6000803e3d6000fd5b505050506040513d602081101561031857600080fd5b8101908080519060200190929190505050905090565b600160009054906101000a900473ffffffffffffffffffffffffffffffffffffffff1681565b60008173ffffffffffffffffffffffffffffffffffffffff16633af9e669306040518263ffffffff1660e01b8152600401808273ffffffffffffffffffffffffffffffffffffffff168152602001915050602060405180830381600087803b1580156103bf57600080fd5b505af11580156103d3573d6000803e3d6000fd5b505050506040513d60208110156103e957600080fd5b8101908080519060200190929190505050905091905056fea26469706673582212205de228f24ee8bbfab4ab1ddbe4a87bef81ab144c889b335d54c44073d7c19a4a64736f6c63430007030033",
  "immutableReferences": {},
  "source": "pragma solidity ^0.7.3;\n\nimport '@openzeppelin/contracts/token/ERC20/IERC20.sol';\nimport './CTokenInterface.sol';\nimport './CEthInterface.sol';\nimport './ComptrollerInterface.sol';\n\ncontract Compound {\n  ComptrollerInterface public comptroller;\n  CEthInterface public cEth;\n\n  constructor(\n    address _comptroller,\n    address _cEthAddress\n  ) {\n    comptroller = ComptrollerInterface(_comptroller);\n    cEth = CEthInterface(_cEthAddress);\n  }\n\n  function supply(address cTokenAddress, uint underlyingAmount) internal {\n    CTokenInterface cToken = CTokenInterface(cTokenAddress);\n    address underlyingAddress = cToken.underlying(); \n    IERC20(underlyingAddress).approve(cTokenAddress, underlyingAmount);\n    uint result = cToken.mint(underlyingAmount);\n    require(\n      result == 0, \n      'cToken#mint() failed. see Compound ErrorReporter.sol for details'\n    );\n  }\n\n  function supplyEth(uint underlyingAmount) internal {\n    cEth.mint{value: underlyingAmount}();\n  }\n\n  function redeem(address cTokenAddress, uint underlyingAmount) internal {\n    CTokenInterface cToken = CTokenInterface(cTokenAddress);\n    uint result = cToken.redeemUnderlying(underlyingAmount);\n    require(\n      result == 0,\n      'cToken#redeemUnderlying() failed. see Compound ErrorReporter.sol for more details'\n    );\n  }\n\n  function redeemEth(uint underlyingAmount) internal {\n    uint result = cEth.redeemUnderlying(underlyingAmount);\n    require(\n      result == 0,\n      'cEth#redeemUnderlying() failed. see Compound ErrorReporter.sol for more details'\n    );\n  }\n\n  function claimComp() internal {\n    comptroller.claimComp(address(this));\n  }\n\n  function getCompAddress() internal view returns(address) {\n    return comptroller.getCompAddress();\n  }\n\n  function getUnderlyingAddress(\n    address cTokenAddress\n  ) \n    internal \n    view \n    returns(address) \n  {\n    return CTokenInterface(cTokenAddress).underlying();\n  }\n\n  function getcTokenBalance(address cTokenAddress) public view returns(uint){\n    return CTokenInterface(cTokenAddress).balanceOf(address(this));\n  }\n\n  function getUnderlyingBalance(address cTokenAddress) public returns(uint){\n    return CTokenInterface(cTokenAddress).balanceOfUnderlying(address(this));\n  }\n\n  function getUnderlyingEthBalance() public returns(uint){\n    return cEth.balanceOfUnderlying(address(this));\n  }\n}\n",
  "sourcePath": "/Users/jklepatch/ETB/code/defi-development-mastery/6-project-defi-wallet/contracts/Compound.sol",
  "compiler": {
    "name": "solc",
    "version": "0.7.3+commit.9bfce1f6.Emscripten.clang"
  },
  "schemaVersion": "3.3.3",
  "updatedAt": "2021-02-18T11:03:44.272Z",
  "devdoc": {
    "kind": "dev",
    "methods": {},
    "version": 1
  },
  "userdoc": {
    "kind": "user",
    "methods": {},
    "version": 1
  }
}