{
  "contractName": "ToDo",
  "abi": [
    {
      "constant": true,
      "inputs": [
        {
          "name": "id",
          "type": "uint256"
        }
      ],
      "name": "getTask",
      "outputs": [
        {
          "name": "",
          "type": "uint256"
        },
        {
          "name": "",
          "type": "uint256"
        },
        {
          "name": "",
          "type": "string"
        },
        {
          "name": "",
          "type": "string"
        },
        {
          "name": "",
          "type": "bool"
        }
      ],
      "payable": false,
      "stateMutability": "view",
      "type": "function"
    },
    {
      "constant": false,
      "inputs": [
        {
          "name": "_content",
          "type": "string"
        },
        {
          "name": "_author",
          "type": "string"
        }
      ],
      "name": "createTask",
      "outputs": [],
      "payable": false,
      "stateMutability": "nonpayable",
      "type": "function"
    },
    {
      "constant": false,
      "inputs": [
        {
          "name": "id",
          "type": "uint256"
        }
      ],
      "name": "toggleTaskStatus",
      "outputs": [],
      "payable": false,
      "stateMutability": "nonpayable",
      "type": "function"
    },
    {
      "constant": true,
      "inputs": [],
      "name": "getTaskIds",
      "outputs": [
        {
          "name": "",
          "type": "uint256[]"
        }
      ],
      "payable": false,
      "stateMutability": "view",
      "type": "function"
    },
    {
      "inputs": [],
      "payable": false,
      "stateMutability": "nonpayable",
      "type": "constructor"
    },
    {
      "anonymous": false,
      "inputs": [
        {
          "indexed": false,
          "name": "id",
          "type": "uint256"
        },
        {
          "indexed": false,
          "name": "date",
          "type": "uint256"
        },
        {
          "indexed": false,
          "name": "content",
          "type": "string"
        },
        {
          "indexed": false,
          "name": "author",
          "type": "string"
        }
      ],
      "name": "TaskCreated",
      "type": "event"
    },
    {
      "anonymous": false,
      "inputs": [
        {
          "indexed": false,
          "name": "id",
          "type": "uint256"
        },
        {
          "indexed": false,
          "name": "done",
          "type": "bool"
        }
      ],
      "name": "TaskStatusToggled",
      "type": "event"
    }
  ],
  "bytecode": "0x6060604052341561000f57600080fd5b60008081905550610913806100256000396000f300606060405260043610610062576000357c0100000000000000000000000000000000000000000000000000000000900463ffffffff1680631d65e77e14610067578063292a4585146101885780635357316e14610228578063bcd148051461024b575b600080fd5b341561007257600080fd5b61008860048080359060200190919050506102b5565b60405180868152602001858152602001806020018060200184151515158152602001838103835286818151815260200191508051906020019080838360005b838110156100e25780820151818401526020810190506100c7565b50505050905090810190601f16801561010f5780820380516001836020036101000a031916815260200191505b50838103825285818151815260200191508051906020019080838360005b8381101561014857808201518184015260208101905061012d565b50505050905090810190601f1680156101755780820380516001836020036101000a031916815260200191505b5097505050505050505060405180910390f35b341561019357600080fd5b610226600480803590602001908201803590602001908080601f0160208091040260200160405190810160405280939291908181526020018383808284378201915050505050509190803590602001908201803590602001908080601f016020809104026020016040519081016040528093929190818152602001838380828437820191505050505050919050506104a3565b005b341561023357600080fd5b61024960048080359060200190919050506106af565b005b341561025657600080fd5b61025e610790565b6040518080602001828103825283818151815260200191508051906020019060200280838360005b838110156102a1578082015181840152602081019050610286565b505050509050019250505060405180910390f35b6000806102c06107ee565b6102c86107ee565b6000856000600260008381526020019081526020016000206000015414156102ef57600080fd5b866002600089815260200190815260200160002060010154600260008a8152602001908152602001600020600201600260008b8152602001908152602001600020600301600260008c815260200190815260200160002060040160009054906101000a900460ff16828054600181600116156101000203166002900480601f0160208091040260200160405190810160405280929190818152602001828054600181600116156101000203166002900480156103ec5780601f106103c1576101008083540402835291602001916103ec565b820191906000526020600020905b8154815290600101906020018083116103cf57829003601f168201915b50505050509250818054600181600116156101000203166002900480601f0160208091040260200160405190810160405280929190818152602001828054600181600116156101000203166002900480156104885780601f1061045d57610100808354040283529160200191610488565b820191906000526020600020905b81548152906001019060200180831161046b57829003601f168201915b50505050509150955095509550955095505091939590929450565b600080815480929190600101919050555060a060405190810160405280600054815260200142815260200183815260200182815260200160001515815250600260008054815260200190815260200160002060008201518160000155602082015181600101556040820151816002019080519060200190610525929190610802565b506060820151816003019080519060200190610542929190610802565b5060808201518160040160006101000a81548160ff0219169083151502179055509050506001805480600101828161057a9190610882565b916000526020600020900160008054909190915055507f211bf15b7962b0fd1e5b3308db0d9c6e0b9bb758c934b8c9345201b1892481b8600054428484604051808581526020018481526020018060200180602001838103835285818151815260200191508051906020019080838360005b838110156106075780820151818401526020810190506105ec565b50505050905090810190601f1680156106345780820380516001836020036101000a031916815260200191505b50838103825284818151815260200191508051906020019080838360005b8381101561066d578082015181840152602081019050610652565b50505050905090810190601f16801561069a5780820380516001836020036101000a031916815260200191505b50965050505050505060405180910390a15050565b806000600260008381526020019081526020016000206000015414156106d457600080fd5b6002600083815260200190815260200160002060040160009054906101000a900460ff16156002600084815260200190815260200160002060040160006101000a81548160ff0219169083151502179055507fc63c34089ec3ca7025b2576e9e17e226d1e6c33f64661975d35df1cea0c0a60d826002600085815260200190815260200160002060040160009054906101000a900460ff1660405180838152602001821515151581526020019250505060405180910390a15050565b6107986108ae565b60018054806020026020016040519081016040528092919081815260200182805480156107e457602002820191906000526020600020905b8154815260200190600101908083116107d0575b5050505050905090565b602060405190810160405280600081525090565b828054600181600116156101000203166002900490600052602060002090601f016020900481019282601f1061084357805160ff1916838001178555610871565b82800160010185558215610871579182015b82811115610870578251825591602001919060010190610855565b5b50905061087e91906108c2565b5090565b8154818355818115116108a9578183600052602060002091820191016108a891906108c2565b5b505050565b602060405190810160405280600081525090565b6108e491905b808211156108e05760008160009055506001016108c8565b5090565b905600a165627a7a7230582045e483f938fa72caf1b0cd1f522abb7e917b602734fdfc54944ecd2cbbc044640029",
  "source": "pragma solidity ^0.4.17;\r\n\r\ncontract ToDo {\r\n  struct Task {\r\n    uint id;\r\n    uint date;\r\n    string content;\r\n    string author;\r\n    bool done;\r\n  }\r\n\r\n  uint private lastTaskId;\r\n  uint[] private taskIds;\r\n  mapping(uint => Task) private tasks;\r\n\r\n  event TaskCreated(uint id, uint date, string content, string author);\r\n  event TaskStatusToggled(uint id, bool done);\r\n\r\n  function ToDo() public {\r\n    lastTaskId = 0;\r\n  }\r\n\r\n  function createTask(string _content, string _author) public {\r\n    lastTaskId++;\r\n    tasks[lastTaskId] = Task(lastTaskId, now, _content, _author, false);\r\n    taskIds.push(lastTaskId);\r\n    TaskCreated(lastTaskId, now, _content, _author);\r\n  }\r\n\r\n  function toggleTaskStatus(uint id) taskExist(id) public {\r\n    tasks[id].done = !tasks[id].done;\r\n    TaskStatusToggled(id, tasks[id].done);\r\n  }\r\n\r\n  function getTaskIds() public constant returns(uint[]) {\r\n    return taskIds;\r\n  }\r\n\r\n  function getTask(uint id) taskExist(id) public constant returns(uint, uint, string, string, bool) {\r\n    return(id, tasks[id].date, tasks[id].content, tasks[id].author, tasks[id].done);\r\n  }\r\n\r\n  modifier taskExist(uint id) {\r\n    if (tasks[id].id == 0) {\r\n      revert();\r\n    }\r\n    _;\r\n  }\r\n}",
  "sourcePath": "D:\\ETB\\code\\special-episode-1\\contracts\\ToDo.sol",
  "compiler": {
    "name": "solc",
    "version": "0.4.18+commit.9cf6e910.Emscripten.clang"
  },
  "schemaVersion": "1.0.1",
  "updatedAt": "2018-01-01T20:22:43.204Z"
}