{
  "contractName": "RockPaperScissors",
  "abi": [
    {
      "constant": true,
      "inputs": [
        {
          "name": "",
          "type": "uint256"
        }
      ],
      "name": "games",
      "outputs": [
        {
          "name": "id",
          "type": "uint256"
        },
        {
          "name": "bet",
          "type": "uint256"
        },
        {
          "name": "state",
          "type": "uint8"
        }
      ],
      "payable": false,
      "stateMutability": "view",
      "type": "function"
    },
    {
      "constant": true,
      "inputs": [
        {
          "name": "",
          "type": "uint256"
        },
        {
          "name": "",
          "type": "address"
        }
      ],
      "name": "moves",
      "outputs": [
        {
          "name": "hash",
          "type": "bytes32"
        },
        {
          "name": "value",
          "type": "uint256"
        }
      ],
      "payable": false,
      "stateMutability": "view",
      "type": "function"
    },
    {
      "constant": true,
      "inputs": [
        {
          "name": "",
          "type": "uint256"
        }
      ],
      "name": "winningMoves",
      "outputs": [
        {
          "name": "",
          "type": "uint256"
        }
      ],
      "payable": false,
      "stateMutability": "view",
      "type": "function"
    },
    {
      "constant": true,
      "inputs": [],
      "name": "gameId",
      "outputs": [
        {
          "name": "",
          "type": "uint256"
        }
      ],
      "payable": false,
      "stateMutability": "view",
      "type": "function"
    },
    {
      "inputs": [],
      "payable": false,
      "stateMutability": "nonpayable",
      "type": "constructor"
    },
    {
      "constant": true,
      "inputs": [
        {
          "name": "_gameId",
          "type": "uint256"
        }
      ],
      "name": "getGame",
      "outputs": [
        {
          "name": "",
          "type": "uint256"
        },
        {
          "name": "",
          "type": "uint256"
        },
        {
          "name": "",
          "type": "address[]"
        },
        {
          "name": "",
          "type": "uint8"
        }
      ],
      "payable": false,
      "stateMutability": "view",
      "type": "function"
    },
    {
      "constant": false,
      "inputs": [
        {
          "name": "participant",
          "type": "address"
        }
      ],
      "name": "createGame",
      "outputs": [],
      "payable": true,
      "stateMutability": "payable",
      "type": "function"
    },
    {
      "constant": false,
      "inputs": [
        {
          "name": "_gameId",
          "type": "uint256"
        }
      ],
      "name": "joinGame",
      "outputs": [],
      "payable": true,
      "stateMutability": "payable",
      "type": "function"
    },
    {
      "constant": false,
      "inputs": [
        {
          "name": "_gameId",
          "type": "uint256"
        },
        {
          "name": "moveId",
          "type": "uint256"
        },
        {
          "name": "salt",
          "type": "uint256"
        }
      ],
      "name": "commitMove",
      "outputs": [],
      "payable": false,
      "stateMutability": "nonpayable",
      "type": "function"
    },
    {
      "constant": false,
      "inputs": [
        {
          "name": "_gameId",
          "type": "uint256"
        },
        {
          "name": "moveId",
          "type": "uint256"
        },
        {
          "name": "salt",
          "type": "uint256"
        }
      ],
      "name": "revealMove",
      "outputs": [],
      "payable": false,
      "stateMutability": "nonpayable",
      "type": "function"
    }
  ],
  "bytecode": "0x608060405234801561001057600080fd5b5060036002600060018152602001908152602001600020819055506001600260006002815260200190815260200160002081905550600280600060038152602001908152602001600020819055506117808061006d6000396000f3fe6080604052600436106100a3576000357c010000000000000000000000000000000000000000000000000000000090048063474d0b5a11610076578063474d0b5a146102275780634b4cbb451461026b578063a2f77bcc146102ba578063d7c81b551461036d578063efaa55a014610398576100a3565b8063117a5b90146100a857806322337a881461011357806334d3ce4b14610189578063354fe54a146101d8575b600080fd5b3480156100b457600080fd5b506100e1600480360360208110156100cb57600080fd5b81019080803590602001909291905050506103c6565b604051808481526020018381526020018260048111156100fd57fe5b60ff168152602001935050505060405180910390f35b34801561011f57600080fd5b5061016c6004803603604081101561013657600080fd5b8101908080359060200190929190803573ffffffffffffffffffffffffffffffffffffffff1690602001909291905050506103fd565b604051808381526020018281526020019250505060405180910390f35b34801561019557600080fd5b506101d6600480360360608110156101ac57600080fd5b8101908080359060200190929190803590602001909291908035906020019092919050505061042e565b005b3480156101e457600080fd5b50610225600480360360608110156101fb57600080fd5b81019080803590602001909291908035906020019092919080359060200190929190505050610985565b005b6102696004803603602081101561023d57600080fd5b81019080803573ffffffffffffffffffffffffffffffffffffffff169060200190929190505050611026565b005b34801561027757600080fd5b506102a46004803603602081101561028e57600080fd5b8101908080359060200190929190505050611222565b6040518082815260200191505060405180910390f35b3480156102c657600080fd5b506102f3600480360360208110156102dd57600080fd5b810190808035906020019092919050505061123a565b604051808581526020018481526020018060200183600481111561031357fe5b60ff168152602001828103825284818151815260200191508051906020019060200280838360005b8381101561035657808201518184015260208101905061033b565b505050509050019550505050505060405180910390f35b34801561037957600080fd5b506103826113c9565b6040518082815260200191505060405180910390f35b6103c4600480360360208110156103ae57600080fd5b81019080803590602001909291905050506113cf565b005b60006020528060005260406000206000915090508060000154908060010154908060030160009054906101000a900460ff16905083565b6001602052816000526040600020602052806000526040600020600091509150508060000154908060010154905082565b600080600085815260200190815260200160002090506002600481111561045157fe5b8160030160009054906101000a900460ff16600481111561046e57fe5b1415156104e3576040517f08c379a000000000000000000000000000000000000000000000000000000000815260040180806020018281038252601c8152602001807f67616d65206d75737420626520696e204a4f494e45442073746174650000000081525060200191505060405180910390fd5b8060020160008154811015156104f557fe5b9060005260206000200160009054906101000a900473ffffffffffffffffffffffffffffffffffffffff1673ffffffffffffffffffffffffffffffffffffffff163373ffffffffffffffffffffffffffffffffffffffff1614806105c0575080600201600181548110151561056657fe5b9060005260206000200160009054906101000a900473ffffffffffffffffffffffffffffffffffffffff1673ffffffffffffffffffffffffffffffffffffffff163373ffffffffffffffffffffffffffffffffffffffff16145b1515610617576040517f08c379a00000000000000000000000000000000000000000000000000000000081526004018080602001828103825260248152602001806117316024913960400191505060405180910390fd5b60006001026001600086815260200190815260200160002060003373ffffffffffffffffffffffffffffffffffffffff1673ffffffffffffffffffffffffffffffffffffffff168152602001908152602001600020600001541415156106e5576040517f08c379a00000000000000000000000000000000000000000000000000000000081526004018080602001828103825260118152602001807f6d6f766520616c7265616479206d61646500000000000000000000000000000081525060200191505060405180910390fd5b60018314806106f45750600283145b806106ff5750600383145b1515610773576040517f08c379a000000000000000000000000000000000000000000000000000000000815260040180806020018281038252601a8152602001807f6d6f7665206e6565647320746f20626520312c2032206f72203300000000000081525060200191505060405180910390fd5b604080519081016040528084846040516020018083815260200182815260200192505050604051602081830303815290604052805190602001208152602001848152506001600086815260200190815260200160002060003373ffffffffffffffffffffffffffffffffffffffff1673ffffffffffffffffffffffffffffffffffffffff1681526020019081526020016000206000820151816000015560208201518160010155905050600060010260016000868152602001908152602001600020600083600201600081548110151561084957fe5b9060005260206000200160009054906101000a900473ffffffffffffffffffffffffffffffffffffffff1673ffffffffffffffffffffffffffffffffffffffff1673ffffffffffffffffffffffffffffffffffffffff1681526020019081526020016000206000015414158015610953575060006001026001600086815260200190815260200160002060008360020160018154811015156108e757fe5b9060005260206000200160009054906101000a900473ffffffffffffffffffffffffffffffffffffffff1673ffffffffffffffffffffffffffffffffffffffff1673ffffffffffffffffffffffffffffffffffffffff1681526020019081526020016000206000015414155b1561097f5760038160030160006101000a81548160ff0219169083600481111561097957fe5b02179055505b50505050565b6000806000858152602001908152602001600020905060006001600086815260200190815260200160002060008360020160008154811015156109c457fe5b9060005260206000200160009054906101000a900473ffffffffffffffffffffffffffffffffffffffff1673ffffffffffffffffffffffffffffffffffffffff1673ffffffffffffffffffffffffffffffffffffffff16815260200190815260200160002090506000600160008781526020019081526020016000206000846002016001815481101515610a5457fe5b9060005260206000200160009054906101000a900473ffffffffffffffffffffffffffffffffffffffff1673ffffffffffffffffffffffffffffffffffffffff1673ffffffffffffffffffffffffffffffffffffffff168152602001908152602001600020905060006001600088815260200190815260200160002060003373ffffffffffffffffffffffffffffffffffffffff1673ffffffffffffffffffffffffffffffffffffffff168152602001908152602001600020905060036004811115610b1c57fe5b8460030160009054906101000a900460ff166004811115610b3957fe5b141515610bae576040517f08c379a000000000000000000000000000000000000000000000000000000000815260040180806020018281038252601e8152602001807f67616d65206d75737420626520696e20434f4d4d49544544207374617465000081525060200191505060405180910390fd5b836002016000815481101515610bc057fe5b9060005260206000200160009054906101000a900473ffffffffffffffffffffffffffffffffffffffff1673ffffffffffffffffffffffffffffffffffffffff163373ffffffffffffffffffffffffffffffffffffffff161480610c8b5750836002016001815481101515610c3157fe5b9060005260206000200160009054906101000a900473ffffffffffffffffffffffffffffffffffffffff1673ffffffffffffffffffffffffffffffffffffffff163373ffffffffffffffffffffffffffffffffffffffff16145b1515610ce2576040517f08c379a00000000000000000000000000000000000000000000000000000000081526004018080602001828103825260248152602001806117316024913960400191505060405180910390fd5b85856040516020018083815260200182815260200192505050604051602081830303815290604052805190602001208160000154141515610d8b576040517f08c379a00000000000000000000000000000000000000000000000000000000081526004018080602001828103825260208152602001807f6d6f7665496420646f6573206e6f74206d6174636820636f6d6d69746d656e7481525060200191505060405180910390fd5b8581600101819055506000836001015414158015610dae57506000826001015414155b1561101c57816001015483600101541415610f0057836002016000815481101515610dd557fe5b9060005260206000200160009054906101000a900473ffffffffffffffffffffffffffffffffffffffff1673ffffffffffffffffffffffffffffffffffffffff166108fc85600101549081150290604051600060405180830381858888f19350505050158015610e49573d6000803e3d6000fd5b50836002016001815481101515610e5c57fe5b9060005260206000200160009054906101000a900473ffffffffffffffffffffffffffffffffffffffff1673ffffffffffffffffffffffffffffffffffffffff166108fc85600101549081150290604051600060405180830381858888f19350505050158015610ed0573d6000803e3d6000fd5b5060048460030160006101000a81548160ff02191690836004811115610ef257fe5b021790555050505050611021565b6000826001015460026000866001015481526020019081526020016000205414610f6657846002016001815481101515610f3657fe5b9060005260206000200160009054906101000a900473ffffffffffffffffffffffffffffffffffffffff16610fa4565b846002016000815481101515610f7857fe5b9060005260206000200160009054906101000a900473ffffffffffffffffffffffffffffffffffffffff165b90508073ffffffffffffffffffffffffffffffffffffffff166108fc86600101546002029081150290604051600060405180830381858888f19350505050158015610ff3573d6000803e3d6000fd5b5060008560030160006101000a81548160ff0219169083600481111561101557fe5b0217905550505b505050505b505050565b60003411151561109e576040517f08c379a00000000000000000000000000000000000000000000000000000000081526004018080602001828103825260178152602001807f6861766520746f2073656e6420736f6d6520657468657200000000000000000081525060200191505060405180910390fd5b606060026040519080825280602002602001820160405280156110d05781602001602082028038833980820191505090505b509050338160008151811015156110e357fe5b9060200190602002019073ffffffffffffffffffffffffffffffffffffffff16908173ffffffffffffffffffffffffffffffffffffffff16815250508181600181518110151561112f57fe5b9060200190602002019073ffffffffffffffffffffffffffffffffffffffff16908173ffffffffffffffffffffffffffffffffffffffff168152505060806040519081016040528060035481526020013481526020018281526020016001600481111561119857fe5b8152506000806003548152602001908152602001600020600082015181600001556020820151816001015560408201518160020190805190602001906111df929190611663565b5060608201518160030160006101000a81548160ff0219169083600481111561120457fe5b02179055509050506003600081548092919060010191905055505050565b60026020528060005260406000206000915090505481565b60008060606000806000808781526020019081526020016000209050606060026040519080825280602002602001820160405280156112885781602001602082028038833980820191505090505b50905081600201600081548110151561129d57fe5b9060005260206000200160009054906101000a900473ffffffffffffffffffffffffffffffffffffffff168160008151811015156112d757fe5b9060200190602002019073ffffffffffffffffffffffffffffffffffffffff16908173ffffffffffffffffffffffffffffffffffffffff168152505081600201600181548110151561132557fe5b9060005260206000200160009054906101000a900473ffffffffffffffffffffffffffffffffffffffff1681600181518110151561135f57fe5b9060200190602002019073ffffffffffffffffffffffffffffffffffffffff16908173ffffffffffffffffffffffffffffffffffffffff168152505081600001548260010154828460030160009054906101000a900460ff16955095509550955050509193509193565b60035481565b600080600083815260200190815260200160002090508060020160018154811015156113f757fe5b9060005260206000200160009054906101000a900473ffffffffffffffffffffffffffffffffffffffff1673ffffffffffffffffffffffffffffffffffffffff163373ffffffffffffffffffffffffffffffffffffffff161415156114c4576040517f08c379a000000000000000000000000000000000000000000000000000000000815260040180806020018281038252601c8152602001807f73656e646572206d757374206265207365636f6e6420706c617965720000000081525060200191505060405180910390fd5b80600101543410151515611540576040517f08c379a00000000000000000000000000000000000000000000000000000000081526004018080602001828103825260158152602001807f6e6f7420656e6f7567682065746865722073656e74000000000000000000000081525060200191505060405180910390fd5b6001600481111561154d57fe5b8160030160009054906101000a900460ff16600481111561156a57fe5b1415156115df576040517f08c379a000000000000000000000000000000000000000000000000000000000815260040180806020018281038252601d8152602001807f67616d65206d75737420626520696e204352454154454420737461746500000081525060200191505060405180910390fd5b8060010154341115611639573373ffffffffffffffffffffffffffffffffffffffff166108fc826001015434039081150290604051600060405180830381858888f19350505050158015611637573d6000803e3d6000fd5b505b60028160030160006101000a81548160ff0219169083600481111561165a57fe5b02179055505050565b8280548282559060005260206000209081019282156116dc579160200282015b828111156116db5782518260006101000a81548173ffffffffffffffffffffffffffffffffffffffff021916908373ffffffffffffffffffffffffffffffffffffffff16021790555091602001919060010190611683565b5b5090506116e991906116ed565b5090565b61172d91905b8082111561172957600081816101000a81549073ffffffffffffffffffffffffffffffffffffffff0219169055506001016116f3565b5090565b9056fe63616e206f6e6c792062652063616c6c6564206279206f6e65206f6620706c6179657273a165627a7a723058201afcca621dca6272612cf5d6a47234049f1a014ed593afbb69df3bad4fa5f9920029",
  "source": "pragma solidity ^0.5.4;\n\ncontract RockPaperScissors {\n  enum State {\n    IDLE,\n    CREATED,\n    JOINED,\n    COMMITED,\n    REVEALED\n  }  \n  struct Game {\n    uint id;\n    uint bet;\n    address payable[] players;\n    State state;\n  } \n  struct Move {\n    bytes32 hash;\n    uint value;\n  }\n  mapping(uint => Game) public games;\n  mapping(uint => mapping(address => Move)) public moves;\n  mapping(uint => uint) public winningMoves;\n  uint public gameId;\n  \n  constructor() public {\n    winningMoves[1] = 3;\n    winningMoves[2] = 1;\n    winningMoves[3] = 2;\n  }\n\n  function getGame(uint _gameId) \n    external \n    view \n    returns(uint, uint, address[] memory, State) {\n      Game storage game = games[_gameId];\n      address[] memory players = new address[](2);\n      players[0] = game.players[0];\n      players[1] = game.players[1];\n      return (\n        game.id,\n        game.bet,\n        players,\n        game.state\n      );\n    }\n  \n  function createGame(address payable participant) external payable {\n    require(msg.value > 0, 'have to send some ether');\n    address payable[] memory players = new address payable[](2);\n    players[0] = msg.sender;\n    players[1] = participant;\n\n    games[gameId] = Game(\n      gameId, \n      msg.value,\n      players,\n      State.CREATED\n    );\n    gameId++;\n  }\n  \n  function joinGame(uint _gameId) external payable {\n    Game storage game = games[_gameId];\n    require(msg.sender == game.players[1], 'sender must be second player'); //also throw if game does not exist\n    require(msg.value >= game.bet, 'not enough ether sent');\n    require(game.state == State.CREATED, 'game must be in CREATED state');\n    if(msg.value > game.bet) {\n      msg.sender.transfer(msg.value - game.bet);\n    }\n    game.state = State.JOINED;\n  }\n  \n  function commitMove(uint _gameId, uint moveId, uint salt) external {\n    Game storage game = games[_gameId];\n    require(game.state == State.JOINED, 'game must be in JOINED state');\n    require(msg.sender == game.players[0] || msg.sender == game.players[1], 'can only be called by one of players');\n    require(moves[_gameId][msg.sender].hash == 0, 'move already made'); // if no move yet, it will default to 0\n    require(moveId == 1 || moveId == 2 || moveId == 3, 'move needs to be 1, 2 or 3');\n    moves[_gameId][msg.sender] = Move(\n      keccak256(abi.encodePacked(moveId, salt)), \n      moveId\n    );\n    if(moves[_gameId][game.players[0]].hash != 0 \n      && moves[_gameId][game.players[1]].hash != 0) {\n      game.state = State.COMMITED;    \n    }\n  }\n  \n  function revealMove(uint _gameId, uint moveId, uint salt) external {\n    Game storage game = games[_gameId];\n    Move storage move1 = moves[_gameId][game.players[0]];\n    Move storage move2 = moves[_gameId][game.players[1]];\n    Move storage moveSender = moves[_gameId][msg.sender];\n    require(game.state == State.COMMITED, 'game must be in COMMITED state');\n    require(msg.sender == game.players[0] || msg.sender == game.players[1], 'can only be called by one of players');\n    require(moveSender.hash == keccak256(abi.encodePacked(moveId, salt)), 'moveId does not match commitment');\n    moveSender.value = moveId;\n    if(move1.value != 0 && move2.value != 0) {\n      if(move1.value == move2.value) {\n        game.players[0].transfer(game.bet);\n        game.players[1].transfer(game.bet);\n        game.state = State.REVEALED;\n        return;\n      }\n      address payable winner;\n      winner = winningMoves[move1.value] == move2.value ? game.players[0] : game.players[1];\n      winner.transfer(2* game.bet);\n      game.state = State.IDLE;\n    }  \n  }\n}\n",
  "sourcePath": "/Users/jklepatch/ETB/code/dapp-30/day20-rock-paper-scissors/frontend/end/contracts/RockPaperScissors.sol",
  "compiler": {
    "name": "solc",
    "version": "0.5.4+commit.9549d8ff.Emscripten.clang"
  },
  "schemaVersion": "3.0.19",
  "updatedAt": "2019-12-18T11:06:27.916Z",
  "networkType": "ethereum",
  "devdoc": {
    "methods": {}
  },
  "userdoc": {
    "methods": {}
  }
}