{
  "contractName": "StateMachine",
  "abi": [
    {
      "constant": true,
      "inputs": [],
      "name": "duration",
      "outputs": [
        {
          "name": "",
          "type": "uint256"
        }
      ],
      "payable": false,
      "stateMutability": "view",
      "type": "function"
    },
    {
      "constant": true,
      "inputs": [],
      "name": "borrower",
      "outputs": [
        {
          "name": "",
          "type": "address"
        }
      ],
      "payable": false,
      "stateMutability": "view",
      "type": "function"
    },
    {
      "constant": true,
      "inputs": [],
      "name": "amount",
      "outputs": [
        {
          "name": "",
          "type": "uint256"
        }
      ],
      "payable": false,
      "stateMutability": "view",
      "type": "function"
    },
    {
      "constant": true,
      "inputs": [],
      "name": "lender",
      "outputs": [
        {
          "name": "",
          "type": "address"
        }
      ],
      "payable": false,
      "stateMutability": "view",
      "type": "function"
    },
    {
      "constant": true,
      "inputs": [],
      "name": "state",
      "outputs": [
        {
          "name": "",
          "type": "uint8"
        }
      ],
      "payable": false,
      "stateMutability": "view",
      "type": "function"
    },
    {
      "constant": true,
      "inputs": [],
      "name": "interest",
      "outputs": [
        {
          "name": "",
          "type": "uint256"
        }
      ],
      "payable": false,
      "stateMutability": "view",
      "type": "function"
    },
    {
      "constant": true,
      "inputs": [],
      "name": "end",
      "outputs": [
        {
          "name": "",
          "type": "uint256"
        }
      ],
      "payable": false,
      "stateMutability": "view",
      "type": "function"
    },
    {
      "inputs": [
        {
          "name": "_amount",
          "type": "uint256"
        },
        {
          "name": "_interest",
          "type": "uint256"
        },
        {
          "name": "_duration",
          "type": "uint256"
        },
        {
          "name": "_borrower",
          "type": "address"
        },
        {
          "name": "_lender",
          "type": "address"
        }
      ],
      "payable": false,
      "stateMutability": "nonpayable",
      "type": "constructor"
    },
    {
      "constant": false,
      "inputs": [],
      "name": "fund",
      "outputs": [],
      "payable": true,
      "stateMutability": "payable",
      "type": "function"
    },
    {
      "constant": false,
      "inputs": [],
      "name": "reimburse",
      "outputs": [],
      "payable": true,
      "stateMutability": "payable",
      "type": "function"
    }
  ],
  "bytecode": "0x608060405260008060006101000a81548160ff0219169083600281111561002257fe5b021790555034801561003357600080fd5b5060405160a080610b47833981018060405260a081101561005357600080fd5b81019080805190602001909291908051906020019092919080519060200190929190805190602001909291908051906020019092919050505084600181905550836002819055508260048190555081600560006101000a81548173ffffffffffffffffffffffffffffffffffffffff021916908373ffffffffffffffffffffffffffffffffffffffff16021790555080600660006101000a81548173ffffffffffffffffffffffffffffffffffffffff021916908373ffffffffffffffffffffffffffffffffffffffff1602179055505050505050610a10806101376000396000f3fe6080604052600436106100a3576000357c010000000000000000000000000000000000000000000000000000000090048063bcead63e11610076578063bcead63e1461015f578063c19d93fb146101b6578063c392f766146101ef578063d3927c151461021a578063efbe1c1c14610224576100a3565b80630fb5a6b4146100a85780637df1f1b9146100d3578063aa8c217c1461012a578063b60d428814610155575b600080fd5b3480156100b457600080fd5b506100bd61024f565b6040518082815260200191505060405180910390f35b3480156100df57600080fd5b506100e8610255565b604051808273ffffffffffffffffffffffffffffffffffffffff1673ffffffffffffffffffffffffffffffffffffffff16815260200191505060405180910390f35b34801561013657600080fd5b5061013f61027b565b6040518082815260200191505060405180910390f35b61015d610281565b005b34801561016b57600080fd5b5061017461044d565b604051808273ffffffffffffffffffffffffffffffffffffffff1673ffffffffffffffffffffffffffffffffffffffff16815260200191505060405180910390f35b3480156101c257600080fd5b506101cb610473565b604051808260028111156101db57fe5b60ff16815260200191505060405180910390f35b3480156101fb57600080fd5b50610204610485565b6040518082815260200191505060405180910390f35b61022261048b565b005b34801561023057600080fd5b5061023961062b565b6040518082815260200191505060405180910390f35b60045481565b600560009054906101000a900473ffffffffffffffffffffffffffffffffffffffff1681565b60015481565b600660009054906101000a900473ffffffffffffffffffffffffffffffffffffffff1673ffffffffffffffffffffffffffffffffffffffff163373ffffffffffffffffffffffffffffffffffffffff16141515610346576040517f08c379a00000000000000000000000000000000000000000000000000000000081526004018080602001828103825260148152602001807f6f6e6c79206c656e6465722063616e206c656e6400000000000000000000000081525060200191505060405180910390fd5b6001543073ffffffffffffffffffffffffffffffffffffffff16311415156103d6576040517f08c379a000000000000000000000000000000000000000000000000000000000815260040180806020018281038252601e8152602001807f63616e206f6e6c79206c656e642074686520657861637420616d6f756e74000081525060200191505060405180910390fd5b6103e06001610631565b600560009054906101000a900473ffffffffffffffffffffffffffffffffffffffff1673ffffffffffffffffffffffffffffffffffffffff166108fc6001549081150290604051600060405180830381858888f1935050505015801561044a573d6000803e3d6000fd5b50565b600660009054906101000a900473ffffffffffffffffffffffffffffffffffffffff1681565b6000809054906101000a900460ff1681565b60025481565b600560009054906101000a900473ffffffffffffffffffffffffffffffffffffffff1673ffffffffffffffffffffffffffffffffffffffff163373ffffffffffffffffffffffffffffffffffffffff16141515610550576040517f08c379a000000000000000000000000000000000000000000000000000000000815260040180806020018281038252601b8152602001807f6f6e6c7920626f72726f7765722063616e207265696d6275727365000000000081525060200191505060405180910390fd5b60025460015401341415156105b0576040517f08c379a000000000000000000000000000000000000000000000000000000000815260040180806020018281038252603481526020018061098d6034913960400191505060405180910390fd5b6105ba6002610631565b600660009054906101000a900473ffffffffffffffffffffffffffffffffffffffff1673ffffffffffffffffffffffffffffffffffffffff166108fc600254600154019081150290604051600060405180830381858888f19350505050158015610628573d6000803e3d6000fd5b50565b60035481565b6000600281111561063e57fe5b81600281111561064a57fe5b141515156106c0576040517f08c379a00000000000000000000000000000000000000000000000000000000081526004018080602001828103825260198152602001807f63616e6e6f7420676f206261636b20746f2070656e64696e670000000000000081525060200191505060405180910390fd5b6000809054906101000a900460ff1660028111156106da57fe5b8160028111156106e657fe5b1415151561075c576040517f08c379a000000000000000000000000000000000000000000000000000000000815260040180806020018281038252601f8152602001807f63616e6e6f74207472616e736974696f6e20746f2073616d652073746174650081525060200191505060405180910390fd5b6001600281111561076957fe5b81600281111561077557fe5b1415610829576000600281111561078857fe5b6000809054906101000a900460ff1660028111156107a257fe5b1415156107fa576040517f08c379a00000000000000000000000000000000000000000000000000000000081526004018080602001828103825260258152602001806109686025913960400191505060405180910390fd5b60016000806101000a81548160ff0219169083600281111561081857fe5b021790555060045442016003819055505b60028081111561083557fe5b81600281111561084157fe5b1415610964576001600281111561085457fe5b6000809054906101000a900460ff16600281111561086e57fe5b1415156108c6576040517f08c379a00000000000000000000000000000000000000000000000000000000081526004018080602001828103825260248152602001806109c16024913960400191505060405180910390fd5b6003544210151515610940576040517f08c379a00000000000000000000000000000000000000000000000000000000081526004018080602001828103825260168152602001807f6c6f616e206861736e74206d617475726564207965740000000000000000000081525060200191505060405180910390fd5b60026000806101000a81548160ff0219169083600281111561095e57fe5b02179055505b5056fe63616e6e6f74206f6e6c7920676f20746f206163746976652066726f6d2070656e64696e67626f72726f776572206e65656420746f207265696d62757273652065786163746c7920616d6f756e74202b20696e74657265737463616e6e6f74206f6e6c7920676f20746f20636c6f7365642066726f6d20616374697665a165627a7a7230582095705d2c9913cd69fd348daf8459028f8c977bce6c9d6142e331a1bcf1aaf4710029",
  "source": "pragma solidity ^0.5.4;\n\ncontract StateMachine {\n    enum State {\n        PENDING,\n        ACTIVE,\n        CLOSED\n    }\n    State public state = State.PENDING;\n    uint public amount;\n    uint public interest;\n    uint public end;\n    uint public duration;\n    address payable public borrower;\n    address payable public lender;\n    \n    constructor(\n        uint _amount,\n        uint _interest,\n        uint _duration,\n        address payable _borrower,\n        address payable _lender\n        ) public {\n        amount = _amount;\n        interest = _interest;\n        duration = _duration;\n        borrower = _borrower;\n        lender = _lender;\n    }\n    \n    function fund() payable external {\n        require(msg.sender == lender, 'only lender can lend');\n        require(address(this).balance == amount, 'can only lend the exact amount');\n        _transitionTo(State.ACTIVE);\n        borrower.transfer(amount);\n    }\n    \n    function reimburse() payable external {\n        require(msg.sender == borrower, 'only borrower can reimburse');\n        require(msg.value == amount + interest, 'borrower need to reimburse exactly amount + interest');\n        _transitionTo(State.CLOSED);\n        lender.transfer(amount + interest);\n    }\n\n    function _transitionTo(State to) internal {\n      require(to != State.PENDING, 'cannot go back to pending');\n      require(to != state, 'cannot transition to same state');\n      if(to == State.ACTIVE) {\n        require(state == State.PENDING, 'cannot only go to active from pending');\n        state = State.ACTIVE;\n        end = now + duration;\n      }\n      if(to == State.CLOSED) {\n        require(state == State.ACTIVE, 'cannot only go to closed from active');\n        require(now >= end, 'loan hasnt matured yet');\n        state = State.CLOSED;\n      }\n    }\n}\n",
  "sourcePath": "/Users/jklepatch/ETB/code/dapp-30/day16-loan-state-machine/frontend/end/contracts/StateMachine.sol",
  "compiler": {
    "name": "solc",
    "version": "0.5.4+commit.9549d8ff.Emscripten.clang"
  },
  "schemaVersion": "3.0.11",
  "updatedAt": "2019-11-24T08:22:04.225Z",
  "devdoc": {
    "methods": {}
  },
  "userdoc": {
    "methods": {}
  }
}