{
  "contractName": "Wallet",
  "abi": [
    {
      "inputs": [
        {
          "internalType": "address[]",
          "name": "_approvers",
          "type": "address[]"
        },
        {
          "internalType": "uint256",
          "name": "_quorum",
          "type": "uint256"
        }
      ],
      "stateMutability": "nonpayable",
      "type": "constructor"
    },
    {
      "inputs": [
        {
          "internalType": "address",
          "name": "",
          "type": "address"
        },
        {
          "internalType": "uint256",
          "name": "",
          "type": "uint256"
        }
      ],
      "name": "approvals",
      "outputs": [
        {
          "internalType": "bool",
          "name": "",
          "type": "bool"
        }
      ],
      "stateMutability": "view",
      "type": "function"
    },
    {
      "inputs": [
        {
          "internalType": "uint256",
          "name": "",
          "type": "uint256"
        }
      ],
      "name": "approvers",
      "outputs": [
        {
          "internalType": "address",
          "name": "",
          "type": "address"
        }
      ],
      "stateMutability": "view",
      "type": "function"
    },
    {
      "inputs": [],
      "name": "quorum",
      "outputs": [
        {
          "internalType": "uint256",
          "name": "",
          "type": "uint256"
        }
      ],
      "stateMutability": "view",
      "type": "function"
    },
    {
      "inputs": [
        {
          "internalType": "uint256",
          "name": "",
          "type": "uint256"
        }
      ],
      "name": "transfers",
      "outputs": [
        {
          "internalType": "uint256",
          "name": "id",
          "type": "uint256"
        },
        {
          "internalType": "uint256",
          "name": "amount",
          "type": "uint256"
        },
        {
          "internalType": "address payable",
          "name": "to",
          "type": "address"
        },
        {
          "internalType": "uint256",
          "name": "approvals",
          "type": "uint256"
        },
        {
          "internalType": "bool",
          "name": "sent",
          "type": "bool"
        }
      ],
      "stateMutability": "view",
      "type": "function"
    },
    {
      "stateMutability": "payable",
      "type": "receive"
    },
    {
      "inputs": [],
      "name": "getApprovers",
      "outputs": [
        {
          "internalType": "address[]",
          "name": "",
          "type": "address[]"
        }
      ],
      "stateMutability": "view",
      "type": "function"
    },
    {
      "inputs": [],
      "name": "getTransfers",
      "outputs": [
        {
          "components": [
            {
              "internalType": "uint256",
              "name": "id",
              "type": "uint256"
            },
            {
              "internalType": "uint256",
              "name": "amount",
              "type": "uint256"
            },
            {
              "internalType": "address payable",
              "name": "to",
              "type": "address"
            },
            {
              "internalType": "uint256",
              "name": "approvals",
              "type": "uint256"
            },
            {
              "internalType": "bool",
              "name": "sent",
              "type": "bool"
            }
          ],
          "internalType": "struct Wallet.Transfer[]",
          "name": "",
          "type": "tuple[]"
        }
      ],
      "stateMutability": "view",
      "type": "function"
    },
    {
      "inputs": [
        {
          "internalType": "uint256",
          "name": "amount",
          "type": "uint256"
        },
        {
          "internalType": "address payable",
          "name": "to",
          "type": "address"
        }
      ],
      "name": "createTransfer",
      "outputs": [],
      "stateMutability": "nonpayable",
      "type": "function"
    },
    {
      "inputs": [
        {
          "internalType": "uint256",
          "name": "id",
          "type": "uint256"
        }
      ],
      "name": "approveTransfer",
      "outputs": [],
      "stateMutability": "nonpayable",
      "type": "function"
    }
  ],
  "bytecode": "0x60806040523480156200001157600080fd5b506040516200152d3803806200152d8339818101604052810190620000379190620001dd565b81600090805190602001906200004f9291906200005f565b508060018190555050506200033b565b828054828255906000526020600020908101928215620000db579160200282015b82811115620000da5782518260006101000a81548173ffffffffffffffffffffffffffffffffffffffff021916908373ffffffffffffffffffffffffffffffffffffffff1602179055509160200191906001019062000080565b5b509050620000ea9190620000ee565b5090565b5b8082111562000109576000816000905550600101620000ef565b5090565b6000620001246200011e846200026b565b62000237565b905080838252602082019050828560208602820111156200014457600080fd5b60005b858110156200017857816200015d888262000182565b84526020840193506020830192505060018101905062000147565b5050509392505050565b600081519050620001938162000307565b92915050565b600082601f830112620001ab57600080fd5b8151620001bd8482602086016200010d565b91505092915050565b600081519050620001d78162000321565b92915050565b60008060408385031215620001f157600080fd5b600083015167ffffffffffffffff8111156200020c57600080fd5b6200021a8582860162000199565b92505060206200022d85828601620001c6565b9150509250929050565b6000604051905081810181811067ffffffffffffffff82111715620002615762000260620002d8565b5b8060405250919050565b600067ffffffffffffffff821115620002895762000288620002d8565b5b602082029050602081019050919050565b6000620002a782620002ae565b9050919050565b600073ffffffffffffffffffffffffffffffffffffffff82169050919050565b6000819050919050565b7f4e487b7100000000000000000000000000000000000000000000000000000000600052604160045260246000fd5b62000312816200029a565b81146200031e57600080fd5b50565b6200032c81620002ce565b81146200033857600080fd5b50565b6111e2806200034b6000396000f3fe60806040526004361061007f5760003560e01c80639377d7111161004e5780639377d71114610135578063cacca4a014610176578063d3650fb81461019f578063ffabc673146101dc57610086565b80631703a0181461008b5780632f65142c146100b65780634c12fa47146100e15780636cb3e8ef1461010a57610086565b3661008657005b600080fd5b34801561009757600080fd5b506100a0610219565b6040516100ad9190610fa4565b60405180910390f35b3480156100c257600080fd5b506100cb61021f565b6040516100d89190610f07565b60405180910390f35b3480156100ed57600080fd5b5061010860048036038101906101039190610c02565b61030d565b005b34801561011657600080fd5b5061011f610513565b60405161012c9190610ee5565b60405180910390f35b34801561014157600080fd5b5061015c60048036038101906101579190610bd9565b6105a1565b60405161016d959493929190610fbf565b60405180910390f35b34801561018257600080fd5b5061019d60048036038101906101989190610bd9565b610614565b005b3480156101ab57600080fd5b506101c660048036038101906101c19190610bd9565b610af0565b6040516101d39190610eca565b60405180910390f35b3480156101e857600080fd5b5061020360048036038101906101fe9190610b9d565b610b2f565b6040516102109190610f29565b60405180910390f35b60015481565b60606002805480602002602001604051908101604052809291908181526020016000905b8282101561030457838290600052602060002090600502016040518060a001604052908160008201548152602001600182015481526020016002820160009054906101000a900473ffffffffffffffffffffffffffffffffffffffff1673ffffffffffffffffffffffffffffffffffffffff1673ffffffffffffffffffffffffffffffffffffffff168152602001600382015481526020016004820160009054906101000a900460ff16151515158152505081526020019060010190610243565b50505050905090565b6000805b6000805490508110156103ce573373ffffffffffffffffffffffffffffffffffffffff166000828154811061036f577f4e487b7100000000000000000000000000000000000000000000000000000000600052603260045260246000fd5b9060005260206000200160009054906101000a900473ffffffffffffffffffffffffffffffffffffffff1673ffffffffffffffffffffffffffffffffffffffff1614156103bb57600191505b80806103c6906110ef565b915050610311565b506001151581151514610416576040517f08c379a000000000000000000000000000000000000000000000000000000000815260040161040d90610f64565b60405180910390fd5b60026040518060a0016040528060028054905081526020018581526020018473ffffffffffffffffffffffffffffffffffffffff16815260200160008152602001600015158152509080600181540180825580915050600190039060005260206000209060050201600090919091909150600082015181600001556020820151816001015560408201518160020160006101000a81548173ffffffffffffffffffffffffffffffffffffffff021916908373ffffffffffffffffffffffffffffffffffffffff1602179055506060820151816003015560808201518160040160006101000a81548160ff0219169083151502179055505050505050565b6060600080548060200260200160405190810160405280929190818152602001828054801561059757602002820191906000526020600020905b8160009054906101000a900473ffffffffffffffffffffffffffffffffffffffff1673ffffffffffffffffffffffffffffffffffffffff168152602001906001019080831161054d575b5050505050905090565b600281815481106105b157600080fd5b90600052602060002090600502016000915090508060000154908060010154908060020160009054906101000a900473ffffffffffffffffffffffffffffffffffffffff16908060030154908060040160009054906101000a900460ff16905085565b6000805b6000805490508110156106d5573373ffffffffffffffffffffffffffffffffffffffff1660008281548110610676577f4e487b7100000000000000000000000000000000000000000000000000000000600052603260045260246000fd5b9060005260206000200160009054906101000a900473ffffffffffffffffffffffffffffffffffffffff1673ffffffffffffffffffffffffffffffffffffffff1614156106c257600191505b80806106cd906110ef565b915050610618565b50600115158115151461071d576040517f08c379a000000000000000000000000000000000000000000000000000000000815260040161071490610f64565b60405180910390fd5b600015156002838154811061075b577f4e487b7100000000000000000000000000000000000000000000000000000000600052603260045260246000fd5b906000526020600020906005020160040160009054906101000a900460ff161515146107bc576040517f08c379a00000000000000000000000000000000000000000000000000000000081526004016107b390610f44565b60405180910390fd5b60001515600360003373ffffffffffffffffffffffffffffffffffffffff1673ffffffffffffffffffffffffffffffffffffffff168152602001908152602001600020600084815260200190815260200160002060009054906101000a900460ff16151514610860576040517f08c379a000000000000000000000000000000000000000000000000000000000815260040161085790610f84565b60405180910390fd5b6001600360003373ffffffffffffffffffffffffffffffffffffffff1673ffffffffffffffffffffffffffffffffffffffff168152602001908152602001600020600084815260200190815260200160002060006101000a81548160ff02191690831515021790555060028281548110610903577f4e487b7100000000000000000000000000000000000000000000000000000000600052603260045260246000fd5b90600052602060002090600502016003016000815480929190610925906110ef565b919050555060015460028381548110610967577f4e487b7100000000000000000000000000000000000000000000000000000000600052603260045260246000fd5b90600052602060002090600502016003015410610aec576001600283815481106109ba577f4e487b7100000000000000000000000000000000000000000000000000000000600052603260045260246000fd5b906000526020600020906005020160040160006101000a81548160ff021916908315150217905550600060028381548110610a1e577f4e487b7100000000000000000000000000000000000000000000000000000000600052603260045260246000fd5b906000526020600020906005020160020160009054906101000a900473ffffffffffffffffffffffffffffffffffffffff169050600060028481548110610a8e577f4e487b7100000000000000000000000000000000000000000000000000000000600052603260045260246000fd5b90600052602060002090600502016001015490508173ffffffffffffffffffffffffffffffffffffffff166108fc829081150290604051600060405180830381858888f19350505050158015610ae8573d6000803e3d6000fd5b5050505b5050565b60008181548110610b0057600080fd5b906000526020600020016000915054906101000a900473ffffffffffffffffffffffffffffffffffffffff1681565b60036020528160005260406000206020528060005260406000206000915091509054906101000a900460ff1681565b600081359050610b6d81611167565b92915050565b600081359050610b828161117e565b92915050565b600081359050610b9781611195565b92915050565b60008060408385031215610bb057600080fd5b6000610bbe85828601610b5e565b9250506020610bcf85828601610b88565b9150509250929050565b600060208284031215610beb57600080fd5b6000610bf984828501610b88565b91505092915050565b60008060408385031215610c1557600080fd5b6000610c2385828601610b88565b9250506020610c3485828601610b73565b9150509250929050565b6000610c4a8383610c8c565b60208301905092915050565b6000610c628383610e44565b60a08301905092915050565b610c77816110a7565b82525050565b610c86816110a7565b82525050565b610c9581611095565b82525050565b610ca481611095565b82525050565b6000610cb582611032565b610cbf8185611062565b9350610cca83611012565b8060005b83811015610cfb578151610ce28882610c3e565b9750610ced83611048565b925050600181019050610cce565b5085935050505092915050565b6000610d138261103d565b610d1d8185611073565b9350610d2883611022565b8060005b83811015610d59578151610d408882610c56565b9750610d4b83611055565b925050600181019050610d2c565b5085935050505092915050565b610d6f816110b9565b82525050565b610d7e816110b9565b82525050565b6000610d91601e83611084565b91507f7472616e736665722068617320616c7265616479206265656e2073656e7400006000830152602082019050919050565b6000610dd1601583611084565b91507f6f6e6c7920617070726f76657220616c6c6f77656400000000000000000000006000830152602082019050919050565b6000610e11601d83611084565b91507f63616e6e6f7420617070726f7665207472616e736665722074776963650000006000830152602082019050919050565b60a082016000820151610e5a6000850182610eac565b506020820151610e6d6020850182610eac565b506040820151610e806040850182610c6e565b506060820151610e936060850182610eac565b506080820151610ea66080850182610d66565b50505050565b610eb5816110e5565b82525050565b610ec4816110e5565b82525050565b6000602082019050610edf6000830184610c9b565b92915050565b60006020820190508181036000830152610eff8184610caa565b905092915050565b60006020820190508181036000830152610f218184610d08565b905092915050565b6000602082019050610f3e6000830184610d75565b92915050565b60006020820190508181036000830152610f5d81610d84565b9050919050565b60006020820190508181036000830152610f7d81610dc4565b9050919050565b60006020820190508181036000830152610f9d81610e04565b9050919050565b6000602082019050610fb96000830184610ebb565b92915050565b600060a082019050610fd46000830188610ebb565b610fe16020830187610ebb565b610fee6040830186610c7d565b610ffb6060830185610ebb565b6110086080830184610d75565b9695505050505050565b6000819050602082019050919050565b6000819050602082019050919050565b600081519050919050565b600081519050919050565b6000602082019050919050565b6000602082019050919050565b600082825260208201905092915050565b600082825260208201905092915050565b600082825260208201905092915050565b60006110a0826110c5565b9050919050565b60006110b2826110c5565b9050919050565b60008115159050919050565b600073ffffffffffffffffffffffffffffffffffffffff82169050919050565b6000819050919050565b60006110fa826110e5565b91507fffffffffffffffffffffffffffffffffffffffffffffffffffffffffffffffff82141561112d5761112c611138565b5b600182019050919050565b7f4e487b7100000000000000000000000000000000000000000000000000000000600052601160045260246000fd5b61117081611095565b811461117b57600080fd5b50565b611187816110a7565b811461119257600080fd5b50565b61119e816110e5565b81146111a957600080fd5b5056fea2646970667358221220345171ecb515a22cc6e577d3d25061e11036a68a925d88d061a07c72be4e30bc64736f6c63430008000033",
  "immutableReferences": {},
  "source": "pragma solidity 0.8.0;\n//pragma experimental ABIEncoderV2;\n\ncontract Wallet {\n    address[] public approvers;\n    uint public quorum;\n    struct Transfer {\n        uint id;\n        uint amount;\n        address payable to;\n        uint approvals;\n        bool sent;\n    }\n    Transfer[] public transfers;\n    mapping(address => mapping(uint => bool)) public approvals;\n    \n    constructor(address[] memory _approvers, uint _quorum) {\n        approvers = _approvers;\n        quorum = _quorum;\n    }\n    \n    function getApprovers() external view returns(address[] memory) {\n        return approvers;\n    }\n    \n    function getTransfers() external view returns(Transfer[] memory) {\n        return transfers;\n    }\n\n    function createTransfer(uint amount, address payable to) external onlyApprover() {\n        transfers.push(Transfer(\n            transfers.length,\n            amount,\n            to,\n            0,\n            false\n        ));\n    }\n    \n    function approveTransfer(uint id) external onlyApprover() {\n        require(transfers[id].sent == false, 'transfer has already been sent');\n        require(approvals[msg.sender][id] == false, 'cannot approve transfer twice');\n        \n        approvals[msg.sender][id] = true;\n        transfers[id].approvals++;\n        \n        if(transfers[id].approvals >= quorum) {\n            transfers[id].sent = true;\n            address payable to = transfers[id].to;\n            uint amount = transfers[id].amount;\n            to.transfer(amount);\n        }\n    }\n    \n    receive() external payable {}\n    \n    modifier onlyApprover() {\n        bool allowed = false;\n        for(uint i = 0; i < approvers.length; i++) {\n            if(approvers[i] == msg.sender) {\n                allowed = true;\n            }\n        }\n        require(allowed == true, 'only approver allowed');\n        _;\n    }\n}\n",
  "sourcePath": "/Users/jklepatch/ETB/code/blockchain-masterclass/wallet-3-frontend/15-solidity-0-8-update/contracts/Wallet.sol",
  "compiler": {
    "name": "solc",
    "version": "0.8.0+commit.c7dfd78e.Emscripten.clang"
  },
  "schemaVersion": "3.3.3",
  "updatedAt": "2021-03-30T09:26:56.740Z",
  "devdoc": {
    "kind": "dev",
    "methods": {},
    "version": 1
  },
  "userdoc": {
    "kind": "user",
    "methods": {},
    "version": 1
  }
}