{
  "contractName": "MyContract",
  "abi": [
    {
      "inputs": [],
      "name": "data",
      "outputs": [
        {
          "internalType": "uint256",
          "name": "",
          "type": "uint256"
        }
      ],
      "stateMutability": "view",
      "type": "function",
      "constant": true
    },
    {
      "inputs": [
        {
          "internalType": "uint256",
          "name": "_data",
          "type": "uint256"
        }
      ],
      "name": "updateData",
      "outputs": [],
      "stateMutability": "nonpayable",
      "type": "function"
    },
    {
      "inputs": [],
      "name": "willThrow",
      "outputs": [],
      "stateMutability": "nonpayable",
      "type": "function"
    }
  ],
  "bytecode": "0x608060405234801561001057600080fd5b50610158806100206000396000f3fe608060405234801561001057600080fd5b50600436106100415760003560e01c806309e960081461004657806318955b1e1461007457806373d4a13a1461007e575b600080fd5b6100726004803603602081101561005c57600080fd5b810190808035906020019092919050505061009c565b005b61007c6100a6565b005b61008661011c565b6040518082815260200191505060405180910390f35b8060008190555050565b600061011a576040517f08c379a00000000000000000000000000000000000000000000000000000000081526004018080602001828103825260198152602001807f7468697320697320746865206572726f72206d6573736167650000000000000081525060200191505060405180910390fd5b565b6000548156fea2646970667358221220ff2e24ce4e3f336f6f1a9846ae113394bf10698b859b80cdc903752f1837478c64736f6c63430007050033",
  "immutableReferences": {},
  "source": "pragma solidity ^0.7.5;\n\ncontract MyContract {\n  uint public data;\n\n  function updateData(uint _data) external {\n    data = _data;\n  }\n\n  function willThrow() external {\n    require(false, 'this is the error message');\n  }\n}\n\n\n",
  "sourcePath": "/Users/jklepatch/ETB/code/screencast/260-debugging-metamask/contracts/MyContract.sol",
  "compiler": {
    "name": "solc",
    "version": "0.7.5+commit.eb77ed08.Emscripten.clang"
  },
  "schemaVersion": "3.3.2",
  "updatedAt": "2020-11-26T17:36:38.797Z",
  "networkType": "ethereum",
  "devdoc": {
    "kind": "dev",
    "methods": {},
    "version": 1
  },
  "userdoc": {
    "kind": "user",
    "methods": {},
    "version": 1
  }
}