{
  "contractName": "SimpleStorage",
  "abi": [
    {
      "constant": true,
      "inputs": [],
      "name": "storedData",
      "outputs": [
        {
          "name": "",
          "type": "uint256"
        }
      ],
      "payable": false,
      "stateMutability": "view",
      "type": "function",
      "signature": "0x2a1afcd9"
    },
    {
      "constant": false,
      "inputs": [
        {
          "name": "x",
          "type": "uint256"
        }
      ],
      "name": "set",
      "outputs": [],
      "payable": false,
      "stateMutability": "nonpayable",
      "type": "function",
      "signature": "0x60fe47b1"
    }
  ],
  "bytecode": "0x608060405234801561001057600080fd5b5060e98061001f6000396000f3fe6080604052600436106049576000357c0100000000000000000000000000000000000000000000000000000000900463ffffffff1680632a1afcd914604e57806360fe47b1146076575b600080fd5b348015605957600080fd5b50606060ad565b6040518082815260200191505060405180910390f35b348015608157600080fd5b5060ab60048036036020811015609657600080fd5b810190808035906020019092919050505060b3565b005b60005481565b806000819055505056fea165627a7a72305820bbd81fd02dddde98ae400f99d6f920e7df3312c34c7b830fbff42838293b81d10029",
  "source": "pragma solidity >=0.4.21 <0.6.0;\n\ncontract SimpleStorage {\n    uint public storedData;\n\n    function set(uint x) public {\n        storedData = x;\n    }\n}\n",
  "sourcePath": "/Users/jklepatch/ETB/code/screencast/12-drizzle-vue-dapp-basic/end/contracts/SimpleStorage.sol",
  "compiler": {
    "name": "solc",
    "version": "0.5.0+commit.1d4f565a.Emscripten.clang"
  },
  "schemaVersion": "3.0.6",
  "updatedAt": "2019-06-25T06:56:35.565Z",
  "devdoc": {
    "methods": {}
  },
  "userdoc": {
    "methods": {}
  }
}