{
  "contractName": "Cryptokitty",
  "abi": [
    {
      "constant": true,
      "inputs": [
        {
          "name": "_tokenId",
          "type": "uint256"
        }
      ],
      "name": "getApproved",
      "outputs": [
        {
          "name": "",
          "type": "address"
        }
      ],
      "payable": false,
      "stateMutability": "view",
      "type": "function"
    },
    {
      "constant": false,
      "inputs": [
        {
          "name": "_approved",
          "type": "address"
        },
        {
          "name": "_tokenId",
          "type": "uint256"
        }
      ],
      "name": "approve",
      "outputs": [],
      "payable": true,
      "stateMutability": "payable",
      "type": "function"
    },
    {
      "constant": false,
      "inputs": [
        {
          "name": "_from",
          "type": "address"
        },
        {
          "name": "_to",
          "type": "address"
        },
        {
          "name": "_tokenId",
          "type": "uint256"
        }
      ],
      "name": "transferFrom",
      "outputs": [],
      "payable": true,
      "stateMutability": "payable",
      "type": "function"
    },
    {
      "constant": true,
      "inputs": [],
      "name": "tokenURIBase",
      "outputs": [
        {
          "name": "",
          "type": "string"
        }
      ],
      "payable": false,
      "stateMutability": "view",
      "type": "function"
    },
    {
      "constant": false,
      "inputs": [
        {
          "name": "_from",
          "type": "address"
        },
        {
          "name": "_to",
          "type": "address"
        },
        {
          "name": "_tokenId",
          "type": "uint256"
        }
      ],
      "name": "safeTransferFrom",
      "outputs": [],
      "payable": true,
      "stateMutability": "payable",
      "type": "function"
    },
    {
      "constant": true,
      "inputs": [],
      "name": "nextId",
      "outputs": [
        {
          "name": "",
          "type": "uint256"
        }
      ],
      "payable": false,
      "stateMutability": "view",
      "type": "function"
    },
    {
      "constant": true,
      "inputs": [
        {
          "name": "_tokenId",
          "type": "uint256"
        }
      ],
      "name": "ownerOf",
      "outputs": [
        {
          "name": "",
          "type": "address"
        }
      ],
      "payable": false,
      "stateMutability": "view",
      "type": "function"
    },
    {
      "constant": true,
      "inputs": [
        {
          "name": "_owner",
          "type": "address"
        }
      ],
      "name": "balanceOf",
      "outputs": [
        {
          "name": "",
          "type": "uint256"
        }
      ],
      "payable": false,
      "stateMutability": "view",
      "type": "function"
    },
    {
      "constant": true,
      "inputs": [
        {
          "name": "",
          "type": "uint256"
        }
      ],
      "name": "kitties",
      "outputs": [
        {
          "name": "id",
          "type": "uint256"
        },
        {
          "name": "generation",
          "type": "uint256"
        },
        {
          "name": "geneA",
          "type": "uint256"
        },
        {
          "name": "geneB",
          "type": "uint256"
        }
      ],
      "payable": false,
      "stateMutability": "view",
      "type": "function"
    },
    {
      "constant": false,
      "inputs": [
        {
          "name": "_operator",
          "type": "address"
        },
        {
          "name": "_approved",
          "type": "bool"
        }
      ],
      "name": "setApprovalForAll",
      "outputs": [],
      "payable": false,
      "stateMutability": "nonpayable",
      "type": "function"
    },
    {
      "constant": false,
      "inputs": [
        {
          "name": "_from",
          "type": "address"
        },
        {
          "name": "_to",
          "type": "address"
        },
        {
          "name": "_tokenId",
          "type": "uint256"
        },
        {
          "name": "data",
          "type": "bytes"
        }
      ],
      "name": "safeTransferFrom",
      "outputs": [],
      "payable": true,
      "stateMutability": "payable",
      "type": "function"
    },
    {
      "constant": true,
      "inputs": [
        {
          "name": "_tokenId",
          "type": "uint256"
        }
      ],
      "name": "tokenURI",
      "outputs": [
        {
          "name": "",
          "type": "string"
        }
      ],
      "payable": false,
      "stateMutability": "view",
      "type": "function"
    },
    {
      "constant": true,
      "inputs": [
        {
          "name": "_owner",
          "type": "address"
        },
        {
          "name": "_operator",
          "type": "address"
        }
      ],
      "name": "isApprovedForAll",
      "outputs": [
        {
          "name": "",
          "type": "bool"
        }
      ],
      "payable": false,
      "stateMutability": "view",
      "type": "function"
    },
    {
      "constant": true,
      "inputs": [],
      "name": "admin",
      "outputs": [
        {
          "name": "",
          "type": "address"
        }
      ],
      "payable": false,
      "stateMutability": "view",
      "type": "function"
    },
    {
      "inputs": [
        {
          "name": "_tokenURIBase",
          "type": "string"
        }
      ],
      "payable": false,
      "stateMutability": "nonpayable",
      "type": "constructor"
    },
    {
      "anonymous": false,
      "inputs": [
        {
          "indexed": true,
          "name": "_from",
          "type": "address"
        },
        {
          "indexed": true,
          "name": "_to",
          "type": "address"
        },
        {
          "indexed": true,
          "name": "_tokenId",
          "type": "uint256"
        }
      ],
      "name": "Transfer",
      "type": "event"
    },
    {
      "anonymous": false,
      "inputs": [
        {
          "indexed": true,
          "name": "_owner",
          "type": "address"
        },
        {
          "indexed": true,
          "name": "_approved",
          "type": "address"
        },
        {
          "indexed": true,
          "name": "_tokenId",
          "type": "uint256"
        }
      ],
      "name": "Approval",
      "type": "event"
    },
    {
      "anonymous": false,
      "inputs": [
        {
          "indexed": true,
          "name": "_owner",
          "type": "address"
        },
        {
          "indexed": true,
          "name": "_operator",
          "type": "address"
        },
        {
          "indexed": false,
          "name": "_approved",
          "type": "bool"
        }
      ],
      "name": "ApprovalForAll",
      "type": "event"
    },
    {
      "constant": true,
      "inputs": [],
      "name": "getAllKitties",
      "outputs": [
        {
          "components": [
            {
              "name": "id",
              "type": "uint256"
            },
            {
              "name": "generation",
              "type": "uint256"
            },
            {
              "name": "geneA",
              "type": "uint256"
            },
            {
              "name": "geneB",
              "type": "uint256"
            }
          ],
          "name": "",
          "type": "tuple[]"
        }
      ],
      "payable": false,
      "stateMutability": "view",
      "type": "function"
    },
    {
      "constant": true,
      "inputs": [
        {
          "name": "owner",
          "type": "address"
        }
      ],
      "name": "getAllKittiesOf",
      "outputs": [
        {
          "components": [
            {
              "name": "id",
              "type": "uint256"
            },
            {
              "name": "generation",
              "type": "uint256"
            },
            {
              "name": "geneA",
              "type": "uint256"
            },
            {
              "name": "geneB",
              "type": "uint256"
            }
          ],
          "name": "",
          "type": "tuple[]"
        }
      ],
      "payable": false,
      "stateMutability": "view",
      "type": "function"
    },
    {
      "constant": false,
      "inputs": [
        {
          "name": "kitty1Id",
          "type": "uint256"
        },
        {
          "name": "kitty2Id",
          "type": "uint256"
        }
      ],
      "name": "breed",
      "outputs": [],
      "payable": false,
      "stateMutability": "nonpayable",
      "type": "function"
    },
    {
      "constant": false,
      "inputs": [],
      "name": "mint",
      "outputs": [],
      "payable": false,
      "stateMutability": "nonpayable",
      "type": "function"
    }
  ],
  "bytecode": "0x60806040523480156200001157600080fd5b50604051620023d3380380620023d38339810180604052620000379190810190620001a5565b808060059080519060200190620000509291906200009a565b505033600860006101000a81548173ffffffffffffffffffffffffffffffffffffffff021916908373ffffffffffffffffffffffffffffffffffffffff160217905550506200027b565b828054600181600116156101000203166002900490600052602060002090601f016020900481019282601f10620000dd57805160ff19168380011785556200010e565b828001600101855582156200010e579182015b828111156200010d578251825591602001919060010190620000f0565b5b5090506200011d919062000121565b5090565b6200014691905b808211156200014257600081600090555060010162000128565b5090565b90565b600082601f8301126200015b57600080fd5b8151620001726200016c8262000218565b620001ea565b915080825260208301602083018583830111156200018f57600080fd5b6200019c83828462000245565b50505092915050565b600060208284031215620001b857600080fd5b600082015167ffffffffffffffff811115620001d357600080fd5b620001e18482850162000149565b91505092915050565b6000604051905081810181811067ffffffffffffffff821117156200020e57600080fd5b8060405250919050565b600067ffffffffffffffff8211156200023057600080fd5b601f19601f8301169050602081019050919050565b60005b838110156200026557808201518184015260208101905062000248565b8381111562000275576000848401525b50505050565b612148806200028b6000396000f3fe6080604052600436106101095760003560e01c806369491ed411610095578063b88d4fde11610064578063b88d4fde14610357578063c87b56dd14610373578063d9ecad7b146103b0578063e985e9c5146103d9578063f851a4401461041657610109565b806369491ed41461028657806370a08231146102b15780638cc51eda146102ee578063a22cb4651461032e57610109565b806323b872dd116100dc57806323b872dd146101bb578063261220a3146101d757806342842e0e1461020257806361b8ce8c1461021e5780636352211e1461024957610109565b8063081812fc1461010e578063095ea7b31461014b5780630fb14c6f146101675780631249c58b146101a4575b600080fd5b34801561011a57600080fd5b50610135600480360361013091908101906117e9565b610441565b6040516101429190611d10565b60405180910390f35b61016560048036036101609190810190611784565b61047e565b005b34801561017357600080fd5b5061018e60048036036101899190810190611614565b6105d6565b60405161019b9190611d77565b60405180910390f35b3480156101b057600080fd5b506101b961073d565b005b6101d560048036036101d09190810190611679565b610863565b005b3480156101e357600080fd5b506101ec610873565b6040516101f99190611db4565b60405180910390f35b61021c60048036036102179190810190611679565b610911565b005b34801561022a57600080fd5b50610233610931565b6040516102409190611ed8565b60405180910390f35b34801561025557600080fd5b50610270600480360361026b91908101906117e9565b610937565b60405161027d9190611d10565b60405180910390f35b34801561029257600080fd5b5061029b610974565b6040516102a89190611d77565b60405180910390f35b3480156102bd57600080fd5b506102d860048036036102d39190810190611614565b610a37565b6040516102e59190611ed8565b60405180910390f35b3480156102fa57600080fd5b50610315600480360361031091908101906117e9565b610a7f565b6040516103259493929190611ef3565b60405180910390f35b34801561033a57600080fd5b5061035560048036036103509190810190611748565b610aaf565b005b610371600480360361036c91908101906116c8565b610bac565b005b34801561037f57600080fd5b5061039a600480360361039591908101906117e9565b610c03565b6040516103a79190611dd6565b60405180910390f35b3480156103bc57600080fd5b506103d760048036036103d29190810190611812565b610c2f565b005b3480156103e557600080fd5b5061040060048036036103fb919081019061163d565b610e5d565b60405161040d9190611d99565b60405180910390f35b34801561042257600080fd5b5061042b610ef1565b6040516104389190611d10565b60405180910390f35b60006002600083815260200190815260200160002060009054906101000a900473ffffffffffffffffffffffffffffffffffffffff169050919050565b60006001600083815260200190815260200160002060009054906101000a900473ffffffffffffffffffffffffffffffffffffffff1690508073ffffffffffffffffffffffffffffffffffffffff163373ffffffffffffffffffffffffffffffffffffffff1614610524576040517f08c379a000000000000000000000000000000000000000000000000000000000815260040161051b90611eb8565b60405180910390fd5b826002600084815260200190815260200160002060006101000a81548173ffffffffffffffffffffffffffffffffffffffff021916908373ffffffffffffffffffffffffffffffffffffffff160217905550818373ffffffffffffffffffffffffffffffffffffffff168273ffffffffffffffffffffffffffffffffffffffff167f8c5be1e5ebec7d5bd14f71427d1e84f3dd0314c0f7b2291e5b200ac8c7c3b92560405160405180910390a4505050565b6060600080600090505b60075481101561063c578373ffffffffffffffffffffffffffffffffffffffff1661060a82610937565b73ffffffffffffffffffffffffffffffffffffffff16141561062f5781806001019250505b80806001019150506105e0565b5060608160405190808252806020026020018201604052801561067957816020015b610666611552565b81526020019060019003908161065e5790505b50905060008090505b8151811015610732578473ffffffffffffffffffffffffffffffffffffffff166106ab82610937565b73ffffffffffffffffffffffffffffffffffffffff161415610725576006600082815260200190815260200160002060405180608001604052908160008201548152602001600182015481526020016002820154815260200160038201548152505082828151811061071957fe5b60200260200101819052505b8080600101915050610682565b508092505050919050565b600860009054906101000a900473ffffffffffffffffffffffffffffffffffffffff1673ffffffffffffffffffffffffffffffffffffffff163373ffffffffffffffffffffffffffffffffffffffff16146107cd576040517f08c379a00000000000000000000000000000000000000000000000000000000081526004016107c490611e18565b60405180910390fd5b60405180608001604052806007548152602001600181526020016107f1600a610f17565b8152602001610800600a610f17565b8152506006600060075481526020019081526020016000206000820151816000015560208201518160010155604082015181600201556060820151816003015590505061084f33600754610f55565b600760008154809291906001019190505550565b61086e8383836110f6565b505050565b60058054600181600116156101000203166002900480601f0160208091040260200160405190810160405280929190818152602001828054600181600116156101000203166002900480156109095780601f106108de57610100808354040283529160200191610909565b820191906000526020600020905b8154815290600101906020018083116108ec57829003601f168201915b505050505081565b61092c838383604051806020016040528060008152506113ec565b505050565b60075481565b60006001600083815260200190815260200160002060009054906101000a900473ffffffffffffffffffffffffffffffffffffffff169050919050565b6060806007546040519080825280602002602001820160405280156109b357816020015b6109a0611552565b8152602001906001900390816109985790505b50905060008090505b8151811015610a2f5760066000828152602001908152602001600020604051806080016040529081600082015481526020016001820154815260200160028201548152602001600382015481525050828281518110610a1757fe5b602002602001018190525080806001019150506109bc565b508091505090565b60008060008373ffffffffffffffffffffffffffffffffffffffff1673ffffffffffffffffffffffffffffffffffffffff168152602001908152602001600020549050919050565b60066020528060005260406000206000915090508060000154908060010154908060020154908060030154905084565b80600360003373ffffffffffffffffffffffffffffffffffffffff1673ffffffffffffffffffffffffffffffffffffffff16815260200190815260200160002060008473ffffffffffffffffffffffffffffffffffffffff1673ffffffffffffffffffffffffffffffffffffffff16815260200190815260200160002060006101000a81548160ff0219169083151502179055508173ffffffffffffffffffffffffffffffffffffffff163373ffffffffffffffffffffffffffffffffffffffff167f17307eab39ab6107e8899845ad3d59bd9653f200f220920489ca2b5937696c3183604051610ba09190611d99565b60405180910390a35050565b610bfc85858585858080601f016020809104026020016040519081016040528093929190818152602001838380828437600081840152601f19601f820116905080830192505050505050506113ec565b5050505050565b6060600582604051602001610c19929190611cbc565b6040516020818303038152906040529050919050565b60075482108015610c41575060075481105b610c80576040517f08c379a0000000000000000000000000000000000000000000000000000000008152600401610c7790611e78565b60405180910390fd5b600060066000848152602001908152602001600020905060006006600084815260200190815260200160002090503373ffffffffffffffffffffffffffffffffffffffff16610cce85610937565b73ffffffffffffffffffffffffffffffffffffffff16148015610d2457503373ffffffffffffffffffffffffffffffffffffffff16610d0c84610937565b73ffffffffffffffffffffffffffffffffffffffff16145b610d63576040517f08c379a0000000000000000000000000000000000000000000000000000000008152600401610d5a90611e58565b60405180910390fd5b60008160010154836001015411610d7e578160010154610d84565b82600101545b905060006001610d946004610f17565b11610da3578260020154610da9565b83600201545b905060006001610db96004610f17565b11610dc8578360030154610dce565b84600301545b9050604051806080016040528060075481526020016001850181526020018381526020018281525060066000600754815260200190815260200160002060008201518160000155602082015181600101556040820151816002015560608201518160030155905050610e4233600754610f55565b60076000815480929190600101919050555050505050505050565b6000600360008473ffffffffffffffffffffffffffffffffffffffff1673ffffffffffffffffffffffffffffffffffffffff16815260200190815260200160002060008373ffffffffffffffffffffffffffffffffffffffff1673ffffffffffffffffffffffffffffffffffffffff16815260200190815260200160002060009054906101000a900460ff16905092915050565b600860009054906101000a900473ffffffffffffffffffffffffffffffffffffffff1681565b6000814244604051602001610f2d929190611ce4565b6040516020818303038152906040528051906020012060001c81610f4d57fe5b069050919050565b600073ffffffffffffffffffffffffffffffffffffffff166001600083815260200190815260200160002060009054906101000a900473ffffffffffffffffffffffffffffffffffffffff1673ffffffffffffffffffffffffffffffffffffffff1614610ff7576040517f08c379a0000000000000000000000000000000000000000000000000000000008152600401610fee90611e98565b60405180910390fd5b816001600083815260200190815260200160002060006101000a81548173ffffffffffffffffffffffffffffffffffffffff021916908373ffffffffffffffffffffffffffffffffffffffff16021790555060016000808473ffffffffffffffffffffffffffffffffffffffff1673ffffffffffffffffffffffffffffffffffffffff16815260200190815260200160002060008282540192505081905550808273ffffffffffffffffffffffffffffffffffffffff16600073ffffffffffffffffffffffffffffffffffffffff167fddf252ad1be2c89b69c2b068fc378daa952ba7f163c4a11628f55a4df523b3ef60405160405180910390a45050565b8060006001600083815260200190815260200160002060009054906101000a900473ffffffffffffffffffffffffffffffffffffffff1690503373ffffffffffffffffffffffffffffffffffffffff168173ffffffffffffffffffffffffffffffffffffffff1614806111c757503373ffffffffffffffffffffffffffffffffffffffff166002600084815260200190815260200160002060009054906101000a900473ffffffffffffffffffffffffffffffffffffffff1673ffffffffffffffffffffffffffffffffffffffff16145b8061125f575060011515600360008373ffffffffffffffffffffffffffffffffffffffff1673ffffffffffffffffffffffffffffffffffffffff16815260200190815260200160002060003373ffffffffffffffffffffffffffffffffffffffff1673ffffffffffffffffffffffffffffffffffffffff16815260200190815260200160002060009054906101000a900460ff161515145b61129e576040517f08c379a000000000000000000000000000000000000000000000000000000000815260040161129590611df8565b60405180910390fd5b60016000808773ffffffffffffffffffffffffffffffffffffffff1673ffffffffffffffffffffffffffffffffffffffff1681526020019081526020016000206000828254039250508190555060016000808673ffffffffffffffffffffffffffffffffffffffff1673ffffffffffffffffffffffffffffffffffffffff16815260200190815260200160002060008282540192505081905550836001600085815260200190815260200160002060006101000a81548173ffffffffffffffffffffffffffffffffffffffff021916908373ffffffffffffffffffffffffffffffffffffffff160217905550828473ffffffffffffffffffffffffffffffffffffffff168673ffffffffffffffffffffffffffffffffffffffff167fddf252ad1be2c89b69c2b068fc378daa952ba7f163c4a11628f55a4df523b3ef60405160405180910390a45050505050565b6113f78484846110f6565b6114168373ffffffffffffffffffffffffffffffffffffffff1661153f565b156115395760008373ffffffffffffffffffffffffffffffffffffffff1663150b7a02338786866040518563ffffffff1660e01b815260040161145c9493929190611d2b565b602060405180830381600087803b15801561147657600080fd5b505af115801561148a573d6000803e3d6000fd5b505050506040513d601f19601f820116820180604052506114ae91908101906117c0565b905063150b7a0260e01b7bffffffffffffffffffffffffffffffffffffffffffffffffffffffff1916817bffffffffffffffffffffffffffffffffffffffffffffffffffffffff191614611537576040517f08c379a000000000000000000000000000000000000000000000000000000000815260040161152e90611e38565b60405180910390fd5b505b50505050565b600080823b905060008111915050919050565b6040518060800160405280600081526020016000815260200160008152602001600081525090565b60006115868235612016565b905092915050565b600061159a8235612028565b905092915050565b60006115ae8251612034565b905092915050565b60008083601f8401126115c857600080fd5b8235905067ffffffffffffffff8111156115e157600080fd5b6020830191508360018202830111156115f957600080fd5b9250929050565b600061160c8235612080565b905092915050565b60006020828403121561162657600080fd5b60006116348482850161157a565b91505092915050565b6000806040838503121561165057600080fd5b600061165e8582860161157a565b925050602061166f8582860161157a565b9150509250929050565b60008060006060848603121561168e57600080fd5b600061169c8682870161157a565b93505060206116ad8682870161157a565b92505060406116be86828701611600565b9150509250925092565b6000806000806000608086880312156116e057600080fd5b60006116ee8882890161157a565b95505060206116ff8882890161157a565b945050604061171088828901611600565b935050606086013567ffffffffffffffff81111561172d57600080fd5b611739888289016115b6565b92509250509295509295909350565b6000806040838503121561175b57600080fd5b60006117698582860161157a565b925050602061177a8582860161158e565b9150509250929050565b6000806040838503121561179757600080fd5b60006117a58582860161157a565b92505060206117b685828601611600565b9150509250929050565b6000602082840312156117d257600080fd5b60006117e0848285016115a2565b91505092915050565b6000602082840312156117fb57600080fd5b600061180984828501611600565b91505092915050565b6000806040838503121561182557600080fd5b600061183385828601611600565b925050602061184485828601611600565b9150509250929050565b600061185a8383611c32565b60808301905092915050565b61186f8161208a565b82525050565b61187e81611fce565b82525050565b600061188f82611f57565b6118998185611f90565b93506118a483611f38565b60005b828110156118d2576118ba86835161184e565b95506118c582611f83565b91506001810190506118a7565b50849250505092915050565b6118e781611fe0565b82525050565b60006118f882611f62565b6119028185611fa1565b93506119128185602086016120c0565b61191b816120fd565b840191505092915050565b600061193182611f78565b61193b8185611fb2565b935061194b8185602086016120c0565b611954816120fd565b840191505092915050565b600061196a82611f6d565b6119748185611fb2565b93506119848185602086016120c0565b61198d816120fd565b840191505092915050565b6000815460018116600081146119b557600181146119da57611a1e565b607f60028304166119c68187611fc3565b955060ff1983168652808601935050611a1e565b600282046119e88187611fc3565b95506119f385611f45565b60005b82811015611a15578154818901526001820191506020810190506119f6565b82880195505050505b505092915050565b6000611a33601783611fb2565b91507f5472616e73666572206e6f7420617574686f72697a65640000000000000000006000830152602082019050919050565b6000611a73600a83611fb2565b91507f6f6e6c792061646d696e000000000000000000000000000000000000000000006000830152602082019050919050565b6000611ab3602883611fb2565b91507f726563697069656e742053432063616e6e6f742068616e646c6520455243373260008301527f3120746f6b656e730000000000000000000000000000000000000000000000006020830152604082019050919050565b6000611b19602183611fb2565b91507f6d73672e73656e646572206d757374206f776e207468652032206b697474696560008301527f73000000000000000000000000000000000000000000000000000000000000006020830152604082019050919050565b6000611b7f601883611fb2565b91507f5468652032206b697474696573206d75737420657869737400000000000000006000830152602082019050919050565b6000611bbf601a83611fb2565b91507f5468697320746f6b656e20616c72656164792065786973742e2e0000000000006000830152602082019050919050565b6000611bff600e83611fb2565b91507f4e6f7420617574686f72697a65640000000000000000000000000000000000006000830152602082019050919050565b608082016000820151611c486000850182611c87565b506020820151611c5b6020850182611c87565b506040820151611c6e6040850182611c87565b506060820151611c816060850182611c87565b50505050565b611c908161200c565b82525050565b611c9f8161200c565b82525050565b611cb6611cb18261200c565b6120f3565b82525050565b6000611cc88285611998565b9150611cd48284611ca5565b6020820191508190509392505050565b6000611cf08285611ca5565b602082019150611d008284611ca5565b6020820191508190509392505050565b6000602082019050611d256000830184611875565b92915050565b6000608082019050611d406000830187611866565b611d4d6020830186611875565b611d5a6040830185611c96565b8181036060830152611d6c81846118ed565b905095945050505050565b60006020820190508181036000830152611d918184611884565b905092915050565b6000602082019050611dae60008301846118de565b92915050565b60006020820190508181036000830152611dce818461195f565b905092915050565b60006020820190508181036000830152611df08184611926565b905092915050565b60006020820190508181036000830152611e1181611a26565b9050919050565b60006020820190508181036000830152611e3181611a66565b9050919050565b60006020820190508181036000830152611e5181611aa6565b9050919050565b60006020820190508181036000830152611e7181611b0c565b9050919050565b60006020820190508181036000830152611e9181611b72565b9050919050565b60006020820190508181036000830152611eb181611bb2565b9050919050565b60006020820190508181036000830152611ed181611bf2565b9050919050565b6000602082019050611eed6000830184611c96565b92915050565b6000608082019050611f086000830187611c96565b611f156020830186611c96565b611f226040830185611c96565b611f2f6060830184611c96565b95945050505050565b6000602082019050919050565b60008160005260206000209050919050565b600081519050919050565b600081519050919050565b600081519050919050565b600081519050919050565b6000602082019050919050565b600082825260208201905092915050565b600082825260208201905092915050565b600082825260208201905092915050565b600081905092915050565b6000611fd982611fec565b9050919050565b60008115159050919050565b600073ffffffffffffffffffffffffffffffffffffffff82169050919050565b6000819050919050565b600061202182612060565b9050919050565b60008115159050919050565b60007fffffffff0000000000000000000000000000000000000000000000000000000082169050919050565b600073ffffffffffffffffffffffffffffffffffffffff82169050919050565b6000819050919050565b60006120958261209c565b9050919050565b60006120a7826120ae565b9050919050565b60006120b982611fec565b9050919050565b60005b838110156120de5780820151818401526020810190506120c3565b838111156120ed576000848401525b50505050565b6000819050919050565b6000601f19601f830116905091905056fea265627a7a72305820080c58cb7dd1a8a3e0ac954676ce7a70adb69f33880fdfb27955b47ca7652cce6c6578706572696d656e74616cf50037",
  "source": "pragma solidity ^0.5.7;\npragma experimental ABIEncoderV2;\n\nimport './ERC721Token.sol';\n\ncontract Cryptokitty is ERC721Token {\n    struct Kitty {\n        uint id;\n        uint generation;\n        uint geneA;\n        uint geneB;\n    }\n    mapping(uint => Kitty) public kitties;\n    uint public nextId;\n    address public admin;\n    \n    constructor(\n        string memory _tokenURIBase\n    ) ERC721Token( _tokenURIBase) public {\n        admin = msg.sender;\n    }\n\n    function getAllKitties() external view returns(Kitty[] memory) {\n      Kitty[] memory _kitties = new Kitty[](nextId);\n      for(uint i = 0; i < _kitties.length; i++) {\n        _kitties[i] = kitties[i];\n      }\n      return _kitties;\n    }\n\n    function getAllKittiesOf(address owner) external view returns(Kitty[] memory) {\n      uint length;\n      for(uint i = 0; i < nextId; i++) {\n        if(ownerOf(i) == owner) {\n          length++;\n        }\n      }\n      Kitty[] memory _kitties = new Kitty[](length);\n      for(uint i = 0; i < _kitties.length; i++) {\n        if(ownerOf(i) == owner) {\n          _kitties[i] = kitties[i];\n        }\n      }\n      return _kitties;\n    }\n    \n    function breed(uint kitty1Id, uint kitty2Id) external {\n        require(kitty1Id < nextId && kitty2Id < nextId, 'The 2 kitties must exist');\n        Kitty storage kitty1 = kitties[kitty1Id];\n        Kitty storage kitty2 = kitties[kitty2Id];\n        require(ownerOf(kitty1Id) == msg.sender && ownerOf(kitty2Id) == msg.sender, 'msg.sender must own the 2 kitties');\n        uint baseGen = kitty1.generation > kitty2.generation ? kitty1.generation : kitty2.generation;\n        uint geneA = _random(4) > 1 ? kitty1.geneA : kitty2.geneA;\n        uint geneB = _random(4) > 1 ? kitty1.geneB : kitty2.geneB;\n        kitties[nextId] = Kitty(nextId, baseGen + 1, geneA ,geneB) ;\n        _mint(msg.sender, nextId);\n        nextId++;\n    }\n   \n    function mint() external {\n        require(msg.sender == admin, 'only admin');\n        kitties[nextId] = Kitty(nextId, 1, _random(10), _random(10));\n        _mint(msg.sender, nextId);\n        nextId++;\n    } \n    \n    function _random(uint max) internal view returns(uint) {\n        return uint(keccak256(abi.encodePacked(block.timestamp, block.difficulty))) % max;\n    }\n}\n",
  "sourcePath": "/Users/jklepatch/ETB/code/dapp-30/day24-cryptokitty-collectible-game/frontend/end/contracts/Cryptokitty.sol",
  "compiler": {
    "name": "solc",
    "version": "0.5.7+commit.6da8b019.Emscripten.clang"
  },
  "schemaVersion": "3.0.20",
  "updatedAt": "2020-01-20T16:47:39.638Z",
  "networkType": "ethereum",
  "devdoc": {
    "methods": {}
  },
  "userdoc": {
    "methods": {}
  }
}