{
  "contractName": "Kid2",
  "abi": [
    {
      "constant": false,
      "inputs": [],
      "name": "baz",
      "outputs": [
        {
          "name": "",
          "type": "uint256"
        }
      ],
      "payable": false,
      "stateMutability": "nonpayable",
      "type": "function"
    },
    {
      "constant": false,
      "inputs": [],
      "name": "foo",
      "outputs": [
        {
          "name": "",
          "type": "uint256"
        }
      ],
      "payable": false,
      "stateMutability": "nonpayable",
      "type": "function"
    },
    {
      "constant": false,
      "inputs": [],
      "name": "bar",
      "outputs": [
        {
          "name": "",
          "type": "uint256"
        }
      ],
      "payable": false,
      "stateMutability": "nonpayable",
      "type": "function"
    }
  ],
  "bytecode": "0x6060604052600080556002600155341561001857600080fd5b61011f806100276000396000f3006060604052600436106053576000357c0100000000000000000000000000000000000000000000000000000000900463ffffffff168063a7916fac146058578063c298557814607e578063febb0f7e1460a4575b600080fd5b3415606257600080fd5b606860ca565b6040518082815260200191505060405180910390f35b3415608857600080fd5b608e60d4565b6040518082815260200191505060405180910390f35b341560ae57600080fd5b60b460dd565b6040518082815260200191505060405180910390f35b6000600154905090565b60008054905090565b600060e560ea565b905090565b600080549050905600a165627a7a72305820779092d10f835fee0e458539275cb61e1bfda197eae3209fdf686bc92715c4120029",
  "source": "pragma solidity ^0.4.4;\n\ncontract Parent {\n  uint contractType = 0;\n\n  function foo() returns(uint) {\n    return contractType;\n  }\n\n  function bar() returns(uint) {\n    return contractType;\n  }\n\n  function baz() returns(uint) {\n    return contractType;\n  }\n}\n\ncontract Kid1 is Parent {\n  uint contractType = 1;\n\n  function bar() returns(uint) {\n    return contractType;\n  }\n\n  function baz() returns(uint) {\n    return contractType;\n  }\n}\n\ncontract Kid2 is Parent {\n  uint contractType = 2;\n  function bar() returns(uint) {\n    return super.bar();\n  }\n  function baz() returns(uint) {\n    return contractType;\n  }\n}\n\ncontract MyContract is Kid1, Kid2 {\n  function callFoo() constant returns(uint) {\n    return foo();\n  }\n\n  function callBar() constant returns(uint) {\n    return bar();\n  }\n\n  function callBaz() constant returns(uint) {\n    return baz();\n  }\n}\n",
  "sourcePath": "D:\\ETB\\code\\episode8\\contracts\\MyContract.sol",
  "compiler": {
    "name": "solc",
    "version": "0.4.18+commit.9cf6e910.Emscripten.clang"
  },
  "schemaVersion": "1.0.1",
  "updatedAt": "2017-12-22T07:55:53.170Z"
}