{
  "_format": "hh-sol-artifact-1",
  "contractName": "NFT",
  "sourceName": "contracts/NFT.sol",
  "abi": [
    {
      "inputs": [
        {
          "internalType": "address",
          "name": "_artist",
          "type": "address"
        },
        {
          "internalType": "address",
          "name": "_txFeeToken",
          "type": "address"
        },
        {
          "internalType": "uint256",
          "name": "_txFeeAmount",
          "type": "uint256"
        }
      ],
      "stateMutability": "nonpayable",
      "type": "constructor"
    },
    {
      "anonymous": false,
      "inputs": [
        {
          "indexed": true,
          "internalType": "address",
          "name": "owner",
          "type": "address"
        },
        {
          "indexed": true,
          "internalType": "address",
          "name": "approved",
          "type": "address"
        },
        {
          "indexed": true,
          "internalType": "uint256",
          "name": "tokenId",
          "type": "uint256"
        }
      ],
      "name": "Approval",
      "type": "event"
    },
    {
      "anonymous": false,
      "inputs": [
        {
          "indexed": true,
          "internalType": "address",
          "name": "owner",
          "type": "address"
        },
        {
          "indexed": true,
          "internalType": "address",
          "name": "operator",
          "type": "address"
        },
        {
          "indexed": false,
          "internalType": "bool",
          "name": "approved",
          "type": "bool"
        }
      ],
      "name": "ApprovalForAll",
      "type": "event"
    },
    {
      "anonymous": false,
      "inputs": [
        {
          "indexed": true,
          "internalType": "address",
          "name": "from",
          "type": "address"
        },
        {
          "indexed": true,
          "internalType": "address",
          "name": "to",
          "type": "address"
        },
        {
          "indexed": true,
          "internalType": "uint256",
          "name": "tokenId",
          "type": "uint256"
        }
      ],
      "name": "Transfer",
      "type": "event"
    },
    {
      "inputs": [
        {
          "internalType": "address",
          "name": "to",
          "type": "address"
        },
        {
          "internalType": "uint256",
          "name": "tokenId",
          "type": "uint256"
        }
      ],
      "name": "approve",
      "outputs": [],
      "stateMutability": "nonpayable",
      "type": "function"
    },
    {
      "inputs": [],
      "name": "artist",
      "outputs": [
        {
          "internalType": "address",
          "name": "",
          "type": "address"
        }
      ],
      "stateMutability": "view",
      "type": "function"
    },
    {
      "inputs": [
        {
          "internalType": "address",
          "name": "owner",
          "type": "address"
        }
      ],
      "name": "balanceOf",
      "outputs": [
        {
          "internalType": "uint256",
          "name": "",
          "type": "uint256"
        }
      ],
      "stateMutability": "view",
      "type": "function"
    },
    {
      "inputs": [
        {
          "internalType": "address",
          "name": "",
          "type": "address"
        }
      ],
      "name": "excludedList",
      "outputs": [
        {
          "internalType": "bool",
          "name": "",
          "type": "bool"
        }
      ],
      "stateMutability": "view",
      "type": "function"
    },
    {
      "inputs": [
        {
          "internalType": "uint256",
          "name": "tokenId",
          "type": "uint256"
        }
      ],
      "name": "getApproved",
      "outputs": [
        {
          "internalType": "address",
          "name": "",
          "type": "address"
        }
      ],
      "stateMutability": "view",
      "type": "function"
    },
    {
      "inputs": [
        {
          "internalType": "address",
          "name": "owner",
          "type": "address"
        },
        {
          "internalType": "address",
          "name": "operator",
          "type": "address"
        }
      ],
      "name": "isApprovedForAll",
      "outputs": [
        {
          "internalType": "bool",
          "name": "",
          "type": "bool"
        }
      ],
      "stateMutability": "view",
      "type": "function"
    },
    {
      "inputs": [],
      "name": "name",
      "outputs": [
        {
          "internalType": "string",
          "name": "",
          "type": "string"
        }
      ],
      "stateMutability": "view",
      "type": "function"
    },
    {
      "inputs": [
        {
          "internalType": "uint256",
          "name": "tokenId",
          "type": "uint256"
        }
      ],
      "name": "ownerOf",
      "outputs": [
        {
          "internalType": "address",
          "name": "",
          "type": "address"
        }
      ],
      "stateMutability": "view",
      "type": "function"
    },
    {
      "inputs": [
        {
          "internalType": "address",
          "name": "from",
          "type": "address"
        },
        {
          "internalType": "address",
          "name": "to",
          "type": "address"
        },
        {
          "internalType": "uint256",
          "name": "tokenId",
          "type": "uint256"
        }
      ],
      "name": "safeTransferFrom",
      "outputs": [],
      "stateMutability": "nonpayable",
      "type": "function"
    },
    {
      "inputs": [
        {
          "internalType": "address",
          "name": "from",
          "type": "address"
        },
        {
          "internalType": "address",
          "name": "to",
          "type": "address"
        },
        {
          "internalType": "uint256",
          "name": "tokenId",
          "type": "uint256"
        },
        {
          "internalType": "bytes",
          "name": "_data",
          "type": "bytes"
        }
      ],
      "name": "safeTransferFrom",
      "outputs": [],
      "stateMutability": "nonpayable",
      "type": "function"
    },
    {
      "inputs": [
        {
          "internalType": "address",
          "name": "operator",
          "type": "address"
        },
        {
          "internalType": "bool",
          "name": "approved",
          "type": "bool"
        }
      ],
      "name": "setApprovalForAll",
      "outputs": [],
      "stateMutability": "nonpayable",
      "type": "function"
    },
    {
      "inputs": [
        {
          "internalType": "address",
          "name": "excluded",
          "type": "address"
        },
        {
          "internalType": "bool",
          "name": "status",
          "type": "bool"
        }
      ],
      "name": "setExcluded",
      "outputs": [],
      "stateMutability": "nonpayable",
      "type": "function"
    },
    {
      "inputs": [
        {
          "internalType": "bytes4",
          "name": "interfaceId",
          "type": "bytes4"
        }
      ],
      "name": "supportsInterface",
      "outputs": [
        {
          "internalType": "bool",
          "name": "",
          "type": "bool"
        }
      ],
      "stateMutability": "view",
      "type": "function"
    },
    {
      "inputs": [],
      "name": "symbol",
      "outputs": [
        {
          "internalType": "string",
          "name": "",
          "type": "string"
        }
      ],
      "stateMutability": "view",
      "type": "function"
    },
    {
      "inputs": [
        {
          "internalType": "uint256",
          "name": "tokenId",
          "type": "uint256"
        }
      ],
      "name": "tokenURI",
      "outputs": [
        {
          "internalType": "string",
          "name": "",
          "type": "string"
        }
      ],
      "stateMutability": "view",
      "type": "function"
    },
    {
      "inputs": [
        {
          "internalType": "address",
          "name": "from",
          "type": "address"
        },
        {
          "internalType": "address",
          "name": "to",
          "type": "address"
        },
        {
          "internalType": "uint256",
          "name": "tokenId",
          "type": "uint256"
        }
      ],
      "name": "transferFrom",
      "outputs": [],
      "stateMutability": "nonpayable",
      "type": "function"
    },
    {
      "inputs": [],
      "name": "txFeeAmount",
      "outputs": [
        {
          "internalType": "uint256",
          "name": "",
          "type": "uint256"
        }
      ],
      "stateMutability": "view",
      "type": "function"
    },
    {
      "inputs": [],
      "name": "txFeeToken",
      "outputs": [
        {
          "internalType": "address",
          "name": "",
          "type": "address"
        }
      ],
      "stateMutability": "view",
      "type": "function"
    }
  ],
  "bytecode": "0x60806040523480156200001157600080fd5b50604051620030f7380380620030f783398181016040528101906200003791906200052b565b6040518060400160405280600681526020017f4d79204e465400000000000000000000000000000000000000000000000000008152506040518060400160405280600381526020017f41424300000000000000000000000000000000000000000000000000000000008152508160009080519060200190620000bb9291906200044d565b508060019080519060200190620000d49291906200044d565b50505082600660006101000a81548173ffffffffffffffffffffffffffffffffffffffff021916908373ffffffffffffffffffffffffffffffffffffffff16021790555081600760006101000a81548173ffffffffffffffffffffffffffffffffffffffff021916908373ffffffffffffffffffffffffffffffffffffffff160217905550806008819055506001600960008573ffffffffffffffffffffffffffffffffffffffff1673ffffffffffffffffffffffffffffffffffffffff16815260200190815260200160002060006101000a81548160ff021916908315150217905550620001ed600660009054906101000a900473ffffffffffffffffffffffffffffffffffffffff166000620001f660201b60201c565b505050620007e4565b600073ffffffffffffffffffffffffffffffffffffffff168273ffffffffffffffffffffffffffffffffffffffff16141562000269576040517f08c379a00000000000000000000000000000000000000000000000000000000081526004016200026090620005f7565b60405180910390fd5b6200027a81620003dc60201b60201c565b15620002bd576040517f08c379a0000000000000000000000000000000000000000000000000000000008152600401620002b490620005d5565b60405180910390fd5b620002d1600083836200044860201b60201c565b6001600360008473ffffffffffffffffffffffffffffffffffffffff1673ffffffffffffffffffffffffffffffffffffffff16815260200190815260200160002060008282546200032391906200062a565b92505081905550816002600083815260200190815260200160002060006101000a81548173ffffffffffffffffffffffffffffffffffffffff021916908373ffffffffffffffffffffffffffffffffffffffff160217905550808273ffffffffffffffffffffffffffffffffffffffff16600073ffffffffffffffffffffffffffffffffffffffff167fddf252ad1be2c89b69c2b068fc378daa952ba7f163c4a11628f55a4df523b3ef60405160405180910390a45050565b60008073ffffffffffffffffffffffffffffffffffffffff166002600084815260200190815260200160002060009054906101000a900473ffffffffffffffffffffffffffffffffffffffff1673ffffffffffffffffffffffffffffffffffffffff1614159050919050565b505050565b8280546200045b90620006c5565b90600052602060002090601f0160209004810192826200047f5760008555620004cb565b82601f106200049a57805160ff1916838001178555620004cb565b82800160010185558215620004cb579182015b82811115620004ca578251825591602001919060010190620004ad565b5b509050620004da9190620004de565b5090565b5b80821115620004f9576000816000905550600101620004df565b5090565b6000815190506200050e81620007b0565b92915050565b6000815190506200052581620007ca565b92915050565b60008060006060848603121562000547576200054662000759565b5b60006200055786828701620004fd565b93505060206200056a86828701620004fd565b92505060406200057d8682870162000514565b9150509250925092565b600062000596601c8362000619565b9150620005a3826200075e565b602082019050919050565b6000620005bd60208362000619565b9150620005ca8262000787565b602082019050919050565b60006020820190508181036000830152620005f08162000587565b9050919050565b600060208201905081810360008301526200061281620005ae565b9050919050565b600082825260208201905092915050565b60006200063782620006bb565b91506200064483620006bb565b9250827fffffffffffffffffffffffffffffffffffffffffffffffffffffffffffffffff038211156200067c576200067b620006fb565b5b828201905092915050565b600062000694826200069b565b9050919050565b600073ffffffffffffffffffffffffffffffffffffffff82169050919050565b6000819050919050565b60006002820490506001821680620006de57607f821691505b60208210811415620006f557620006f46200072a565b5b50919050565b7f4e487b7100000000000000000000000000000000000000000000000000000000600052601160045260246000fd5b7f4e487b7100000000000000000000000000000000000000000000000000000000600052602260045260246000fd5b600080fd5b7f4552433732313a20746f6b656e20616c7265616479206d696e74656400000000600082015250565b7f4552433732313a206d696e7420746f20746865207a65726f2061646472657373600082015250565b620007bb8162000687565b8114620007c757600080fd5b50565b620007d581620006bb565b8114620007e157600080fd5b50565b61290380620007f46000396000f3fe608060405234801561001057600080fd5b50600436106101165760003560e01c80636352211e116100a257806395d89b411161007157806395d89b41146102f3578063a22cb46514610311578063b88d4fde1461032d578063c87b56dd14610349578063e985e9c51461037957610116565b80636352211e1461025757806370a082311461028757806377c567a7146102b75780638fbceaad146102d557610116565b806323b872dd116100e957806323b872dd146101b55780632836be24146101d157806342842e0e146101ed57806343bc1612146102095780635600d2fa1461022757610116565b806301ffc9a71461011b57806306fdde031461014b578063081812fc14610169578063095ea7b314610199575b600080fd5b61013560048036038101906101309190611aeb565b6103a9565b6040516101429190611ecb565b60405180910390f35b61015361048b565b6040516101609190611ee6565b60405180910390f35b610183600480360381019061017e9190611b45565b61051d565b6040516101909190611e2d565b60405180910390f35b6101b360048036038101906101ae9190611a7e565b6105a2565b005b6101cf60048036038101906101ca9190611968565b6106ba565b005b6101eb60048036038101906101e69190611a3e565b61077d565b005b61020760048036038101906102029190611968565b610868565b005b6102116108eb565b60405161021e9190611e2d565b60405180910390f35b610241600480360381019061023c91906118fb565b610911565b60405161024e9190611ecb565b60405180910390f35b610271600480360381019061026c9190611b45565b610931565b60405161027e9190611e2d565b60405180910390f35b6102a1600480360381019061029c91906118fb565b6109e3565b6040516102ae91906120a8565b60405180910390f35b6102bf610a9b565b6040516102cc9190611e2d565b60405180910390f35b6102dd610ac1565b6040516102ea91906120a8565b60405180910390f35b6102fb610ac7565b6040516103089190611ee6565b60405180910390f35b61032b60048036038101906103269190611a3e565b610b59565b005b610347600480360381019061034291906119bb565b610cda565b005b610363600480360381019061035e9190611b45565b610d9f565b6040516103709190611ee6565b60405180910390f35b610393600480360381019061038e9190611928565b610e46565b6040516103a09190611ecb565b60405180910390f35b60007f80ac58cd000000000000000000000000000000000000000000000000000000007bffffffffffffffffffffffffffffffffffffffffffffffffffffffff1916827bffffffffffffffffffffffffffffffffffffffffffffffffffffffff1916148061047457507f5b5e139f000000000000000000000000000000000000000000000000000000007bffffffffffffffffffffffffffffffffffffffffffffffffffffffff1916827bffffffffffffffffffffffffffffffffffffffffffffffffffffffff1916145b80610484575061048382610eda565b5b9050919050565b60606000805461049a906122cd565b80601f01602080910402602001604051908101604052809291908181526020018280546104c6906122cd565b80156105135780601f106104e857610100808354040283529160200191610513565b820191906000526020600020905b8154815290600101906020018083116104f657829003601f168201915b5050505050905090565b600061052882610f44565b610567576040517f08c379a000000000000000000000000000000000000000000000000000000000815260040161055e90612008565b60405180910390fd5b6004600083815260200190815260200160002060009054906101000a900473ffffffffffffffffffffffffffffffffffffffff169050919050565b60006105ad82610931565b90508073ffffffffffffffffffffffffffffffffffffffff168373ffffffffffffffffffffffffffffffffffffffff16141561061e576040517f08c379a000000000000000000000000000000000000000000000000000000000815260040161061590612068565b60405180910390fd5b8073ffffffffffffffffffffffffffffffffffffffff1661063d610fb0565b73ffffffffffffffffffffffffffffffffffffffff16148061066c575061066b81610666610fb0565b610e46565b5b6106ab576040517f08c379a00000000000000000000000000000000000000000000000000000000081526004016106a290611fa8565b60405180910390fd5b6106b58383610fb8565b505050565b6106cb6106c5610fb0565b82611071565b61070a576040517f08c379a000000000000000000000000000000000000000000000000000000000815260040161070190612088565b60405180910390fd5b60001515600960008573ffffffffffffffffffffffffffffffffffffffff1673ffffffffffffffffffffffffffffffffffffffff16815260200190815260200160002060009054906101000a900460ff161515141561076d5761076c8361114f565b5b61077883838361122e565b505050565b600660009054906101000a900473ffffffffffffffffffffffffffffffffffffffff1673ffffffffffffffffffffffffffffffffffffffff163373ffffffffffffffffffffffffffffffffffffffff161461080d576040517f08c379a000000000000000000000000000000000000000000000000000000000815260040161080490611f28565b60405180910390fd5b80600960008473ffffffffffffffffffffffffffffffffffffffff1673ffffffffffffffffffffffffffffffffffffffff16815260200190815260200160002060006101000a81548160ff0219169083151502179055505050565b60001515600960008573ffffffffffffffffffffffffffffffffffffffff1673ffffffffffffffffffffffffffffffffffffffff16815260200190815260200160002060009054906101000a900460ff16151514156108cb576108ca8361114f565b5b6108e683838360405180602001604052806000815250610cda565b505050565b600660009054906101000a900473ffffffffffffffffffffffffffffffffffffffff1681565b60096020528060005260406000206000915054906101000a900460ff1681565b6000806002600084815260200190815260200160002060009054906101000a900473ffffffffffffffffffffffffffffffffffffffff169050600073ffffffffffffffffffffffffffffffffffffffff168173ffffffffffffffffffffffffffffffffffffffff1614156109da576040517f08c379a00000000000000000000000000000000000000000000000000000000081526004016109d190611fe8565b60405180910390fd5b80915050919050565b60008073ffffffffffffffffffffffffffffffffffffffff168273ffffffffffffffffffffffffffffffffffffffff161415610a54576040517f08c379a0000000000000000000000000000000000000000000000000000000008152600401610a4b90611fc8565b60405180910390fd5b600360008373ffffffffffffffffffffffffffffffffffffffff1673ffffffffffffffffffffffffffffffffffffffff168152602001908152602001600020549050919050565b600760009054906101000a900473ffffffffffffffffffffffffffffffffffffffff1681565b60085481565b606060018054610ad6906122cd565b80601f0160208091040260200160405190810160405280929190818152602001828054610b02906122cd565b8015610b4f5780601f10610b2457610100808354040283529160200191610b4f565b820191906000526020600020905b815481529060010190602001808311610b3257829003601f168201915b5050505050905090565b610b61610fb0565b73ffffffffffffffffffffffffffffffffffffffff168273ffffffffffffffffffffffffffffffffffffffff161415610bcf576040517f08c379a0000000000000000000000000000000000000000000000000000000008152600401610bc690611f68565b60405180910390fd5b8060056000610bdc610fb0565b73ffffffffffffffffffffffffffffffffffffffff1673ffffffffffffffffffffffffffffffffffffffff16815260200190815260200160002060008473ffffffffffffffffffffffffffffffffffffffff1673ffffffffffffffffffffffffffffffffffffffff16815260200190815260200160002060006101000a81548160ff0219169083151502179055508173ffffffffffffffffffffffffffffffffffffffff16610c89610fb0565b73ffffffffffffffffffffffffffffffffffffffff167f17307eab39ab6107e8899845ad3d59bd9653f200f220920489ca2b5937696c3183604051610cce9190611ecb565b60405180910390a35050565b610ceb610ce5610fb0565b83611071565b610d2a576040517f08c379a0000000000000000000000000000000000000000000000000000000008152600401610d2190612088565b60405180910390fd5b60001515600960008673ffffffffffffffffffffffffffffffffffffffff1673ffffffffffffffffffffffffffffffffffffffff16815260200190815260200160002060009054906101000a900460ff1615151415610d8d57610d8c8461114f565b5b610d998484848461148a565b50505050565b6060610daa82610f44565b610de9576040517f08c379a0000000000000000000000000000000000000000000000000000000008152600401610de090612048565b60405180910390fd5b6000610df36114e6565b90506000815111610e135760405180602001604052806000815250610e3e565b80610e1d846114fd565b604051602001610e2e929190611e09565b6040516020818303038152906040525b915050919050565b6000600560008473ffffffffffffffffffffffffffffffffffffffff1673ffffffffffffffffffffffffffffffffffffffff16815260200190815260200160002060008373ffffffffffffffffffffffffffffffffffffffff1673ffffffffffffffffffffffffffffffffffffffff16815260200190815260200160002060009054906101000a900460ff16905092915050565b60007f01ffc9a7000000000000000000000000000000000000000000000000000000007bffffffffffffffffffffffffffffffffffffffffffffffffffffffff1916827bffffffffffffffffffffffffffffffffffffffffffffffffffffffff1916149050919050565b60008073ffffffffffffffffffffffffffffffffffffffff166002600084815260200190815260200160002060009054906101000a900473ffffffffffffffffffffffffffffffffffffffff1673ffffffffffffffffffffffffffffffffffffffff1614159050919050565b600033905090565b816004600083815260200190815260200160002060006101000a81548173ffffffffffffffffffffffffffffffffffffffff021916908373ffffffffffffffffffffffffffffffffffffffff160217905550808273ffffffffffffffffffffffffffffffffffffffff1661102b83610931565b73ffffffffffffffffffffffffffffffffffffffff167f8c5be1e5ebec7d5bd14f71427d1e84f3dd0314c0f7b2291e5b200ac8c7c3b92560405160405180910390a45050565b600061107c82610f44565b6110bb576040517f08c379a00000000000000000000000000000000000000000000000000000000081526004016110b290611f88565b60405180910390fd5b60006110c683610931565b90508073ffffffffffffffffffffffffffffffffffffffff168473ffffffffffffffffffffffffffffffffffffffff16148061113557508373ffffffffffffffffffffffffffffffffffffffff1661111d8461051d565b73ffffffffffffffffffffffffffffffffffffffff16145b8061114657506111458185610e46565b5b91505092915050565b6000600760009054906101000a900473ffffffffffffffffffffffffffffffffffffffff1690508073ffffffffffffffffffffffffffffffffffffffff166323b872dd83600660009054906101000a900473ffffffffffffffffffffffffffffffffffffffff166008546040518463ffffffff1660e01b81526004016111d793929190611e48565b602060405180830381600087803b1580156111f157600080fd5b505af1158015611205573d6000803e3d6000fd5b505050506040513d601f19601f820116820180604052508101906112299190611abe565b505050565b8273ffffffffffffffffffffffffffffffffffffffff1661124e82610931565b73ffffffffffffffffffffffffffffffffffffffff16146112a4576040517f08c379a000000000000000000000000000000000000000000000000000000000815260040161129b90612028565b60405180910390fd5b600073ffffffffffffffffffffffffffffffffffffffff168273ffffffffffffffffffffffffffffffffffffffff161415611314576040517f08c379a000000000000000000000000000000000000000000000000000000000815260040161130b90611f48565b60405180910390fd5b61131f83838361165e565b61132a600082610fb8565b6001600360008573ffffffffffffffffffffffffffffffffffffffff1673ffffffffffffffffffffffffffffffffffffffff168152602001908152602001600020600082825461137a91906121e3565b925050819055506001600360008473ffffffffffffffffffffffffffffffffffffffff1673ffffffffffffffffffffffffffffffffffffffff16815260200190815260200160002060008282546113d1919061215c565b92505081905550816002600083815260200190815260200160002060006101000a81548173ffffffffffffffffffffffffffffffffffffffff021916908373ffffffffffffffffffffffffffffffffffffffff160217905550808273ffffffffffffffffffffffffffffffffffffffff168473ffffffffffffffffffffffffffffffffffffffff167fddf252ad1be2c89b69c2b068fc378daa952ba7f163c4a11628f55a4df523b3ef60405160405180910390a4505050565b61149584848461122e565b6114a184848484611663565b6114e0576040517f08c379a00000000000000000000000000000000000000000000000000000000081526004016114d790611f08565b60405180910390fd5b50505050565b606060405180602001604052806000815250905090565b60606000821415611545576040518060400160405280600181526020017f30000000000000000000000000000000000000000000000000000000000000008152509050611659565b600082905060005b6000821461157757808061156090612330565b915050600a8261157091906121b2565b915061154d565b60008167ffffffffffffffff81111561159357611592612466565b5b6040519080825280601f01601f1916602001820160405280156115c55781602001600182028036833780820191505090505b5090505b60008514611652576001826115de91906121e3565b9150600a856115ed9190612379565b60306115f9919061215c565b60f81b81838151811061160f5761160e612437565b5b60200101907effffffffffffffffffffffffffffffffffffffffffffffffffffffffffffff1916908160001a905350600a8561164b91906121b2565b94506115c9565b8093505050505b919050565b505050565b60006116848473ffffffffffffffffffffffffffffffffffffffff166117fa565b156117ed578373ffffffffffffffffffffffffffffffffffffffff1663150b7a026116ad610fb0565b8786866040518563ffffffff1660e01b81526004016116cf9493929190611e7f565b602060405180830381600087803b1580156116e957600080fd5b505af192505050801561171a57506040513d601f19601f820116820180604052508101906117179190611b18565b60015b61179d573d806000811461174a576040519150601f19603f3d011682016040523d82523d6000602084013e61174f565b606091505b50600081511415611795576040517f08c379a000000000000000000000000000000000000000000000000000000000815260040161178c90611f08565b60405180910390fd5b805181602001fd5b63150b7a0260e01b7bffffffffffffffffffffffffffffffffffffffffffffffffffffffff1916817bffffffffffffffffffffffffffffffffffffffffffffffffffffffff1916149150506117f2565b600190505b949350505050565b600080823b905060008111915050919050565b600061182061181b846120e8565b6120c3565b90508281526020810184848401111561183c5761183b61249a565b5b61184784828561228b565b509392505050565b60008135905061185e81612871565b92915050565b60008135905061187381612888565b92915050565b60008151905061188881612888565b92915050565b60008135905061189d8161289f565b92915050565b6000815190506118b28161289f565b92915050565b600082601f8301126118cd576118cc612495565b5b81356118dd84826020860161180d565b91505092915050565b6000813590506118f5816128b6565b92915050565b600060208284031215611911576119106124a4565b5b600061191f8482850161184f565b91505092915050565b6000806040838503121561193f5761193e6124a4565b5b600061194d8582860161184f565b925050602061195e8582860161184f565b9150509250929050565b600080600060608486031215611981576119806124a4565b5b600061198f8682870161184f565b93505060206119a08682870161184f565b92505060406119b1868287016118e6565b9150509250925092565b600080600080608085870312156119d5576119d46124a4565b5b60006119e38782880161184f565b94505060206119f48782880161184f565b9350506040611a05878288016118e6565b925050606085013567ffffffffffffffff811115611a2657611a2561249f565b5b611a32878288016118b8565b91505092959194509250565b60008060408385031215611a5557611a546124a4565b5b6000611a638582860161184f565b9250506020611a7485828601611864565b9150509250929050565b60008060408385031215611a9557611a946124a4565b5b6000611aa38582860161184f565b9250506020611ab4858286016118e6565b9150509250929050565b600060208284031215611ad457611ad36124a4565b5b6000611ae284828501611879565b91505092915050565b600060208284031215611b0157611b006124a4565b5b6000611b0f8482850161188e565b91505092915050565b600060208284031215611b2e57611b2d6124a4565b5b6000611b3c848285016118a3565b91505092915050565b600060208284031215611b5b57611b5a6124a4565b5b6000611b69848285016118e6565b91505092915050565b611b7b81612217565b82525050565b611b8a81612229565b82525050565b6000611b9b82612119565b611ba5818561212f565b9350611bb581856020860161229a565b611bbe816124a9565b840191505092915050565b6000611bd482612124565b611bde8185612140565b9350611bee81856020860161229a565b611bf7816124a9565b840191505092915050565b6000611c0d82612124565b611c178185612151565b9350611c2781856020860161229a565b80840191505092915050565b6000611c40603283612140565b9150611c4b826124ba565b604082019050919050565b6000611c63600b83612140565b9150611c6e82612509565b602082019050919050565b6000611c86602483612140565b9150611c9182612532565b604082019050919050565b6000611ca9601983612140565b9150611cb482612581565b602082019050919050565b6000611ccc602c83612140565b9150611cd7826125aa565b604082019050919050565b6000611cef603883612140565b9150611cfa826125f9565b604082019050919050565b6000611d12602a83612140565b9150611d1d82612648565b604082019050919050565b6000611d35602983612140565b9150611d4082612697565b604082019050919050565b6000611d58602c83612140565b9150611d63826126e6565b604082019050919050565b6000611d7b602983612140565b9150611d8682612735565b604082019050919050565b6000611d9e602f83612140565b9150611da982612784565b604082019050919050565b6000611dc1602183612140565b9150611dcc826127d3565b604082019050919050565b6000611de4603183612140565b9150611def82612822565b604082019050919050565b611e0381612281565b82525050565b6000611e158285611c02565b9150611e218284611c02565b91508190509392505050565b6000602082019050611e426000830184611b72565b92915050565b6000606082019050611e5d6000830186611b72565b611e6a6020830185611b72565b611e776040830184611dfa565b949350505050565b6000608082019050611e946000830187611b72565b611ea16020830186611b72565b611eae6040830185611dfa565b8181036060830152611ec08184611b90565b905095945050505050565b6000602082019050611ee06000830184611b81565b92915050565b60006020820190508181036000830152611f008184611bc9565b905092915050565b60006020820190508181036000830152611f2181611c33565b9050919050565b60006020820190508181036000830152611f4181611c56565b9050919050565b60006020820190508181036000830152611f6181611c79565b9050919050565b60006020820190508181036000830152611f8181611c9c565b9050919050565b60006020820190508181036000830152611fa181611cbf565b9050919050565b60006020820190508181036000830152611fc181611ce2565b9050919050565b60006020820190508181036000830152611fe181611d05565b9050919050565b6000602082019050818103600083015261200181611d28565b9050919050565b6000602082019050818103600083015261202181611d4b565b9050919050565b6000602082019050818103600083015261204181611d6e565b9050919050565b6000602082019050818103600083015261206181611d91565b9050919050565b6000602082019050818103600083015261208181611db4565b9050919050565b600060208201905081810360008301526120a181611dd7565b9050919050565b60006020820190506120bd6000830184611dfa565b92915050565b60006120cd6120de565b90506120d982826122ff565b919050565b6000604051905090565b600067ffffffffffffffff82111561210357612102612466565b5b61210c826124a9565b9050602081019050919050565b600081519050919050565b600081519050919050565b600082825260208201905092915050565b600082825260208201905092915050565b600081905092915050565b600061216782612281565b915061217283612281565b9250827fffffffffffffffffffffffffffffffffffffffffffffffffffffffffffffffff038211156121a7576121a66123aa565b5b828201905092915050565b60006121bd82612281565b91506121c883612281565b9250826121d8576121d76123d9565b5b828204905092915050565b60006121ee82612281565b91506121f983612281565b92508282101561220c5761220b6123aa565b5b828203905092915050565b600061222282612261565b9050919050565b60008115159050919050565b60007fffffffff0000000000000000000000000000000000000000000000000000000082169050919050565b600073ffffffffffffffffffffffffffffffffffffffff82169050919050565b6000819050919050565b82818337600083830152505050565b60005b838110156122b857808201518184015260208101905061229d565b838111156122c7576000848401525b50505050565b600060028204905060018216806122e557607f821691505b602082108114156122f9576122f8612408565b5b50919050565b612308826124a9565b810181811067ffffffffffffffff8211171561232757612326612466565b5b80604052505050565b600061233b82612281565b91507fffffffffffffffffffffffffffffffffffffffffffffffffffffffffffffffff82141561236e5761236d6123aa565b5b600182019050919050565b600061238482612281565b915061238f83612281565b92508261239f5761239e6123d9565b5b828206905092915050565b7f4e487b7100000000000000000000000000000000000000000000000000000000600052601160045260246000fd5b7f4e487b7100000000000000000000000000000000000000000000000000000000600052601260045260246000fd5b7f4e487b7100000000000000000000000000000000000000000000000000000000600052602260045260246000fd5b7f4e487b7100000000000000000000000000000000000000000000000000000000600052603260045260246000fd5b7f4e487b7100000000000000000000000000000000000000000000000000000000600052604160045260246000fd5b600080fd5b600080fd5b600080fd5b600080fd5b6000601f19601f8301169050919050565b7f4552433732313a207472616e7366657220746f206e6f6e20455243373231526560008201527f63656976657220696d706c656d656e7465720000000000000000000000000000602082015250565b7f617274697374206f6e6c79000000000000000000000000000000000000000000600082015250565b7f4552433732313a207472616e7366657220746f20746865207a65726f2061646460008201527f7265737300000000000000000000000000000000000000000000000000000000602082015250565b7f4552433732313a20617070726f766520746f2063616c6c657200000000000000600082015250565b7f4552433732313a206f70657261746f7220717565727920666f72206e6f6e657860008201527f697374656e7420746f6b656e0000000000000000000000000000000000000000602082015250565b7f4552433732313a20617070726f76652063616c6c6572206973206e6f74206f7760008201527f6e6572206e6f7220617070726f76656420666f7220616c6c0000000000000000602082015250565b7f4552433732313a2062616c616e636520717565727920666f7220746865207a6560008201527f726f206164647265737300000000000000000000000000000000000000000000602082015250565b7f4552433732313a206f776e657220717565727920666f72206e6f6e657869737460008201527f656e7420746f6b656e0000000000000000000000000000000000000000000000602082015250565b7f4552433732313a20617070726f76656420717565727920666f72206e6f6e657860008201527f697374656e7420746f6b656e0000000000000000000000000000000000000000602082015250565b7f4552433732313a207472616e73666572206f6620746f6b656e2074686174206960008201527f73206e6f74206f776e0000000000000000000000000000000000000000000000602082015250565b7f4552433732314d657461646174613a2055524920717565727920666f72206e6f60008201527f6e6578697374656e7420746f6b656e0000000000000000000000000000000000602082015250565b7f4552433732313a20617070726f76616c20746f2063757272656e74206f776e6560008201527f7200000000000000000000000000000000000000000000000000000000000000602082015250565b7f4552433732313a207472616e736665722063616c6c6572206973206e6f74206f60008201527f776e6572206e6f7220617070726f766564000000000000000000000000000000602082015250565b61287a81612217565b811461288557600080fd5b50565b61289181612229565b811461289c57600080fd5b50565b6128a881612235565b81146128b357600080fd5b50565b6128bf81612281565b81146128ca57600080fd5b5056fea26469706673582212205966939d1fa56b550299e7c0468b90199ea292bdbc920686601ca8a146790f4764736f6c63430008060033",
  "linkReferences": {},
  "deployedLinkReferences": {}
}