{
  "contractName": "ToDo",
  "abi": [
    {
      "anonymous": false,
      "inputs": [
        {
          "indexed": false,
          "internalType": "uint256",
          "name": "id",
          "type": "uint256"
        },
        {
          "indexed": false,
          "internalType": "uint256",
          "name": "date",
          "type": "uint256"
        },
        {
          "indexed": false,
          "internalType": "bytes32",
          "name": "content",
          "type": "bytes32"
        },
        {
          "indexed": false,
          "internalType": "bytes32",
          "name": "author",
          "type": "bytes32"
        },
        {
          "indexed": false,
          "internalType": "bool",
          "name": "done",
          "type": "bool"
        }
      ],
      "name": "TaskCreated",
      "type": "event"
    },
    {
      "anonymous": false,
      "inputs": [
        {
          "indexed": false,
          "internalType": "uint256",
          "name": "id",
          "type": "uint256"
        },
        {
          "indexed": false,
          "internalType": "bool",
          "name": "done",
          "type": "bool"
        },
        {
          "indexed": false,
          "internalType": "uint256",
          "name": "date",
          "type": "uint256"
        }
      ],
      "name": "TaskStatusToggled",
      "type": "event"
    },
    {
      "constant": false,
      "inputs": [
        {
          "internalType": "bytes32",
          "name": "_content",
          "type": "bytes32"
        },
        {
          "internalType": "bytes32",
          "name": "_author",
          "type": "bytes32"
        }
      ],
      "name": "createTask",
      "outputs": [],
      "payable": false,
      "stateMutability": "nonpayable",
      "type": "function"
    },
    {
      "constant": true,
      "inputs": [],
      "name": "getTasks",
      "outputs": [
        {
          "internalType": "uint256[]",
          "name": "",
          "type": "uint256[]"
        },
        {
          "internalType": "uint256[]",
          "name": "",
          "type": "uint256[]"
        },
        {
          "internalType": "bytes32[]",
          "name": "",
          "type": "bytes32[]"
        },
        {
          "internalType": "bytes32[]",
          "name": "",
          "type": "bytes32[]"
        },
        {
          "internalType": "bool[]",
          "name": "",
          "type": "bool[]"
        },
        {
          "internalType": "uint256[]",
          "name": "",
          "type": "uint256[]"
        }
      ],
      "payable": false,
      "stateMutability": "view",
      "type": "function"
    },
    {
      "constant": false,
      "inputs": [
        {
          "internalType": "uint256",
          "name": "id",
          "type": "uint256"
        }
      ],
      "name": "toggleDone",
      "outputs": [],
      "payable": false,
      "stateMutability": "nonpayable",
      "type": "function"
    }
  ],
  "bytecode": "0x608060405234801561001057600080fd5b506109ce806100206000396000f3fe608060405234801561001057600080fd5b50600436106100415760003560e01c806304a87e3814610046578063d3f32cae14610069578063d81ef73914610085575b600080fd5b61004e6100a1565b6040516100609695949392919061077d565b60405180910390f35b610083600480360361007e919081019061055c565b610359565b005b61009f600480360361009a9190810190610598565b61044c565b005b60608060608060608060606000546040519080825280602002602001820160405280156100dd5781602001602082028038833980820191505090505b50905060606000546040519080825280602002602001820160405280156101135781602001602082028038833980820191505090505b50905060606000546040519080825280602002602001820160405280156101495781602001602082028038833980820191505090505b509050606060005460405190808252806020026020018201604052801561017f5781602001602082028038833980820191505090505b50905060606000546040519080825280602002602001820160405280156101b55781602001602082028038833980820191505090505b50905060606000546040519080825280602002602001820160405280156101eb5781602001602082028038833980820191505090505b50905060008090505b60005481101561033857600160008281526020019081526020016000206000015487828151811061022157fe5b602002602001018181525050600160008281526020019081526020016000206001015486828151811061025057fe5b602002602001018181525050600160008281526020019081526020016000206002015485828151811061027f57fe5b60200260200101818152505060016000828152602001908152602001600020600301548482815181106102ae57fe5b6020026020010181815250506001600082815260200190815260200160002060040160009054906101000a900460ff168382815181106102ea57fe5b602002602001019015159081151581525050600160008281526020019081526020016000206005015482828151811061031f57fe5b60200260200101818152505080806001019150506101f4565b508585858585859b509b509b509b509b509b50505050505050909192939495565b6040518060c001604052806000548152602001428152602001838152602001828152602001600015158152602001600081525060016000805481526020019081526020016000206000820151816000015560208201518160010155604082015181600201556060820151816003015560808201518160040160006101000a81548160ff02191690831515021790555060a082015181600501559050507fe50dfd20d117d4877586c624d70254f31e93e7e5be15d4f93aa6a234f8cff1e4600054428484600060405161042f95949392919061083f565b60405180910390a160008081548092919060010191905055505050565b8060006001600083815260200190815260200160002060010154141561047157600080fd5b60006001600084815260200190815260200160002090508060040160009054906101000a900460ff16158160040160006101000a81548160ff0219169083151502179055508060040160009054906101000a900460ff166104d35760006104d5565b425b81600501819055507fcb1ceae718a6ae11d5daf00e292e318717e0acf2d326ed670df0e5ff67ba5000838260040160009054906101000a900460ff16836005015460405161052593929190610808565b60405180910390a1505050565b6000813590506105418161095d565b92915050565b60008135905061055681610974565b92915050565b6000806040838503121561056f57600080fd5b600061057d85828601610532565b925050602061058e85828601610532565b9150509250929050565b6000602082840312156105aa57600080fd5b60006105b884828501610547565b91505092915050565b60006105cd8383610723565b60208301905092915050565b60006105e58383610741565b60208301905092915050565b60006105fd838361075f565b60208301905092915050565b6000610614826108c2565b61061e818561090a565b935061062983610892565b8060005b8381101561065a57815161064188826105c1565b975061064c836108e3565b92505060018101905061062d565b5085935050505092915050565b6000610672826108cd565b61067c818561091b565b9350610687836108a2565b8060005b838110156106b857815161069f88826105d9565b97506106aa836108f0565b92505060018101905061068b565b5085935050505092915050565b60006106d0826108d8565b6106da818561092c565b93506106e5836108b2565b8060005b838110156107165781516106fd88826105f1565b9750610708836108fd565b9250506001810190506106e9565b5085935050505092915050565b61072c8161093d565b82525050565b61073b8161093d565b82525050565b61074a81610949565b82525050565b61075981610949565b82525050565b61076881610953565b82525050565b61077781610953565b82525050565b600060c082019050818103600083015261079781896106c5565b905081810360208301526107ab81886106c5565b905081810360408301526107bf8187610667565b905081810360608301526107d38186610667565b905081810360808301526107e78185610609565b905081810360a08301526107fb81846106c5565b9050979650505050505050565b600060608201905061081d600083018661076e565b61082a6020830185610732565b610837604083018461076e565b949350505050565b600060a082019050610854600083018861076e565b610861602083018761076e565b61086e6040830186610750565b61087b6060830185610750565b6108886080830184610732565b9695505050505050565b6000819050602082019050919050565b6000819050602082019050919050565b6000819050602082019050919050565b600081519050919050565b600081519050919050565b600081519050919050565b6000602082019050919050565b6000602082019050919050565b6000602082019050919050565b600082825260208201905092915050565b600082825260208201905092915050565b600082825260208201905092915050565b60008115159050919050565b6000819050919050565b6000819050919050565b61096681610949565b811461097157600080fd5b50565b61097d81610953565b811461098857600080fd5b5056fea365627a7a7231582041d8a36f78f2e862b4ae9547134bb714ab583ff453fd3e3b0f95fc14244ce2e36c6578706572696d656e74616cf564736f6c634300050b0040",
  "source": "pragma solidity ^0.5.11;\npragma experimental ABIEncoderV2;\n\ncontract ToDo {\n  struct Task {\n    uint id;\n    uint date;\n    bytes32 content;\n    bytes32 author;\n    bool done;\n    uint dateComplete;\n  }\n\n  uint lastTaskId;\n  mapping(uint => Task) tasks;\n\n  event TaskCreated(\n    uint id,\n    uint date,\n    bytes32 content,\n    bytes32 author,\n    bool done\n  );\n\n  event TaskStatusToggled(\n    uint id, \n    bool done, \n    uint date\n  );\n\n  function createTask(\n    bytes32 _content, \n    bytes32 _author) \n    external {\n    tasks[lastTaskId] = Task(lastTaskId, now, _content, _author, false, 0);\n    emit TaskCreated(lastTaskId, now, _content, _author, false);\n    lastTaskId++;\n  }\n\n  //Original function (does not work because of web3)\n  //function getTasks()\n  //  external\n  //  view\n  //  returns(Task[] memory) {\n  //  Task[] memory _tasks = new Task[](lastTaskId);\n  //  for(uint i = 0; i < lastTaskId; i++) {\n  //    _tasks[i] = tasks[i];\n  //  }\n  //  return _tasks;\n  //}\n\n  //Work-around\n  function getTasks()\n    external\n    view\n    returns(\n      uint[] memory, \n      uint[] memory, \n      bytes32[] memory,\n      bytes32[] memory,\n      bool[] memory,\n      uint[] memory\n    ) {\n    uint[] memory ids = new uint[](lastTaskId);\n    uint[] memory dates = new uint[](lastTaskId);\n    bytes32[] memory contents = new bytes32[](lastTaskId);\n    bytes32[] memory authors = new bytes32[](lastTaskId);\n    bool[] memory dones = new bool[](lastTaskId);\n    uint[] memory dateCompletes = new uint[](lastTaskId);\n    for(uint i = 0; i < lastTaskId; i++) {\n      ids[i] = tasks[i].id;\n      dates[i] = tasks[i].date;\n      contents[i] = tasks[i].content;\n      authors[i] = tasks[i].author;\n      dones[i] = tasks[i].done; \n      dateCompletes[i] = tasks[i].dateComplete;\n    }\n    return (ids, dates, contents, authors, dones, dateCompletes);\n  }\n\n  function toggleDone(uint id) \n    external\n    taskExists(id) {\n    Task storage task = tasks[id];\n    task.done = !task.done;\n    task.dateComplete = task.done ? now : 0;\n    emit TaskStatusToggled(id, task.done, task.dateComplete);\n  }\n\n  modifier taskExists(uint id) {\n    if(tasks[id].date == 0) {\n      revert();\n    }\n    _;\n  }\n}\n",
  "sourcePath": "/Users/jklepatch/ETB/code/todolist/step16/contracts/ToDo.sol",
  "compiler": {
    "name": "solc",
    "version": "0.5.11+commit.c082d0b4.Emscripten.clang"
  },
  "schemaVersion": "3.0.11",
  "updatedAt": "2019-09-04T00:39:15.824Z",
  "devdoc": {
    "methods": {}
  },
  "userdoc": {
    "methods": {}
  }
}