{
  "contractName": "ToDo",
  "abi": [
    {
      "anonymous": false,
      "inputs": [
        {
          "indexed": false,
          "name": "id",
          "type": "uint256"
        },
        {
          "indexed": false,
          "name": "date",
          "type": "uint256"
        },
        {
          "indexed": false,
          "name": "content",
          "type": "string"
        },
        {
          "indexed": false,
          "name": "author",
          "type": "string"
        },
        {
          "indexed": false,
          "name": "done",
          "type": "bool"
        }
      ],
      "name": "TaskCreated",
      "type": "event",
      "signature": "0xb322bdd3250d405f7845d27fa1f0753f8f7e18e40886bc254b89005c3e9c0324"
    },
    {
      "anonymous": false,
      "inputs": [
        {
          "indexed": false,
          "name": "id",
          "type": "uint256"
        },
        {
          "indexed": false,
          "name": "done",
          "type": "bool"
        },
        {
          "indexed": false,
          "name": "date",
          "type": "uint256"
        }
      ],
      "name": "TaskStatusToggled",
      "type": "event",
      "signature": "0xcb1ceae718a6ae11d5daf00e292e318717e0acf2d326ed670df0e5ff67ba5000"
    },
    {
      "constant": false,
      "inputs": [
        {
          "name": "_content",
          "type": "string"
        },
        {
          "name": "_author",
          "type": "string"
        }
      ],
      "name": "createTask",
      "outputs": [],
      "payable": false,
      "stateMutability": "nonpayable",
      "type": "function",
      "signature": "0x292a4585"
    },
    {
      "constant": true,
      "inputs": [],
      "name": "getTasks",
      "outputs": [
        {
          "components": [
            {
              "name": "id",
              "type": "uint256"
            },
            {
              "name": "date",
              "type": "uint256"
            },
            {
              "name": "content",
              "type": "string"
            },
            {
              "name": "author",
              "type": "string"
            },
            {
              "name": "done",
              "type": "bool"
            },
            {
              "name": "dateComplete",
              "type": "uint256"
            }
          ],
          "name": "",
          "type": "tuple[]"
        }
      ],
      "payable": false,
      "stateMutability": "view",
      "type": "function",
      "signature": "0x04a87e38"
    },
    {
      "constant": false,
      "inputs": [
        {
          "name": "id",
          "type": "uint256"
        }
      ],
      "name": "toggleDone",
      "outputs": [],
      "payable": false,
      "stateMutability": "nonpayable",
      "type": "function",
      "signature": "0xd81ef739"
    }
  ],
  "bytecode": "0x608060405234801561001057600080fd5b50610a78806100206000396000f3fe608060405260043610610057576000357c0100000000000000000000000000000000000000000000000000000000900463ffffffff16806304a87e381461005c578063292a458514610087578063d81ef739146100b0575b600080fd5b34801561006857600080fd5b506100716100d9565b60405161007e91906108dd565b60405180910390f35b34801561009357600080fd5b506100ae60048036036100a991908101906106c3565b6102f7565b005b3480156100bc57600080fd5b506100d760048036036100d29190810190610738565b61049f565b005b60608060005460405190808252806020026020018201604052801561011857816020015b610105610585565b8152602001906001900390816100fd5790505b50905060008090505b6000548110156102ef576001600082815260200190815260200160002060c060405190810160405290816000820154815260200160018201548152602001600282018054600181600116156101000203166002900480601f0160208091040260200160405190810160405280929190818152602001828054600181600116156101000203166002900480156101f75780601f106101cc576101008083540402835291602001916101f7565b820191906000526020600020905b8154815290600101906020018083116101da57829003601f168201915b50505050508152602001600382018054600181600116156101000203166002900480601f0160208091040260200160405190810160405280929190818152602001828054600181600116156101000203166002900480156102995780601f1061026e57610100808354040283529160200191610299565b820191906000526020600020905b81548152906001019060200180831161027c57829003601f168201915b505050505081526020016004820160009054906101000a900460ff1615151515815260200160058201548152505082828151811015156102d557fe5b906020019060200201819052508080600101915050610121565b508091505090565b600080815480929190600101919050555060c060405190810160405280600054815260200142815260200185858080601f016020809104026020016040519081016040528093929190818152602001838380828437600081840152601f19601f82011690508083019250505050505050815260200183838080601f016020809104026020016040519081016040528093929190818152602001838380828437600081840152601f19601f82011690508083019250505050505050815260200160001515815260200160008152506001600080548152602001908152602001600020600082015181600001556020820151816001015560408201518160020190805190602001906104089291906105be565b5060608201518160030190805190602001906104259291906105be565b5060808201518160040160006101000a81548160ff02191690831515021790555060a082015181600501559050507fb322bdd3250d405f7845d27fa1f0753f8f7e18e40886bc254b89005c3e9c0324600054428686868660006040516104919796959493929190610936565b60405180910390a150505050565b806000600160008381526020019081526020016000206000015414156104c457600080fd5b60006001600084815260200190815260200160002090508060040160009054906101000a900460ff16158160040160006101000a81548160ff0219169083151502179055508060040160009054906101000a900460ff16610526576000610528565b425b81600501819055507fcb1ceae718a6ae11d5daf00e292e318717e0acf2d326ed670df0e5ff67ba5000838260040160009054906101000a900460ff168360050154604051610578939291906108ff565b60405180910390a1505050565b60c06040519081016040528060008152602001600081526020016060815260200160608152602001600015158152602001600081525090565b828054600181600116156101000203166002900490600052602060002090601f016020900481019282601f106105ff57805160ff191683800117855561062d565b8280016001018555821561062d579182015b8281111561062c578251825591602001919060010190610611565b5b50905061063a919061063e565b5090565b61066091905b8082111561065c576000816000905550600101610644565b5090565b90565b60008083601f840112151561067757600080fd5b8235905067ffffffffffffffff81111561069057600080fd5b6020830191508360018202830111156106a857600080fd5b9250929050565b60006106bb82356109e1565b905092915050565b600080600080604085870312156106d957600080fd5b600085013567ffffffffffffffff8111156106f357600080fd5b6106ff87828801610663565b9450945050602085013567ffffffffffffffff81111561071e57600080fd5b61072a87828801610663565b925092505092959194509250565b60006020828403121561074a57600080fd5b6000610758848285016106af565b91505092915050565b600061076c826109a8565b808452602084019350836020820285016107858561099b565b60005b848110156107be5783830388526107a083835161083e565b92506107ab826109be565b9150602088019750600181019050610788565b508196508694505050505092915050565b6107d8816109cb565b82525050565b60008284526020840193506107f48385846109eb565b6107fd83610a2d565b840190509392505050565b6000610813826109b3565b8084526108278160208601602086016109fa565b61083081610a2d565b602085010191505092915050565b600060c08301600083015161085660008601826108ce565b50602083015161086960208601826108ce565b50604083015184820360408601526108818282610808565b9150506060830151848203606086015261089b8282610808565b91505060808301516108b060808601826107cf565b5060a08301516108c360a08601826108ce565b508091505092915050565b6108d7816109d7565b82525050565b600060208201905081810360008301526108f78184610761565b905092915050565b600060608201905061091460008301866108ce565b61092160208301856107cf565b61092e60408301846108ce565b949350505050565b600060a08201905061094b600083018a6108ce565b61095860208301896108ce565b818103604083015261096b8187896107de565b905081810360608301526109808185876107de565b905061098f60808301846107cf565b98975050505050505050565b6000602082019050919050565b600081519050919050565b600081519050919050565b6000602082019050919050565b60008115159050919050565b6000819050919050565b6000819050919050565b82818337600083830152505050565b60005b83811015610a185780820151818401526020810190506109fd565b83811115610a27576000848401525b50505050565b6000601f19601f830116905091905056fea265627a7a72305820825bdc8ee42edba395c4c03bdcc365a753aa802bd6a183a665205da35fd669df6c6578706572696d656e74616cf50037",
  "source": "pragma solidity ^0.5.0;\npragma experimental ABIEncoderV2;\n\ncontract ToDo {\n  struct Task {\n    uint id;\n    uint date;\n    string content;\n    string author;\n    bool done;\n    uint dateComplete;\n  }\n\n  uint lastTaskId;\n  mapping(uint => Task) tasks;\n\n  event TaskCreated(\n    uint id,\n    uint date,\n    string content,\n    string author,\n    bool done\n  );\n\n  event TaskStatusToggled(\n    uint id, \n    bool done, \n    uint date\n  );\n\n  function createTask(\n    string calldata _content, \n    string calldata _author) \n    external {\n    lastTaskId++;\n    tasks[lastTaskId] = Task(lastTaskId, now, _content, _author, false, 0);\n    emit TaskCreated(lastTaskId, now, _content, _author, false);\n  }\n\n  function getTasks()\n    external\n    view\n    returns(Task[] memory) {\n    Task[] memory _tasks = new Task[](lastTaskId);\n    for(uint i = 0; i < lastTaskId; i++) {\n      _tasks[i] = tasks[i];\n    }\n    return _tasks;\n  }\n\n  function toggleDone(uint id) \n    external\n    taskExists(id) {\n    Task storage task = tasks[id];\n    task.done = !task.done;\n    task.dateComplete = task.done ? now : 0;\n    emit TaskStatusToggled(id, task.done, task.dateComplete);\n  }\n\n  modifier taskExists(uint id) {\n    if(tasks[id].id == 0) {\n      revert();\n    }\n    _;\n  }\n}\n",
  "sourcePath": "/Users/jklepatch/ETB/pro/code/todolist/step16/contracts/ToDo.sol",
  "compiler": {
    "name": "solc",
    "version": "0.5.0+commit.1d4f565a.Emscripten.clang"
  },
  "schemaVersion": "3.0.5",
  "updatedAt": "2019-03-31T03:19:09.766Z",
  "devdoc": {
    "methods": {}
  },
  "userdoc": {
    "methods": {}
  }
}