{
  "contractName": "Airdrop",
  "abi": [
    {
      "inputs": [
        {
          "internalType": "address",
          "name": "_token",
          "type": "address"
        },
        {
          "internalType": "address",
          "name": "_admin",
          "type": "address"
        }
      ],
      "stateMutability": "nonpayable",
      "type": "constructor"
    },
    {
      "anonymous": false,
      "inputs": [
        {
          "indexed": false,
          "internalType": "address",
          "name": "recipient",
          "type": "address"
        },
        {
          "indexed": false,
          "internalType": "uint256",
          "name": "amount",
          "type": "uint256"
        },
        {
          "indexed": false,
          "internalType": "uint256",
          "name": "date",
          "type": "uint256"
        }
      ],
      "name": "AirdropProcessed",
      "type": "event"
    },
    {
      "inputs": [],
      "name": "admin",
      "outputs": [
        {
          "internalType": "address",
          "name": "",
          "type": "address"
        }
      ],
      "stateMutability": "view",
      "type": "function",
      "constant": true
    },
    {
      "inputs": [],
      "name": "currentAirdropAmount",
      "outputs": [
        {
          "internalType": "uint256",
          "name": "",
          "type": "uint256"
        }
      ],
      "stateMutability": "view",
      "type": "function",
      "constant": true
    },
    {
      "inputs": [],
      "name": "maxAirdropAmount",
      "outputs": [
        {
          "internalType": "uint256",
          "name": "",
          "type": "uint256"
        }
      ],
      "stateMutability": "view",
      "type": "function",
      "constant": true
    },
    {
      "inputs": [
        {
          "internalType": "address",
          "name": "",
          "type": "address"
        }
      ],
      "name": "processedAirdrops",
      "outputs": [
        {
          "internalType": "bool",
          "name": "",
          "type": "bool"
        }
      ],
      "stateMutability": "view",
      "type": "function",
      "constant": true
    },
    {
      "inputs": [],
      "name": "token",
      "outputs": [
        {
          "internalType": "contract IERC20",
          "name": "",
          "type": "address"
        }
      ],
      "stateMutability": "view",
      "type": "function",
      "constant": true
    },
    {
      "inputs": [
        {
          "internalType": "address",
          "name": "newAdmin",
          "type": "address"
        }
      ],
      "name": "updateAdmin",
      "outputs": [],
      "stateMutability": "nonpayable",
      "type": "function"
    },
    {
      "inputs": [
        {
          "internalType": "address",
          "name": "recipient",
          "type": "address"
        },
        {
          "internalType": "uint256",
          "name": "amount",
          "type": "uint256"
        },
        {
          "internalType": "bytes",
          "name": "signature",
          "type": "bytes"
        }
      ],
      "name": "claimTokens",
      "outputs": [],
      "stateMutability": "nonpayable",
      "type": "function"
    }
  ],
  "bytecode": "0x608060405269152d02c7e14af680000060045534801561001e57600080fd5b50604051610f82380380610f82833981810160405281019061004091906100dd565b806000806101000a81548173ffffffffffffffffffffffffffffffffffffffff021916908373ffffffffffffffffffffffffffffffffffffffff16021790555081600260006101000a81548173ffffffffffffffffffffffffffffffffffffffff021916908373ffffffffffffffffffffffffffffffffffffffff1602179055505050610162565b6000815190506100d78161014b565b92915050565b600080604083850312156100f057600080fd5b60006100fe858286016100c8565b925050602061010f858286016100c8565b9150509250929050565b60006101248261012b565b9050919050565b600073ffffffffffffffffffffffffffffffffffffffff82169050919050565b61015481610119565b811461015f57600080fd5b50565b610e11806101716000396000f3fe608060405234801561001057600080fd5b506004361061007d5760003560e01c80637424bab11161005b5780637424bab1146100ec578063e2f273bd1461010a578063f851a44014610126578063fc0c546a146101445761007d565b806323efeb121461008257806332ffa783146100a057806349e80422146100d0575b600080fd5b61008a610162565b6040516100979190610b45565b60405180910390f35b6100ba60048036038101906100b59190610771565b610168565b6040516100c79190610a4a565b60405180910390f35b6100ea60048036038101906100e5919061079a565b610188565b005b6100f46104df565b6040516101019190610b45565b60405180910390f35b610124600480360381019061011f9190610771565b6104e5565b005b61012e6105b6565b60405161013b91906109cf565b60405180910390f35b61014c6105da565b6040516101599190610aaa565b60405180910390f35b60045481565b60016020528060005260406000206000915054906101000a900460ff1681565b60006101bb85856040516020016101a092919061097d565b60405160208183030381529060405280519060200120610600565b905060008054906101000a900473ffffffffffffffffffffffffffffffffffffffff1673ffffffffffffffffffffffffffffffffffffffff166102428285858080601f016020809104026020016040519081016040528093929190818152602001838380828437600081840152601f19601f82011690508083019250505050505050610630565b73ffffffffffffffffffffffffffffffffffffffff1614610298576040517f08c379a000000000000000000000000000000000000000000000000000000000815260040161028f90610b25565b60405180910390fd5b60001515600160008773ffffffffffffffffffffffffffffffffffffffff1673ffffffffffffffffffffffffffffffffffffffff16815260200190815260200160002060009054906101000a900460ff1615151461032b576040517f08c379a000000000000000000000000000000000000000000000000000000000815260040161032290610ae5565b60405180910390fd5b6004548460035461033c9190610b7c565b111561037d576040517f08c379a000000000000000000000000000000000000000000000000000000000815260040161037490610b05565b60405180910390fd5b60018060008773ffffffffffffffffffffffffffffffffffffffff1673ffffffffffffffffffffffffffffffffffffffff16815260200190815260200160002060006101000a81548160ff02191690831515021790555083600360008282546103e69190610b7c565b92505081905550600260009054906101000a900473ffffffffffffffffffffffffffffffffffffffff1673ffffffffffffffffffffffffffffffffffffffff1663a9059cbb86866040518363ffffffff1660e01b815260040161044a9291906109ea565b602060405180830381600087803b15801561046457600080fd5b505af1158015610478573d6000803e3d6000fd5b505050506040513d601f19601f8201168201806040525081019061049c9190610806565b507fc0312d3bf25e86c787fa77f4d038213e428dc722e16d38ca9719e987d20f7c7c8585426040516104d093929190610a13565b60405180910390a15050505050565b60035481565b60008054906101000a900473ffffffffffffffffffffffffffffffffffffffff1673ffffffffffffffffffffffffffffffffffffffff163373ffffffffffffffffffffffffffffffffffffffff1614610573576040517f08c379a000000000000000000000000000000000000000000000000000000000815260040161056a90610ac5565b60405180910390fd5b806000806101000a81548173ffffffffffffffffffffffffffffffffffffffff021916908373ffffffffffffffffffffffffffffffffffffffff16021790555050565b60008054906101000a900473ffffffffffffffffffffffffffffffffffffffff1681565b600260009054906101000a900473ffffffffffffffffffffffffffffffffffffffff1681565b60008160405160200161061391906109a9565b604051602081830303815290604052805190602001209050919050565b60008060008061063f856106a5565b8093508194508295505050506001868484846040516000815260200160405260405161066e9493929190610a65565b6020604051602081039080840390855afa158015610690573d6000803e3d6000fd5b50505060206040510351935050505092915050565b600080600060418451146106b857600080fd5b60008060006020870151925060408701519150606087015160001a90508083839550955095505050509193909250565b6000813590506106f781610d96565b92915050565b60008151905061070c81610dad565b92915050565b60008083601f84011261072457600080fd5b8235905067ffffffffffffffff81111561073d57600080fd5b60208301915083600182028301111561075557600080fd5b9250929050565b60008135905061076b81610dc4565b92915050565b60006020828403121561078357600080fd5b6000610791848285016106e8565b91505092915050565b600080600080606085870312156107b057600080fd5b60006107be878288016106e8565b94505060206107cf8782880161075c565b935050604085013567ffffffffffffffff8111156107ec57600080fd5b6107f887828801610712565b925092505092959194509250565b60006020828403121561081857600080fd5b6000610826848285016106fd565b91505092915050565b61083881610bd2565b82525050565b61084f61084a82610bd2565b610c55565b82525050565b61085e81610be4565b82525050565b61086d81610bf0565b82525050565b61088461087f82610bf0565b610c67565b82525050565b61089381610c31565b82525050565b60006108a6601c83610b71565b91506108b182610cc9565b601c82019050919050565b60006108c9600a83610b60565b91506108d482610cf2565b602082019050919050565b60006108ec601983610b60565b91506108f782610d1b565b602082019050919050565b600061090f601d83610b60565b915061091a82610d44565b602082019050919050565b6000610932600f83610b60565b915061093d82610d6d565b602082019050919050565b61095181610c1a565b82525050565b61096861096382610c1a565b610c83565b82525050565b61097781610c24565b82525050565b6000610989828561083e565b6014820191506109998284610957565b6020820191508190509392505050565b60006109b482610899565b91506109c08284610873565b60208201915081905092915050565b60006020820190506109e4600083018461082f565b92915050565b60006040820190506109ff600083018561082f565b610a0c6020830184610948565b9392505050565b6000606082019050610a28600083018661082f565b610a356020830185610948565b610a426040830184610948565b949350505050565b6000602082019050610a5f6000830184610855565b92915050565b6000608082019050610a7a6000830187610864565b610a87602083018661096e565b610a946040830185610864565b610aa16060830184610864565b95945050505050565b6000602082019050610abf600083018461088a565b92915050565b60006020820190508181036000830152610ade816108bc565b9050919050565b60006020820190508181036000830152610afe816108df565b9050919050565b60006020820190508181036000830152610b1e81610902565b9050919050565b60006020820190508181036000830152610b3e81610925565b9050919050565b6000602082019050610b5a6000830184610948565b92915050565b600082825260208201905092915050565b600081905092915050565b6000610b8782610c1a565b9150610b9283610c1a565b9250827fffffffffffffffffffffffffffffffffffffffffffffffffffffffffffffffff03821115610bc757610bc6610c8d565b5b828201905092915050565b6000610bdd82610bfa565b9050919050565b60008115159050919050565b6000819050919050565b600073ffffffffffffffffffffffffffffffffffffffff82169050919050565b6000819050919050565b600060ff82169050919050565b6000610c3c82610c43565b9050919050565b6000610c4e82610bfa565b9050919050565b6000610c6082610c71565b9050919050565b6000819050919050565b6000610c7c82610cbc565b9050919050565b6000819050919050565b7f4e487b7100000000000000000000000000000000000000000000000000000000600052601160045260246000fd5b60008160601b9050919050565b7f19457468657265756d205369676e6564204d6573736167653a0a333200000000600082015250565b7f6f6e6c792061646d696e00000000000000000000000000000000000000000000600082015250565b7f61697264726f7020616c72656164792070726f63657373656400000000000000600082015250565b7f61697264726f707065642031303025206f662074686520746f6b656e73000000600082015250565b7f77726f6e67207369676e61747572650000000000000000000000000000000000600082015250565b610d9f81610bd2565b8114610daa57600080fd5b50565b610db681610be4565b8114610dc157600080fd5b50565b610dcd81610c1a565b8114610dd857600080fd5b5056fea26469706673582212205dcffcce6c0193663301f6f1122ebacfb72cb3c654c43fe16943e7466f49d82d64736f6c63430008030033",
  "immutableReferences": {},
  "source": "pragma solidity ^0.8.3;\n\nimport '@openzeppelin/contracts/token/ERC20/IERC20.sol';\n\ncontract Airdrop {\n  address public admin;\n  mapping(address => bool) public processedAirdrops;\n  IERC20 public token;\n  uint public currentAirdropAmount;\n  uint public maxAirdropAmount = 100000 * 10 ** 18;\n\n  event AirdropProcessed(\n    address recipient,\n    uint amount,\n    uint date\n  );\n\n  constructor(address _token, address _admin) {\n    admin = _admin; \n    token = IERC20(_token);\n  }\n\n  function updateAdmin(address newAdmin) external {\n    require(msg.sender == admin, 'only admin');\n    admin = newAdmin;\n  }\n\n  function claimTokens(\n    address recipient,\n    uint amount,\n    bytes calldata signature\n  ) external {\n    bytes32 message = prefixed(keccak256(abi.encodePacked(\n      recipient, \n      amount\n    )));\n    require(recoverSigner(message, signature) == admin , 'wrong signature');\n    require(processedAirdrops[recipient] == false, 'airdrop already processed');\n    require(currentAirdropAmount + amount <= maxAirdropAmount, 'airdropped 100% of the tokens');\n    processedAirdrops[recipient] = true;\n    currentAirdropAmount += amount;\n    token.transfer(recipient, amount);\n    emit AirdropProcessed(\n      recipient,\n      amount,\n      block.timestamp\n    );\n  }\n\n  function prefixed(bytes32 hash) internal pure returns (bytes32) {\n    return keccak256(abi.encodePacked(\n      '\\x19Ethereum Signed Message:\\n32', \n      hash\n    ));\n  }\n\n  function recoverSigner(bytes32 message, bytes memory sig)\n    internal\n    pure\n    returns (address)\n  {\n    uint8 v;\n    bytes32 r;\n    bytes32 s;\n  \n    (v, r, s) = splitSignature(sig);\n  \n    return ecrecover(message, v, r, s);\n  }\n\n  function splitSignature(bytes memory sig)\n    internal\n    pure\n    returns (uint8, bytes32, bytes32)\n  {\n    require(sig.length == 65);\n  \n    bytes32 r;\n    bytes32 s;\n    uint8 v;\n  \n    assembly {\n        // first 32 bytes, after the length prefix\n        r := mload(add(sig, 32))\n        // second 32 bytes\n        s := mload(add(sig, 64))\n        // final byte (first byte of the next 32 bytes)\n        v := byte(0, mload(add(sig, 96)))\n    }\n  \n    return (v, r, s);\n  }\n}\n",
  "sourcePath": "/Users/jklepatch/ETB/code/token/contracts/Airdrop.sol",
  "compiler": {
    "name": "solc",
    "version": "0.8.3+commit.8d00100c.Emscripten.clang"
  },
  "schemaVersion": "3.3.3",
  "updatedAt": "2021-05-18T08:50:25.884Z",
  "networkType": "ethereum",
  "devdoc": {
    "kind": "dev",
    "methods": {},
    "version": 1
  },
  "userdoc": {
    "kind": "user",
    "methods": {},
    "version": 1
  }
}