{
  "contractName": "MyContract",
  "abi": [
    {
      "inputs": [],
      "name": "data",
      "outputs": [
        {
          "internalType": "uint256",
          "name": "",
          "type": "uint256"
        }
      ],
      "stateMutability": "view",
      "type": "function",
      "constant": true
    },
    {
      "inputs": [
        {
          "internalType": "uint256",
          "name": "_data",
          "type": "uint256"
        }
      ],
      "name": "setData",
      "outputs": [],
      "stateMutability": "nonpayable",
      "type": "function"
    },
    {
      "inputs": [],
      "name": "getData",
      "outputs": [
        {
          "internalType": "uint256",
          "name": "",
          "type": "uint256"
        }
      ],
      "stateMutability": "view",
      "type": "function",
      "constant": true
    }
  ],
  "bytecode": "0x608060405234801561001057600080fd5b5060f38061001f6000396000f3fe6080604052348015600f57600080fd5b5060043610603c5760003560e01c80633bc5de301460415780635b4b73a914605d57806373d4a13a146088575b600080fd5b604760a4565b6040518082815260200191505060405180910390f35b608660048036036020811015607157600080fd5b810190808035906020019092919050505060ad565b005b608e60b7565b6040518082815260200191505060405180910390f35b60008054905090565b8060008190555050565b6000548156fea2646970667358221220657c77f2e8cff4730444b827bbfac7e81151973bdb6977f28332f46cb2a9113864736f6c63430007000033",
  "immutableReferences": {},
  "source": "pragma solidity ^0.7.0;\n\ncontract MyContract {\n  uint public data;\n\n  function setData(uint _data) external {\n    data = _data;\n  }\n\n  function getData() external view returns(uint) {\n    return data;\n  }\n}\n",
  "sourcePath": "/Users/jklepatch/ETB/code/screencast/274-cancel-replace-transaction/contracts/MyContract.sol",
  "compiler": {
    "name": "solc",
    "version": "0.7.0+commit.9e61f92b.Emscripten.clang"
  },
  "schemaVersion": "3.3.3",
  "updatedAt": "2020-12-26T18:01:05.957Z",
  "networkType": "ethereum",
  "devdoc": {
    "kind": "dev",
    "methods": {},
    "version": 1
  },
  "userdoc": {
    "kind": "user",
    "methods": {},
    "version": 1
  }
}