{
  "contractName": "SimpleStorage",
  "abi": [
    {
      "constant": true,
      "inputs": [],
      "name": "storedData",
      "outputs": [
        {
          "name": "",
          "type": "uint256"
        }
      ],
      "payable": false,
      "stateMutability": "view",
      "type": "function",
      "signature": "0x2a1afcd9"
    },
    {
      "anonymous": false,
      "inputs": [
        {
          "indexed": false,
          "name": "newValue",
          "type": "uint256"
        },
        {
          "indexed": false,
          "name": "date",
          "type": "uint256"
        }
      ],
      "name": "DataChanged",
      "type": "event",
      "signature": "0x8e28f9467fd700ad8e18df63125408ed029967c1f2c0f0e262dfb79476a99ad3"
    },
    {
      "constant": false,
      "inputs": [
        {
          "name": "x",
          "type": "uint256"
        }
      ],
      "name": "set",
      "outputs": [],
      "payable": false,
      "stateMutability": "nonpayable",
      "type": "function",
      "signature": "0x60fe47b1"
    }
  ],
  "bytecode": "0x608060405234801561001057600080fd5b50610128806100206000396000f3fe6080604052600436106049576000357c0100000000000000000000000000000000000000000000000000000000900463ffffffff1680632a1afcd914604e57806360fe47b1146076575b600080fd5b348015605957600080fd5b50606060ad565b6040518082815260200191505060405180910390f35b348015608157600080fd5b5060ab60048036036020811015609657600080fd5b810190808035906020019092919050505060b3565b005b60005481565b806000819055507f8e28f9467fd700ad8e18df63125408ed029967c1f2c0f0e262dfb79476a99ad38142604051808381526020018281526020019250505060405180910390a15056fea165627a7a72305820ad30253f179257b0a5c135c4fb92414efbb85f75e9edd3bee18d0349f1c590a20029",
  "source": "pragma solidity >=0.4.21 <0.6.0;\n\ncontract SimpleStorage {\n    uint public storedData;\n    event DataChanged(uint newValue, uint date);\n\n    function set(uint x) public {\n        storedData = x;\n        emit DataChanged(x, now);\n    }\n}\n",
  "sourcePath": "/Users/jklepatch/ETB/code/screencast/14-drizzle-vue-dapp-advanced/end/contracts/SimpleStorage.sol",
  "compiler": {
    "name": "solc",
    "version": "0.5.0+commit.1d4f565a.Emscripten.clang"
  },
  "schemaVersion": "3.0.6",
  "updatedAt": "2019-07-05T09:48:08.010Z",
  "devdoc": {
    "methods": {}
  },
  "userdoc": {
    "methods": {}
  }
}