{
  "contractName": "ToDo",
  "abi": [
    {
      "constant": true,
      "inputs": [
        {
          "name": "",
          "type": "uint256"
        }
      ],
      "name": "tasks",
      "outputs": [
        {
          "name": "id",
          "type": "uint256"
        },
        {
          "name": "date",
          "type": "uint256"
        },
        {
          "name": "content",
          "type": "string"
        },
        {
          "name": "author",
          "type": "string"
        },
        {
          "name": "done",
          "type": "bool"
        },
        {
          "name": "dateComplete",
          "type": "uint256"
        }
      ],
      "payable": false,
      "stateMutability": "view",
      "type": "function",
      "signature": "0x8d977672"
    },
    {
      "anonymous": false,
      "inputs": [
        {
          "indexed": false,
          "name": "id",
          "type": "uint256"
        },
        {
          "indexed": false,
          "name": "date",
          "type": "uint256"
        },
        {
          "indexed": false,
          "name": "content",
          "type": "string"
        },
        {
          "indexed": false,
          "name": "author",
          "type": "string"
        },
        {
          "indexed": false,
          "name": "done",
          "type": "bool"
        }
      ],
      "name": "TaskCreated",
      "type": "event",
      "signature": "0xb322bdd3250d405f7845d27fa1f0753f8f7e18e40886bc254b89005c3e9c0324"
    },
    {
      "anonymous": false,
      "inputs": [
        {
          "indexed": false,
          "name": "id",
          "type": "uint256"
        },
        {
          "indexed": false,
          "name": "done",
          "type": "bool"
        },
        {
          "indexed": false,
          "name": "date",
          "type": "uint256"
        }
      ],
      "name": "TaskStatusToggled",
      "type": "event",
      "signature": "0xcb1ceae718a6ae11d5daf00e292e318717e0acf2d326ed670df0e5ff67ba5000"
    },
    {
      "constant": false,
      "inputs": [
        {
          "name": "_content",
          "type": "string"
        },
        {
          "name": "_author",
          "type": "string"
        }
      ],
      "name": "createTask",
      "outputs": [],
      "payable": false,
      "stateMutability": "nonpayable",
      "type": "function",
      "signature": "0x292a4585"
    },
    {
      "constant": true,
      "inputs": [],
      "name": "getTasks",
      "outputs": [
        {
          "components": [
            {
              "name": "id",
              "type": "uint256"
            },
            {
              "name": "date",
              "type": "uint256"
            },
            {
              "name": "content",
              "type": "string"
            },
            {
              "name": "author",
              "type": "string"
            },
            {
              "name": "done",
              "type": "bool"
            },
            {
              "name": "dateComplete",
              "type": "uint256"
            }
          ],
          "name": "",
          "type": "tuple[]"
        }
      ],
      "payable": false,
      "stateMutability": "view",
      "type": "function",
      "signature": "0x04a87e38"
    },
    {
      "constant": false,
      "inputs": [
        {
          "name": "id",
          "type": "uint256"
        }
      ],
      "name": "toggleDone",
      "outputs": [],
      "payable": false,
      "stateMutability": "nonpayable",
      "type": "function",
      "signature": "0xd81ef739"
    }
  ],
  "bytecode": "0x608060405234801561001057600080fd5b50610d39806100206000396000f3fe608060405260043610610062576000357c0100000000000000000000000000000000000000000000000000000000900463ffffffff16806304a87e3814610067578063292a4585146100925780638d977672146100bb578063d81ef739146100fd575b600080fd5b34801561007357600080fd5b5061007c610126565b6040516100899190610b0f565b60405180910390f35b34801561009e57600080fd5b506100b960048036036100b491908101906108be565b610342565b005b3480156100c757600080fd5b506100e260048036036100dd9190810190610933565b6104eb565b6040516100f496959493929190610bed565b60405180910390f35b34801561010957600080fd5b50610124600480360361011f9190810190610933565b610664565b005b60608060015460405190808252806020026020018201604052801561016557816020015b610152610780565b81526020019060019003908161014a5790505b50905060008090505b815181101561033a5760008082815260200190815260200160002060c060405190810160405290816000820154815260200160018201548152602001600282018054600181600116156101000203166002900480601f0160208091040260200160405190810160405280929190818152602001828054600181600116156101000203166002900480156102425780601f1061021757610100808354040283529160200191610242565b820191906000526020600020905b81548152906001019060200180831161022557829003601f168201915b50505050508152602001600382018054600181600116156101000203166002900480601f0160208091040260200160405190810160405280929190818152602001828054600181600116156101000203166002900480156102e45780601f106102b9576101008083540402835291602001916102e4565b820191906000526020600020905b8154815290600101906020018083116102c757829003601f168201915b505050505081526020016004820160009054906101000a900460ff16151515158152602001600582015481525050828281518110151561032057fe5b90602001906020020181905250808060010191505061016e565b508091505090565b60016000815480929190600101919050555060c060405190810160405280600154815260200142815260200185858080601f016020809104026020016040519081016040528093929190818152602001838380828437600081840152601f19601f82011690508083019250505050505050815260200183838080601f016020809104026020016040519081016040528093929190818152602001838380828437600081840152601f19601f82011690508083019250505050505050815260200160001515815260200160008152506000806001548152602001908152602001600020600082015181600001556020820151816001015560408201518160020190805190602001906104549291906107b9565b5060608201518160030190805190602001906104719291906107b9565b5060808201518160040160006101000a81548160ff02191690831515021790555060a082015181600501559050507fb322bdd3250d405f7845d27fa1f0753f8f7e18e40886bc254b89005c3e9c0324600154428686868660006040516104dd9796959493929190610b88565b60405180910390a150505050565b6000602052806000526040600020600091509050806000015490806001015490806002018054600181600116156101000203166002900480601f0160208091040260200160405190810160405280929190818152602001828054600181600116156101000203166002900480156105a35780601f10610578576101008083540402835291602001916105a3565b820191906000526020600020905b81548152906001019060200180831161058657829003601f168201915b505050505090806003018054600181600116156101000203166002900480601f0160208091040260200160405190810160405280929190818152602001828054600181600116156101000203166002900480156106415780601f1061061657610100808354040283529160200191610641565b820191906000526020600020905b81548152906001019060200180831161062457829003601f168201915b5050505050908060040160009054906101000a900460ff16908060050154905086565b80600080600083815260200190815260200160002060000154141515156106c0576040517f08c379a00000000000000000000000000000000000000000000000000000000081526004016106b790610b31565b60405180910390fd5b600080600084815260200190815260200160002090508060040160009054906101000a900460ff16158160040160006101000a81548160ff0219169083151502179055508060040160009054906101000a900460ff16610721576000610723565b425b81600501819055507fcb1ceae718a6ae11d5daf00e292e318717e0acf2d326ed670df0e5ff67ba5000838260040160009054906101000a900460ff16836005015460405161077393929190610b51565b60405180910390a1505050565b60c06040519081016040528060008152602001600081526020016060815260200160608152602001600015158152602001600081525090565b828054600181600116156101000203166002900490600052602060002090601f016020900481019282601f106107fa57805160ff1916838001178555610828565b82800160010185558215610828579182015b8281111561082757825182559160200191906001019061080c565b5b5090506108359190610839565b5090565b61085b91905b8082111561085757600081600090555060010161083f565b5090565b90565b60008083601f840112151561087257600080fd5b8235905067ffffffffffffffff81111561088b57600080fd5b6020830191508360018202830111156108a357600080fd5b9250929050565b60006108b68235610ca2565b905092915050565b600080600080604085870312156108d457600080fd5b600085013567ffffffffffffffff8111156108ee57600080fd5b6108fa8782880161085e565b9450945050602085013567ffffffffffffffff81111561091957600080fd5b6109258782880161085e565b925092505092959194509250565b60006020828403121561094557600080fd5b6000610953848285016108aa565b91505092915050565b600061096782610c69565b8084526020840193508360208202850161098085610c5c565b60005b848110156109b957838303885261099b838351610a70565b92506109a682610c7f565b9150602088019750600181019050610983565b508196508694505050505092915050565b6109d381610c8c565b82525050565b60008284526020840193506109ef838584610cac565b6109f883610cee565b840190509392505050565b6000610a0e82610c74565b808452610a22816020860160208601610cbb565b610a2b81610cee565b602085010191505092915050565b6000601382527f7461736b20646f6573206e6f74206578697374000000000000000000000000006020830152604082019050919050565b600060c083016000830151610a886000860182610b00565b506020830151610a9b6020860182610b00565b5060408301518482036040860152610ab38282610a03565b91505060608301518482036060860152610acd8282610a03565b9150506080830151610ae260808601826109ca565b5060a0830151610af560a0860182610b00565b508091505092915050565b610b0981610c98565b82525050565b60006020820190508181036000830152610b29818461095c565b905092915050565b60006020820190508181036000830152610b4a81610a39565b9050919050565b6000606082019050610b666000830186610b00565b610b7360208301856109ca565b610b806040830184610b00565b949350505050565b600060a082019050610b9d600083018a610b00565b610baa6020830189610b00565b8181036040830152610bbd8187896109d9565b90508181036060830152610bd28185876109d9565b9050610be160808301846109ca565b98975050505050505050565b600060c082019050610c026000830189610b00565b610c0f6020830188610b00565b8181036040830152610c218187610a03565b90508181036060830152610c358186610a03565b9050610c4460808301856109ca565b610c5160a0830184610b00565b979650505050505050565b6000602082019050919050565b600081519050919050565b600081519050919050565b6000602082019050919050565b60008115159050919050565b6000819050919050565b6000819050919050565b82818337600083830152505050565b60005b83811015610cd9578082015181840152602081019050610cbe565b83811115610ce8576000848401525b50505050565b6000601f19601f830116905091905056fea265627a7a72305820decfeec058b48bcdd4ae50c065192f3e264eff3ab43d6d5c2e272a29140c6d846c6578706572696d656e74616cf50037",
  "source": "pragma solidity ^0.5.0;\npragma experimental ABIEncoderV2;\n\ncontract ToDo {\n  struct Task {\n    uint id;\n    uint date;\n    string content;\n    string author;\n    bool done;\n    uint dateComplete;\n  }\n  mapping(uint => Task) public tasks; \n  uint lastTaskId;\n\n  event TaskCreated(\n    uint id,\n    uint date,\n    string content,\n    string author,\n    bool done);\n  event TaskStatusToggled(uint id, bool done, uint date);\n\n  function createTask(\n    string calldata _content, \n    string calldata _author) external {\n    lastTaskId++;\n    tasks[lastTaskId] = Task(lastTaskId, now, _content, _author, false, 0);\n    emit TaskCreated(lastTaskId, now, _content, _author, false);\n  }\n\n  function getTasks() \n    external \n    view \n    returns(Task[] memory) {\n    Task[] memory _tasks = new Task[](lastTaskId);\n    for(uint i = 0; i < _tasks.length; i++) { \n      _tasks[i] = tasks[i];\n    }\n    return _tasks;\n  }\n\n  function toggleDone(uint id) \n    external\n    taskExists(id) {\n    Task storage task = tasks[id];\n    task.done = !task.done;\n    task.dateComplete = task.done ? now : 0;\n    emit TaskStatusToggled(id, task.done, task.dateComplete);\n  }\n\n  modifier taskExists(uint id) {\n    require(tasks[id].id != 0, 'task does not exist');\n    _;\n  }\n}\n",
  "sourcePath": "/Users/jklepatch/ETB/pro/code/todolist/drizzle-step1/end/contracts/ToDo.sol",
  "compiler": {
    "name": "solc",
    "version": "0.5.0+commit.1d4f565a.Emscripten.clang"
  },
  "schemaVersion": "3.0.5",
  "updatedAt": "2019-03-23T09:07:47.160Z",
  "devdoc": {
    "methods": {}
  },
  "userdoc": {
    "methods": {}
  }
}