{
  "contractName": "MyContract",
  "abi": [
    {
      "constant": true,
      "inputs": [
        {
          "name": "val",
          "type": "uint256"
        }
      ],
      "name": "outerAdd10",
      "outputs": [
        {
          "name": "",
          "type": "uint256"
        }
      ],
      "payable": false,
      "stateMutability": "view",
      "type": "function"
    },
    {
      "constant": false,
      "inputs": [],
      "name": "getInnerVal",
      "outputs": [
        {
          "name": "",
          "type": "uint256"
        }
      ],
      "payable": false,
      "stateMutability": "nonpayable",
      "type": "function"
    },
    {
      "constant": true,
      "inputs": [
        {
          "name": "val",
          "type": "uint256"
        }
      ],
      "name": "innerAdd10",
      "outputs": [
        {
          "name": "",
          "type": "uint256"
        }
      ],
      "payable": false,
      "stateMutability": "view",
      "type": "function"
    }
  ],
  "bytecode": "0x60606040526064600055341561001457600080fd5b610147806100236000396000f300606060405260043610610057576000357c0100000000000000000000000000000000000000000000000000000000900463ffffffff16806305516eda1461005c5780630d2069ad14610093578063a9937b67146100bc575b600080fd5b341561006757600080fd5b61007d60048080359060200190919050506100f3565b6040518082815260200191505060405180910390f35b341561009e57600080fd5b6100a6610105565b6040518082815260200191505060405180910390f35b34156100c757600080fd5b6100dd600480803590602001909190505061010e565b6040518082815260200191505060405180910390f35b60006100fe8261010e565b9050919050565b60008054905090565b6000600a820190509190505600a165627a7a72305820afed8eeacc5fce2aad88ccb72c29fe6102682ef8ea58be66459e5aba06d85cf90029",
  "source": "pragma solidity ^0.4.4;\n\ncontract MyBaseContract {\n  uint innerVal = 100;\n  function innerAdd10(uint val) constant returns (uint) {\n    return val + 10;\n  }\n}\n\ncontract MyContract is MyBaseContract {\n  function outerAdd10(uint val) constant returns (uint) {\n    return MyBaseContract.innerAdd10(val);\n  }\n  \n  function getInnerVal() returns(uint) {\n    return MyBaseContract.innerVal;\n  }\n}\n",
  "sourcePath": "D:\\ETB\\code\\episode6\\contracts\\MyContract.sol",
  "compiler": {
    "name": "solc",
    "version": "0.4.18+commit.9cf6e910.Emscripten.clang"
  },
  "schemaVersion": "1.0.1",
  "updatedAt": "2017-12-18T09:58:35.430Z"
}