{
  "contractName": "Market",
  "abi": [
    {
      "anonymous": false,
      "inputs": [
        {
          "indexed": false,
          "internalType": "address",
          "name": "tokenAddress",
          "type": "address"
        },
        {
          "indexed": false,
          "internalType": "uint256",
          "name": "tokenId",
          "type": "uint256"
        },
        {
          "indexed": false,
          "internalType": "address",
          "name": "seller",
          "type": "address"
        },
        {
          "indexed": false,
          "internalType": "uint256",
          "name": "minBid",
          "type": "uint256"
        },
        {
          "indexed": false,
          "internalType": "enum Market.Categories",
          "name": "category",
          "type": "uint8"
        },
        {
          "indexed": false,
          "internalType": "uint256",
          "name": "endDate",
          "type": "uint256"
        }
      ],
      "name": "AuctionCreated",
      "type": "event"
    },
    {
      "inputs": [
        {
          "internalType": "address",
          "name": "",
          "type": "address"
        },
        {
          "internalType": "uint256",
          "name": "",
          "type": "uint256"
        }
      ],
      "name": "auctions",
      "outputs": [
        {
          "internalType": "address payable",
          "name": "seller",
          "type": "address"
        },
        {
          "internalType": "uint256",
          "name": "minBid",
          "type": "uint256"
        },
        {
          "internalType": "enum Market.Categories",
          "name": "category",
          "type": "uint8"
        },
        {
          "internalType": "uint256",
          "name": "endDate",
          "type": "uint256"
        },
        {
          "internalType": "address payable",
          "name": "highestBidAddress",
          "type": "address"
        },
        {
          "internalType": "uint256",
          "name": "highestBidAmount",
          "type": "uint256"
        }
      ],
      "stateMutability": "view",
      "type": "function",
      "constant": true
    },
    {
      "inputs": [
        {
          "internalType": "address",
          "name": "_tokenAddress",
          "type": "address"
        },
        {
          "internalType": "uint256",
          "name": "_tokenId",
          "type": "uint256"
        },
        {
          "internalType": "uint256",
          "name": "_minBid",
          "type": "uint256"
        },
        {
          "internalType": "enum Market.Categories",
          "name": "_category",
          "type": "uint8"
        }
      ],
      "name": "createAuction",
      "outputs": [],
      "stateMutability": "nonpayable",
      "type": "function"
    },
    {
      "inputs": [
        {
          "internalType": "address",
          "name": "_tokenAddress",
          "type": "address"
        },
        {
          "internalType": "uint256",
          "name": "_tokenId",
          "type": "uint256"
        }
      ],
      "name": "createBid",
      "outputs": [],
      "stateMutability": "payable",
      "type": "function",
      "payable": true
    },
    {
      "inputs": [
        {
          "internalType": "address",
          "name": "_tokenAddress",
          "type": "address"
        },
        {
          "internalType": "uint256",
          "name": "_tokenId",
          "type": "uint256"
        }
      ],
      "name": "closeBid",
      "outputs": [],
      "stateMutability": "nonpayable",
      "type": "function"
    }
  ],
  "bytecode": "0x608060405234801561001057600080fd5b50610d63806100206000396000f3fe60806040526004361061003f5760003560e01c806344f91c1e146100445780635cba50851461010d57806370a7eba91461017f578063e554a5ff146101cd575b600080fd5b34801561005057600080fd5b5061009d6004803603604081101561006757600080fd5b81019080803573ffffffffffffffffffffffffffffffffffffffff16906020019092919080359060200190929190505050610228565b604051808773ffffffffffffffffffffffffffffffffffffffff1681526020018681526020018560028111156100cf57fe5b81526020018481526020018373ffffffffffffffffffffffffffffffffffffffff168152602001828152602001965050505050505060405180910390f35b34801561011957600080fd5b5061017d6004803603608081101561013057600080fd5b81019080803573ffffffffffffffffffffffffffffffffffffffff1690602001909291908035906020019092919080359060200190929190803560ff1690602001909291905050506102be565b005b6101cb6004803603604081101561019557600080fd5b81019080803573ffffffffffffffffffffffffffffffffffffffff169060200190929190803590602001909291905050506105a1565b005b3480156101d957600080fd5b50610226600480360360408110156101f057600080fd5b81019080803573ffffffffffffffffffffffffffffffffffffffff16906020019092919080359060200190929190505050610831565b005b6000602052816000526040600020602052806000526040600020600091509150508060000160009054906101000a900473ffffffffffffffffffffffffffffffffffffffff16908060010154908060020160009054906101000a900460ff16908060030154908060040160009054906101000a900473ffffffffffffffffffffffffffffffffffffffff16908060050154905086565b60008060008673ffffffffffffffffffffffffffffffffffffffff1673ffffffffffffffffffffffffffffffffffffffff16815260200190815260200160002060008581526020019081526020016000209050600081600301541461038b576040517f08c379a00000000000000000000000000000000000000000000000000000000081526004018080602001828103825260158152602001807f61756374696f6e20616c7265616479206578697374000000000000000000000081525060200191505060405180910390fd5b8473ffffffffffffffffffffffffffffffffffffffff166323b872dd3330876040518463ffffffff1660e01b8152600401808473ffffffffffffffffffffffffffffffffffffffff1681526020018373ffffffffffffffffffffffffffffffffffffffff1681526020018281526020019350505050600060405180830381600087803b15801561041a57600080fd5b505af115801561042e573d6000803e3d6000fd5b50505050338160000160006101000a81548173ffffffffffffffffffffffffffffffffffffffff021916908373ffffffffffffffffffffffffffffffffffffffff160217905550828160010181905550818160020160006101000a81548160ff0219169083600281111561049e57fe5b021790555062093a804201816003018190555060008160040160006101000a81548173ffffffffffffffffffffffffffffffffffffffff021916908373ffffffffffffffffffffffffffffffffffffffff160217905550600081600501819055507f050abc0ebf74658b935ac145ee857e8362e87318092a06e5d26de2d122c67415858533868662093a804201604051808773ffffffffffffffffffffffffffffffffffffffff1681526020018681526020018573ffffffffffffffffffffffffffffffffffffffff16815260200184815260200183600281111561057f57fe5b8152602001828152602001965050505050505060405180910390a15050505050565b60008060008473ffffffffffffffffffffffffffffffffffffffff1673ffffffffffffffffffffffffffffffffffffffff1681526020019081526020016000206000838152602001908152602001600020905060008160030154141561066f576040517f08c379a00000000000000000000000000000000000000000000000000000000081526004018080602001828103825260168152602001807f61756374696f6e20646f6573206e6f742065786973740000000000000000000081525060200191505060405180910390fd5b42816003015410156106e9576040517f08c379a00000000000000000000000000000000000000000000000000000000081526004018080602001828103825260138152602001807f61756374696f6e2069732066696e69736865640000000000000000000000000081525060200191505060405180910390fd5b3481600501541080156106ff5750348160010154105b610771576040517f08c379a00000000000000000000000000000000000000000000000000000000081526004018080602001828103825260158152602001807f62696420616d6f756e7420697320746f6f206c6f77000000000000000000000081525060200191505060405180910390fd5b8060040160009054906101000a900473ffffffffffffffffffffffffffffffffffffffff1673ffffffffffffffffffffffffffffffffffffffff166108fc82600501549081150290604051600060405180830381858888f193505050501580156107df573d6000803e3d6000fd5b50338160040160006101000a81548173ffffffffffffffffffffffffffffffffffffffff021916908373ffffffffffffffffffffffffffffffffffffffff160217905550348160050181905550505050565b60008060008473ffffffffffffffffffffffffffffffffffffffff1673ffffffffffffffffffffffffffffffffffffffff168152602001908152602001600020600083815260200190815260200160002090506000816003015414156108ff576040517f08c379a00000000000000000000000000000000000000000000000000000000081526004018080602001828103825260168152602001807f61756374696f6e20646f6573206e6f742065786973740000000000000000000081525060200191505060405180910390fd5b42816003015410610978576040517f08c379a00000000000000000000000000000000000000000000000000000000081526004018080602001828103825260178152602001807f61756374696f6e206973206e6f742066696e697368656400000000000000000081525060200191505060405180910390fd5b600081600501541415610b21578273ffffffffffffffffffffffffffffffffffffffff166323b872dd308360000160009054906101000a900473ffffffffffffffffffffffffffffffffffffffff16856040518463ffffffff1660e01b8152600401808473ffffffffffffffffffffffffffffffffffffffff1681526020018373ffffffffffffffffffffffffffffffffffffffff1681526020018281526020019350505050600060405180830381600087803b158015610a3857600080fd5b505af1158015610a4c573d6000803e3d6000fd5b505050506000808473ffffffffffffffffffffffffffffffffffffffff1673ffffffffffffffffffffffffffffffffffffffff1681526020019081526020016000206000838152602001908152602001600020600080820160006101000a81549073ffffffffffffffffffffffffffffffffffffffff021916905560018201600090556002820160006101000a81549060ff021916905560038201600090556004820160006101000a81549073ffffffffffffffffffffffffffffffffffffffff021916905560058201600090555050610d28565b8060000160009054906101000a900473ffffffffffffffffffffffffffffffffffffffff1673ffffffffffffffffffffffffffffffffffffffff166108fc82600501549081150290604051600060405180830381858888f19350505050158015610b8f573d6000803e3d6000fd5b508273ffffffffffffffffffffffffffffffffffffffff166323b872dd308360040160009054906101000a900473ffffffffffffffffffffffffffffffffffffffff16856040518463ffffffff1660e01b8152600401808473ffffffffffffffffffffffffffffffffffffffff1681526020018373ffffffffffffffffffffffffffffffffffffffff1681526020018281526020019350505050600060405180830381600087803b158015610c4357600080fd5b505af1158015610c57573d6000803e3d6000fd5b505050506000808473ffffffffffffffffffffffffffffffffffffffff1673ffffffffffffffffffffffffffffffffffffffff1681526020019081526020016000206000838152602001908152602001600020600080820160006101000a81549073ffffffffffffffffffffffffffffffffffffffff021916905560018201600090556002820160006101000a81549060ff021916905560038201600090556004820160006101000a81549073ffffffffffffffffffffffffffffffffffffffff0219169055600582016000905550505b50505056fea2646970667358221220dfab54b589f5fead535ca983dccc48d9904483607c4b549dd3dc1e63dea55f6e64736f6c63430007030033",
  "immutableReferences": {},
  "source": "// SPDX-License-Identifier: MIT\npragma solidity ^0.7.3;\n\nimport '@openzeppelin/contracts/token/ERC721/IERC721.sol';\n\ncontract Market {\n  enum Categories {ART, GAME, DEFI}\n  struct Auction {\n    address payable seller;\n    uint minBid;\n    Categories category;\n    uint endDate;\n    address payable highestBidAddress;\n    uint highestBidAmount;\n  }\n  mapping(address => mapping(uint => Auction)) public auctions;\n\n  event AuctionCreated(\n    address tokenAddress,\n    uint tokenId,\n    address seller,\n    uint minBid,\n    Categories category,\n    uint endDate\n  );\n\n  function createAuction(\n    address _tokenAddress, \n    uint _tokenId,\n    uint _minBid, \n    Categories _category\n  ) \n  external \n  {\n    Auction storage auction = auctions[_tokenAddress][_tokenId];\n    require(auction.endDate == 0, 'auction already exist'); \n    IERC721(_tokenAddress).transferFrom(msg.sender, address(this), _tokenId);\n    auction.seller = msg.sender; \n    auction.minBid = _minBid; \n    auction.category = _category; \n    auction.endDate = block.timestamp + 7 * 86400; \n    auction.highestBidAddress = address(0);\n    auction.highestBidAmount = 0;\n\n    emit AuctionCreated({\n      tokenAddress: _tokenAddress,\n      tokenId: _tokenId,\n      seller: msg.sender, \n      minBid: _minBid, \n      category: _category, \n      endDate: block.timestamp + 7 * 86400\n    });\n  }\n\n  function createBid(address _tokenAddress, uint _tokenId) external payable {\n    Auction storage auction = auctions[_tokenAddress][_tokenId];\n    require(auction.endDate != 0, 'auction does not exist');\n    require(auction.endDate >= block.timestamp, 'auction is finished');\n    require(\n      auction.highestBidAmount < msg.value && auction.minBid < msg.value, \n      'bid amount is too low'\n    );\n    //reimburse previous bidder\n    auction.highestBidAddress.transfer(auction.highestBidAmount);\n    auction.highestBidAddress = msg.sender;\n    auction.highestBidAmount = msg.value; \n  }\n\n  function closeBid(address _tokenAddress, uint _tokenId) external {\n    Auction storage auction = auctions[_tokenAddress][_tokenId];\n    require(auction.endDate != 0, 'auction does not exist');\n    require(auction.endDate < block.timestamp, 'auction is not finished');\n    if(auction.highestBidAmount == 0) {\n      //auction failed, no bidder showed up.\n      IERC721(_tokenAddress).transferFrom(address(this), auction.seller, _tokenId);\n      delete auctions[_tokenAddress][_tokenId];\n    } else {\n      //auction succeeded, send money to seller, and token to buyer\n      auction.seller.transfer(auction.highestBidAmount);\n      IERC721(_tokenAddress).transferFrom(address(this), auction.highestBidAddress, _tokenId);\n      delete auctions[_tokenAddress][_tokenId];\n    }\n  }\n}\n",
  "sourcePath": "/Users/jklepatch/ETB/code/screencast/241-nfts-marketplace/contracts/Market.sol",
  "compiler": {
    "name": "solc",
    "version": "0.7.3+commit.9bfce1f6.Emscripten.clang"
  },
  "schemaVersion": "3.2.5",
  "updatedAt": "2020-10-15T07:28:23.075Z",
  "networkType": "ethereum",
  "devdoc": {
    "kind": "dev",
    "methods": {},
    "version": 1
  },
  "userdoc": {
    "kind": "user",
    "methods": {},
    "version": 1
  }
}