{
  "contractName": "NFT",
  "abi": [
    {
      "inputs": [],
      "stateMutability": "nonpayable",
      "type": "constructor"
    },
    {
      "anonymous": false,
      "inputs": [
        {
          "indexed": true,
          "internalType": "address",
          "name": "owner",
          "type": "address"
        },
        {
          "indexed": true,
          "internalType": "address",
          "name": "approved",
          "type": "address"
        },
        {
          "indexed": true,
          "internalType": "uint256",
          "name": "tokenId",
          "type": "uint256"
        }
      ],
      "name": "Approval",
      "type": "event"
    },
    {
      "anonymous": false,
      "inputs": [
        {
          "indexed": true,
          "internalType": "address",
          "name": "owner",
          "type": "address"
        },
        {
          "indexed": true,
          "internalType": "address",
          "name": "operator",
          "type": "address"
        },
        {
          "indexed": false,
          "internalType": "bool",
          "name": "approved",
          "type": "bool"
        }
      ],
      "name": "ApprovalForAll",
      "type": "event"
    },
    {
      "anonymous": false,
      "inputs": [
        {
          "indexed": true,
          "internalType": "address",
          "name": "from",
          "type": "address"
        },
        {
          "indexed": true,
          "internalType": "address",
          "name": "to",
          "type": "address"
        },
        {
          "indexed": true,
          "internalType": "uint256",
          "name": "tokenId",
          "type": "uint256"
        }
      ],
      "name": "Transfer",
      "type": "event"
    },
    {
      "inputs": [],
      "name": "admin",
      "outputs": [
        {
          "internalType": "address",
          "name": "",
          "type": "address"
        }
      ],
      "stateMutability": "view",
      "type": "function",
      "constant": true
    },
    {
      "inputs": [
        {
          "internalType": "address",
          "name": "to",
          "type": "address"
        },
        {
          "internalType": "uint256",
          "name": "tokenId",
          "type": "uint256"
        }
      ],
      "name": "approve",
      "outputs": [],
      "stateMutability": "nonpayable",
      "type": "function"
    },
    {
      "inputs": [
        {
          "internalType": "address",
          "name": "owner",
          "type": "address"
        }
      ],
      "name": "balanceOf",
      "outputs": [
        {
          "internalType": "uint256",
          "name": "",
          "type": "uint256"
        }
      ],
      "stateMutability": "view",
      "type": "function",
      "constant": true
    },
    {
      "inputs": [
        {
          "internalType": "uint256",
          "name": "tokenId",
          "type": "uint256"
        }
      ],
      "name": "getApproved",
      "outputs": [
        {
          "internalType": "address",
          "name": "",
          "type": "address"
        }
      ],
      "stateMutability": "view",
      "type": "function",
      "constant": true
    },
    {
      "inputs": [
        {
          "internalType": "address",
          "name": "owner",
          "type": "address"
        },
        {
          "internalType": "address",
          "name": "operator",
          "type": "address"
        }
      ],
      "name": "isApprovedForAll",
      "outputs": [
        {
          "internalType": "bool",
          "name": "",
          "type": "bool"
        }
      ],
      "stateMutability": "view",
      "type": "function",
      "constant": true
    },
    {
      "inputs": [],
      "name": "name",
      "outputs": [
        {
          "internalType": "string",
          "name": "",
          "type": "string"
        }
      ],
      "stateMutability": "view",
      "type": "function",
      "constant": true
    },
    {
      "inputs": [],
      "name": "nextTokenId",
      "outputs": [
        {
          "internalType": "uint256",
          "name": "",
          "type": "uint256"
        }
      ],
      "stateMutability": "view",
      "type": "function",
      "constant": true
    },
    {
      "inputs": [
        {
          "internalType": "uint256",
          "name": "tokenId",
          "type": "uint256"
        }
      ],
      "name": "ownerOf",
      "outputs": [
        {
          "internalType": "address",
          "name": "",
          "type": "address"
        }
      ],
      "stateMutability": "view",
      "type": "function",
      "constant": true
    },
    {
      "inputs": [
        {
          "internalType": "address",
          "name": "from",
          "type": "address"
        },
        {
          "internalType": "address",
          "name": "to",
          "type": "address"
        },
        {
          "internalType": "uint256",
          "name": "tokenId",
          "type": "uint256"
        }
      ],
      "name": "safeTransferFrom",
      "outputs": [],
      "stateMutability": "nonpayable",
      "type": "function"
    },
    {
      "inputs": [
        {
          "internalType": "address",
          "name": "from",
          "type": "address"
        },
        {
          "internalType": "address",
          "name": "to",
          "type": "address"
        },
        {
          "internalType": "uint256",
          "name": "tokenId",
          "type": "uint256"
        },
        {
          "internalType": "bytes",
          "name": "_data",
          "type": "bytes"
        }
      ],
      "name": "safeTransferFrom",
      "outputs": [],
      "stateMutability": "nonpayable",
      "type": "function"
    },
    {
      "inputs": [
        {
          "internalType": "address",
          "name": "operator",
          "type": "address"
        },
        {
          "internalType": "bool",
          "name": "approved",
          "type": "bool"
        }
      ],
      "name": "setApprovalForAll",
      "outputs": [],
      "stateMutability": "nonpayable",
      "type": "function"
    },
    {
      "inputs": [
        {
          "internalType": "bytes4",
          "name": "interfaceId",
          "type": "bytes4"
        }
      ],
      "name": "supportsInterface",
      "outputs": [
        {
          "internalType": "bool",
          "name": "",
          "type": "bool"
        }
      ],
      "stateMutability": "view",
      "type": "function",
      "constant": true
    },
    {
      "inputs": [],
      "name": "symbol",
      "outputs": [
        {
          "internalType": "string",
          "name": "",
          "type": "string"
        }
      ],
      "stateMutability": "view",
      "type": "function",
      "constant": true
    },
    {
      "inputs": [
        {
          "internalType": "uint256",
          "name": "tokenId",
          "type": "uint256"
        }
      ],
      "name": "tokenURI",
      "outputs": [
        {
          "internalType": "string",
          "name": "",
          "type": "string"
        }
      ],
      "stateMutability": "view",
      "type": "function",
      "constant": true
    },
    {
      "inputs": [
        {
          "internalType": "address",
          "name": "from",
          "type": "address"
        },
        {
          "internalType": "address",
          "name": "to",
          "type": "address"
        },
        {
          "internalType": "uint256",
          "name": "tokenId",
          "type": "uint256"
        }
      ],
      "name": "transferFrom",
      "outputs": [],
      "stateMutability": "nonpayable",
      "type": "function"
    },
    {
      "inputs": [
        {
          "internalType": "address",
          "name": "to",
          "type": "address"
        }
      ],
      "name": "mint",
      "outputs": [],
      "stateMutability": "nonpayable",
      "type": "function"
    }
  ],
  "bytecode": "0x60806040523480156200001157600080fd5b506040518060400160405280600681526020017f4d79204e465400000000000000000000000000000000000000000000000000008152506040518060400160405280600381526020017f4e46540000000000000000000000000000000000000000000000000000000000815250816000908051906020019062000096929190620000f9565b508060019080519060200190620000af929190620000f9565b50505033600760006101000a81548173ffffffffffffffffffffffffffffffffffffffff021916908373ffffffffffffffffffffffffffffffffffffffff1602179055506200020e565b8280546200010790620001a9565b90600052602060002090601f0160209004810192826200012b576000855562000177565b82601f106200014657805160ff191683800117855562000177565b8280016001018555821562000177579182015b828111156200017657825182559160200191906001019062000159565b5b5090506200018691906200018a565b5090565b5b80821115620001a55760008160009055506001016200018b565b5090565b60006002820490506001821680620001c257607f821691505b60208210811415620001d957620001d8620001df565b5b50919050565b7f4e487b7100000000000000000000000000000000000000000000000000000000600052602260045260246000fd5b6127c2806200021e6000396000f3fe608060405234801561001057600080fd5b50600436106101005760003560e01c806370a0823111610097578063b88d4fde11610066578063b88d4fde146102ab578063c87b56dd146102c7578063e985e9c5146102f7578063f851a4401461032757610100565b806370a082311461022357806375794a3c1461025357806395d89b4114610271578063a22cb4651461028f57610100565b806323b872dd116100d357806323b872dd1461019f57806342842e0e146101bb5780636352211e146101d75780636a6278421461020757610100565b806301ffc9a71461010557806306fdde0314610135578063081812fc14610153578063095ea7b314610183575b600080fd5b61011f600480360381019061011a9190611a32565b610345565b60405161012c919061216a565b60405180910390f35b61013d610427565b60405161014a9190612185565b60405180910390f35b61016d60048036038101906101689190611a84565b6104b9565b60405161017a9190612103565b60405180910390f35b61019d600480360381019061019891906119f6565b61053e565b005b6101b960048036038101906101b491906118f0565b610656565b005b6101d560048036038101906101d091906118f0565b6106b6565b005b6101f160048036038101906101ec9190611a84565b6106d6565b6040516101fe9190612103565b60405180910390f35b610221600480360381019061021c919061188b565b610788565b005b61023d6004803603810190610238919061188b565b61083f565b60405161024a9190612387565b60405180910390f35b61025b6108f7565b6040516102689190612387565b60405180910390f35b6102796108fd565b6040516102869190612185565b60405180910390f35b6102a960048036038101906102a491906119ba565b61098f565b005b6102c560048036038101906102c0919061193f565b610b10565b005b6102e160048036038101906102dc9190611a84565b610b72565b6040516102ee9190612185565b60405180910390f35b610311600480360381019061030c91906118b4565b610c19565b60405161031e919061216a565b60405180910390f35b61032f610cad565b60405161033c9190612103565b60405180910390f35b60007f80ac58cd000000000000000000000000000000000000000000000000000000007bffffffffffffffffffffffffffffffffffffffffffffffffffffffff1916827bffffffffffffffffffffffffffffffffffffffffffffffffffffffff1916148061041057507f5b5e139f000000000000000000000000000000000000000000000000000000007bffffffffffffffffffffffffffffffffffffffffffffffffffffffff1916827bffffffffffffffffffffffffffffffffffffffffffffffffffffffff1916145b80610420575061041f82610cd3565b5b9050919050565b606060008054610436906125b7565b80601f0160208091040260200160405190810160405280929190818152602001828054610462906125b7565b80156104af5780601f10610484576101008083540402835291602001916104af565b820191906000526020600020905b81548152906001019060200180831161049257829003601f168201915b5050505050905090565b60006104c482610d3d565b610503576040517f08c379a00000000000000000000000000000000000000000000000000000000081526004016104fa906122e7565b60405180910390fd5b6004600083815260200190815260200160002060009054906101000a900473ffffffffffffffffffffffffffffffffffffffff169050919050565b6000610549826106d6565b90508073ffffffffffffffffffffffffffffffffffffffff168373ffffffffffffffffffffffffffffffffffffffff1614156105ba576040517f08c379a00000000000000000000000000000000000000000000000000000000081526004016105b190612347565b60405180910390fd5b8073ffffffffffffffffffffffffffffffffffffffff166105d9610da9565b73ffffffffffffffffffffffffffffffffffffffff161480610608575061060781610602610da9565b610c19565b5b610647576040517f08c379a000000000000000000000000000000000000000000000000000000000815260040161063e90612267565b60405180910390fd5b6106518383610db1565b505050565b610667610661610da9565b82610e6a565b6106a6576040517f08c379a000000000000000000000000000000000000000000000000000000000815260040161069d90612367565b60405180910390fd5b6106b1838383610f48565b505050565b6106d183838360405180602001604052806000815250610b10565b505050565b6000806002600084815260200190815260200160002060009054906101000a900473ffffffffffffffffffffffffffffffffffffffff169050600073ffffffffffffffffffffffffffffffffffffffff168173ffffffffffffffffffffffffffffffffffffffff16141561077f576040517f08c379a0000000000000000000000000000000000000000000000000000000008152600401610776906122a7565b60405180910390fd5b80915050919050565b600760009054906101000a900473ffffffffffffffffffffffffffffffffffffffff1673ffffffffffffffffffffffffffffffffffffffff163373ffffffffffffffffffffffffffffffffffffffff1614610818576040517f08c379a000000000000000000000000000000000000000000000000000000000815260040161080f90612227565b60405180910390fd5b610824816006546111a4565b60066000815480929190610837906125e9565b919050555050565b60008073ffffffffffffffffffffffffffffffffffffffff168273ffffffffffffffffffffffffffffffffffffffff1614156108b0576040517f08c379a00000000000000000000000000000000000000000000000000000000081526004016108a790612287565b60405180910390fd5b600360008373ffffffffffffffffffffffffffffffffffffffff1673ffffffffffffffffffffffffffffffffffffffff168152602001908152602001600020549050919050565b60065481565b60606001805461090c906125b7565b80601f0160208091040260200160405190810160405280929190818152602001828054610938906125b7565b80156109855780601f1061095a57610100808354040283529160200191610985565b820191906000526020600020905b81548152906001019060200180831161096857829003601f168201915b5050505050905090565b610997610da9565b73ffffffffffffffffffffffffffffffffffffffff168273ffffffffffffffffffffffffffffffffffffffff161415610a05576040517f08c379a00000000000000000000000000000000000000000000000000000000081526004016109fc90612207565b60405180910390fd5b8060056000610a12610da9565b73ffffffffffffffffffffffffffffffffffffffff1673ffffffffffffffffffffffffffffffffffffffff16815260200190815260200160002060008473ffffffffffffffffffffffffffffffffffffffff1673ffffffffffffffffffffffffffffffffffffffff16815260200190815260200160002060006101000a81548160ff0219169083151502179055508173ffffffffffffffffffffffffffffffffffffffff16610abf610da9565b73ffffffffffffffffffffffffffffffffffffffff167f17307eab39ab6107e8899845ad3d59bd9653f200f220920489ca2b5937696c3183604051610b04919061216a565b60405180910390a35050565b610b21610b1b610da9565b83610e6a565b610b60576040517f08c379a0000000000000000000000000000000000000000000000000000000008152600401610b5790612367565b60405180910390fd5b610b6c848484846111c2565b50505050565b6060610b7d82610d3d565b610bbc576040517f08c379a0000000000000000000000000000000000000000000000000000000008152600401610bb390612327565b60405180910390fd5b6000610bc661121e565b90506000815111610be65760405180602001604052806000815250610c11565b80610bf084611235565b604051602001610c019291906120df565b6040516020818303038152906040525b915050919050565b6000600560008473ffffffffffffffffffffffffffffffffffffffff1673ffffffffffffffffffffffffffffffffffffffff16815260200190815260200160002060008373ffffffffffffffffffffffffffffffffffffffff1673ffffffffffffffffffffffffffffffffffffffff16815260200190815260200160002060009054906101000a900460ff16905092915050565b600760009054906101000a900473ffffffffffffffffffffffffffffffffffffffff1681565b60007f01ffc9a7000000000000000000000000000000000000000000000000000000007bffffffffffffffffffffffffffffffffffffffffffffffffffffffff1916827bffffffffffffffffffffffffffffffffffffffffffffffffffffffff1916149050919050565b60008073ffffffffffffffffffffffffffffffffffffffff166002600084815260200190815260200160002060009054906101000a900473ffffffffffffffffffffffffffffffffffffffff1673ffffffffffffffffffffffffffffffffffffffff1614159050919050565b600033905090565b816004600083815260200190815260200160002060006101000a81548173ffffffffffffffffffffffffffffffffffffffff021916908373ffffffffffffffffffffffffffffffffffffffff160217905550808273ffffffffffffffffffffffffffffffffffffffff16610e24836106d6565b73ffffffffffffffffffffffffffffffffffffffff167f8c5be1e5ebec7d5bd14f71427d1e84f3dd0314c0f7b2291e5b200ac8c7c3b92560405160405180910390a45050565b6000610e7582610d3d565b610eb4576040517f08c379a0000000000000000000000000000000000000000000000000000000008152600401610eab90612247565b60405180910390fd5b6000610ebf836106d6565b90508073ffffffffffffffffffffffffffffffffffffffff168473ffffffffffffffffffffffffffffffffffffffff161480610f2e57508373ffffffffffffffffffffffffffffffffffffffff16610f16846104b9565b73ffffffffffffffffffffffffffffffffffffffff16145b80610f3f5750610f3e8185610c19565b5b91505092915050565b8273ffffffffffffffffffffffffffffffffffffffff16610f68826106d6565b73ffffffffffffffffffffffffffffffffffffffff1614610fbe576040517f08c379a0000000000000000000000000000000000000000000000000000000008152600401610fb590612307565b60405180910390fd5b600073ffffffffffffffffffffffffffffffffffffffff168273ffffffffffffffffffffffffffffffffffffffff16141561102e576040517f08c379a0000000000000000000000000000000000000000000000000000000008152600401611025906121e7565b60405180910390fd5b6110398383836113e2565b611044600082610db1565b6001600360008573ffffffffffffffffffffffffffffffffffffffff1673ffffffffffffffffffffffffffffffffffffffff168152602001908152602001600020600082825461109491906124cd565b925050819055506001600360008473ffffffffffffffffffffffffffffffffffffffff1673ffffffffffffffffffffffffffffffffffffffff16815260200190815260200160002060008282546110eb9190612446565b92505081905550816002600083815260200190815260200160002060006101000a81548173ffffffffffffffffffffffffffffffffffffffff021916908373ffffffffffffffffffffffffffffffffffffffff160217905550808273ffffffffffffffffffffffffffffffffffffffff168473ffffffffffffffffffffffffffffffffffffffff167fddf252ad1be2c89b69c2b068fc378daa952ba7f163c4a11628f55a4df523b3ef60405160405180910390a4505050565b6111be8282604051806020016040528060008152506113e7565b5050565b6111cd848484610f48565b6111d984848484611442565b611218576040517f08c379a000000000000000000000000000000000000000000000000000000000815260040161120f906121a7565b60405180910390fd5b50505050565b606060405180602001604052806000815250905090565b6060600082141561127d576040518060400160405280600181526020017f300000000000000000000000000000000000000000000000000000000000000081525090506113dd565b600082905060005b600082146112af578080611298906125e9565b915050600a826112a8919061249c565b9150611285565b60008167ffffffffffffffff8111156112f1577f4e487b7100000000000000000000000000000000000000000000000000000000600052604160045260246000fd5b6040519080825280601f01601f1916602001820160405280156113235781602001600182028036833780820191505090505b5090505b600085146113d65760018261133c91906124cd565b9150600a8561134b9190612632565b60306113579190612446565b60f81b818381518110611393577f4e487b7100000000000000000000000000000000000000000000000000000000600052603260045260246000fd5b60200101907effffffffffffffffffffffffffffffffffffffffffffffffffffffffffffff1916908160001a905350600a856113cf919061249c565b9450611327565b8093505050505b919050565b505050565b6113f183836115d9565b6113fe6000848484611442565b61143d576040517f08c379a0000000000000000000000000000000000000000000000000000000008152600401611434906121a7565b60405180910390fd5b505050565b60006114638473ffffffffffffffffffffffffffffffffffffffff166117a7565b156115cc578373ffffffffffffffffffffffffffffffffffffffff1663150b7a0261148c610da9565b8786866040518563ffffffff1660e01b81526004016114ae949392919061211e565b602060405180830381600087803b1580156114c857600080fd5b505af19250505080156114f957506040513d601f19601f820116820180604052508101906114f69190611a5b565b60015b61157c573d8060008114611529576040519150601f19603f3d011682016040523d82523d6000602084013e61152e565b606091505b50600081511415611574576040517f08c379a000000000000000000000000000000000000000000000000000000000815260040161156b906121a7565b60405180910390fd5b805181602001fd5b63150b7a0260e01b7bffffffffffffffffffffffffffffffffffffffffffffffffffffffff1916817bffffffffffffffffffffffffffffffffffffffffffffffffffffffff1916149150506115d1565b600190505b949350505050565b600073ffffffffffffffffffffffffffffffffffffffff168273ffffffffffffffffffffffffffffffffffffffff161415611649576040517f08c379a0000000000000000000000000000000000000000000000000000000008152600401611640906122c7565b60405180910390fd5b61165281610d3d565b15611692576040517f08c379a0000000000000000000000000000000000000000000000000000000008152600401611689906121c7565b60405180910390fd5b61169e600083836113e2565b6001600360008473ffffffffffffffffffffffffffffffffffffffff1673ffffffffffffffffffffffffffffffffffffffff16815260200190815260200160002060008282546116ee9190612446565b92505081905550816002600083815260200190815260200160002060006101000a81548173ffffffffffffffffffffffffffffffffffffffff021916908373ffffffffffffffffffffffffffffffffffffffff160217905550808273ffffffffffffffffffffffffffffffffffffffff16600073ffffffffffffffffffffffffffffffffffffffff167fddf252ad1be2c89b69c2b068fc378daa952ba7f163c4a11628f55a4df523b3ef60405160405180910390a45050565b600080823b905060008111915050919050565b60006117cd6117c8846123d3565b6123a2565b9050828152602081018484840111156117e557600080fd5b6117f0848285612575565b509392505050565b60008135905061180781612730565b92915050565b60008135905061181c81612747565b92915050565b6000813590506118318161275e565b92915050565b6000815190506118468161275e565b92915050565b600082601f83011261185d57600080fd5b813561186d8482602086016117ba565b91505092915050565b60008135905061188581612775565b92915050565b60006020828403121561189d57600080fd5b60006118ab848285016117f8565b91505092915050565b600080604083850312156118c757600080fd5b60006118d5858286016117f8565b92505060206118e6858286016117f8565b9150509250929050565b60008060006060848603121561190557600080fd5b6000611913868287016117f8565b9350506020611924868287016117f8565b925050604061193586828701611876565b9150509250925092565b6000806000806080858703121561195557600080fd5b6000611963878288016117f8565b9450506020611974878288016117f8565b935050604061198587828801611876565b925050606085013567ffffffffffffffff8111156119a257600080fd5b6119ae8782880161184c565b91505092959194509250565b600080604083850312156119cd57600080fd5b60006119db858286016117f8565b92505060206119ec8582860161180d565b9150509250929050565b60008060408385031215611a0957600080fd5b6000611a17858286016117f8565b9250506020611a2885828601611876565b9150509250929050565b600060208284031215611a4457600080fd5b6000611a5284828501611822565b91505092915050565b600060208284031215611a6d57600080fd5b6000611a7b84828501611837565b91505092915050565b600060208284031215611a9657600080fd5b6000611aa484828501611876565b91505092915050565b611ab681612501565b82525050565b611ac581612513565b82525050565b6000611ad682612403565b611ae08185612419565b9350611af0818560208601612584565b611af98161271f565b840191505092915050565b6000611b0f8261240e565b611b19818561242a565b9350611b29818560208601612584565b611b328161271f565b840191505092915050565b6000611b488261240e565b611b52818561243b565b9350611b62818560208601612584565b80840191505092915050565b6000611b7b60328361242a565b91507f4552433732313a207472616e7366657220746f206e6f6e20455243373231526560008301527f63656976657220696d706c656d656e74657200000000000000000000000000006020830152604082019050919050565b6000611be1601c8361242a565b91507f4552433732313a20746f6b656e20616c7265616479206d696e746564000000006000830152602082019050919050565b6000611c2160248361242a565b91507f4552433732313a207472616e7366657220746f20746865207a65726f2061646460008301527f72657373000000000000000000000000000000000000000000000000000000006020830152604082019050919050565b6000611c8760198361242a565b91507f4552433732313a20617070726f766520746f2063616c6c6572000000000000006000830152602082019050919050565b6000611cc7600a8361242a565b91507f6f6e6c792061646d696e000000000000000000000000000000000000000000006000830152602082019050919050565b6000611d07602c8361242a565b91507f4552433732313a206f70657261746f7220717565727920666f72206e6f6e657860008301527f697374656e7420746f6b656e00000000000000000000000000000000000000006020830152604082019050919050565b6000611d6d60388361242a565b91507f4552433732313a20617070726f76652063616c6c6572206973206e6f74206f7760008301527f6e6572206e6f7220617070726f76656420666f7220616c6c00000000000000006020830152604082019050919050565b6000611dd3602a8361242a565b91507f4552433732313a2062616c616e636520717565727920666f7220746865207a6560008301527f726f2061646472657373000000000000000000000000000000000000000000006020830152604082019050919050565b6000611e3960298361242a565b91507f4552433732313a206f776e657220717565727920666f72206e6f6e657869737460008301527f656e7420746f6b656e00000000000000000000000000000000000000000000006020830152604082019050919050565b6000611e9f60208361242a565b91507f4552433732313a206d696e7420746f20746865207a65726f20616464726573736000830152602082019050919050565b6000611edf602c8361242a565b91507f4552433732313a20617070726f76656420717565727920666f72206e6f6e657860008301527f697374656e7420746f6b656e00000000000000000000000000000000000000006020830152604082019050919050565b6000611f4560298361242a565b91507f4552433732313a207472616e73666572206f6620746f6b656e2074686174206960008301527f73206e6f74206f776e00000000000000000000000000000000000000000000006020830152604082019050919050565b6000611fab602f8361242a565b91507f4552433732314d657461646174613a2055524920717565727920666f72206e6f60008301527f6e6578697374656e7420746f6b656e00000000000000000000000000000000006020830152604082019050919050565b600061201160218361242a565b91507f4552433732313a20617070726f76616c20746f2063757272656e74206f776e6560008301527f72000000000000000000000000000000000000000000000000000000000000006020830152604082019050919050565b600061207760318361242a565b91507f4552433732313a207472616e736665722063616c6c6572206973206e6f74206f60008301527f776e6572206e6f7220617070726f7665640000000000000000000000000000006020830152604082019050919050565b6120d98161256b565b82525050565b60006120eb8285611b3d565b91506120f78284611b3d565b91508190509392505050565b60006020820190506121186000830184611aad565b92915050565b60006080820190506121336000830187611aad565b6121406020830186611aad565b61214d60408301856120d0565b818103606083015261215f8184611acb565b905095945050505050565b600060208201905061217f6000830184611abc565b92915050565b6000602082019050818103600083015261219f8184611b04565b905092915050565b600060208201905081810360008301526121c081611b6e565b9050919050565b600060208201905081810360008301526121e081611bd4565b9050919050565b6000602082019050818103600083015261220081611c14565b9050919050565b6000602082019050818103600083015261222081611c7a565b9050919050565b6000602082019050818103600083015261224081611cba565b9050919050565b6000602082019050818103600083015261226081611cfa565b9050919050565b6000602082019050818103600083015261228081611d60565b9050919050565b600060208201905081810360008301526122a081611dc6565b9050919050565b600060208201905081810360008301526122c081611e2c565b9050919050565b600060208201905081810360008301526122e081611e92565b9050919050565b6000602082019050818103600083015261230081611ed2565b9050919050565b6000602082019050818103600083015261232081611f38565b9050919050565b6000602082019050818103600083015261234081611f9e565b9050919050565b6000602082019050818103600083015261236081612004565b9050919050565b600060208201905081810360008301526123808161206a565b9050919050565b600060208201905061239c60008301846120d0565b92915050565b6000604051905081810181811067ffffffffffffffff821117156123c9576123c86126f0565b5b8060405250919050565b600067ffffffffffffffff8211156123ee576123ed6126f0565b5b601f19601f8301169050602081019050919050565b600081519050919050565b600081519050919050565b600082825260208201905092915050565b600082825260208201905092915050565b600081905092915050565b60006124518261256b565b915061245c8361256b565b9250827fffffffffffffffffffffffffffffffffffffffffffffffffffffffffffffffff0382111561249157612490612663565b5b828201905092915050565b60006124a78261256b565b91506124b28361256b565b9250826124c2576124c1612692565b5b828204905092915050565b60006124d88261256b565b91506124e38361256b565b9250828210156124f6576124f5612663565b5b828203905092915050565b600061250c8261254b565b9050919050565b60008115159050919050565b60007fffffffff0000000000000000000000000000000000000000000000000000000082169050919050565b600073ffffffffffffffffffffffffffffffffffffffff82169050919050565b6000819050919050565b82818337600083830152505050565b60005b838110156125a2578082015181840152602081019050612587565b838111156125b1576000848401525b50505050565b600060028204905060018216806125cf57607f821691505b602082108114156125e3576125e26126c1565b5b50919050565b60006125f48261256b565b91507fffffffffffffffffffffffffffffffffffffffffffffffffffffffffffffffff82141561262757612626612663565b5b600182019050919050565b600061263d8261256b565b91506126488361256b565b92508261265857612657612692565b5b828206905092915050565b7f4e487b7100000000000000000000000000000000000000000000000000000000600052601160045260246000fd5b7f4e487b7100000000000000000000000000000000000000000000000000000000600052601260045260246000fd5b7f4e487b7100000000000000000000000000000000000000000000000000000000600052602260045260246000fd5b7f4e487b7100000000000000000000000000000000000000000000000000000000600052604160045260246000fd5b6000601f19601f8301169050919050565b61273981612501565b811461274457600080fd5b50565b61275081612513565b811461275b57600080fd5b50565b6127678161251f565b811461277257600080fd5b50565b61277e8161256b565b811461278957600080fd5b5056fea264697066735822122022cf51ceff2f40bfc002f7f55a116a5a4a00302a3f39e774c534fd5bd3e17f2a64736f6c63430008000033",
  "immutableReferences": {},
  "source": "pragma solidity ^0.8.0;\n\nimport '@openzeppelin/contracts/token/ERC721/ERC721.sol';\n\ncontract NFT is ERC721 {\n  uint public nextTokenId;\n  address public admin;\n\n  constructor() ERC721('My NFT', 'NFT') {\n    admin = msg.sender;\n  }\n\n  function mint(address to) external {\n    require(msg.sender == admin, 'only admin');\n    _safeMint(to, nextTokenId);\n    nextTokenId++;\n  }\n\n  function _baseURI() internal view override returns (string memory) {\n    return '';\n  }\n\n}\n",
  "sourcePath": "/Users/jklepatch/ETB/code/screencast/318-create-nft/contracts/NFT.sol",
  "compiler": {
    "name": "solc",
    "version": "0.8.0+commit.c7dfd78e.Emscripten.clang"
  },
  "schemaVersion": "3.3.3",
  "updatedAt": "2021-03-27T12:08:03.222Z",
  "networkType": "ethereum",
  "devdoc": {
    "kind": "dev",
    "methods": {
      "approve(address,uint256)": {
        "details": "See {IERC721-approve}."
      },
      "balanceOf(address)": {
        "details": "See {IERC721-balanceOf}."
      },
      "getApproved(uint256)": {
        "details": "See {IERC721-getApproved}."
      },
      "isApprovedForAll(address,address)": {
        "details": "See {IERC721-isApprovedForAll}."
      },
      "name()": {
        "details": "See {IERC721Metadata-name}."
      },
      "ownerOf(uint256)": {
        "details": "See {IERC721-ownerOf}."
      },
      "safeTransferFrom(address,address,uint256)": {
        "details": "See {IERC721-safeTransferFrom}."
      },
      "safeTransferFrom(address,address,uint256,bytes)": {
        "details": "See {IERC721-safeTransferFrom}."
      },
      "setApprovalForAll(address,bool)": {
        "details": "See {IERC721-setApprovalForAll}."
      },
      "supportsInterface(bytes4)": {
        "details": "See {IERC165-supportsInterface}."
      },
      "symbol()": {
        "details": "See {IERC721Metadata-symbol}."
      },
      "tokenURI(uint256)": {
        "details": "See {IERC721Metadata-tokenURI}."
      },
      "transferFrom(address,address,uint256)": {
        "details": "See {IERC721-transferFrom}."
      }
    },
    "version": 1
  },
  "userdoc": {
    "kind": "user",
    "methods": {},
    "version": 1
  }
}