{
  "contractName": "Bet",
  "abi": [
    {
      "constant": false,
      "inputs": [
        {
          "name": "ppl1",
          "type": "address"
        },
        {
          "name": "ppl2",
          "type": "address"
        }
      ],
      "name": "betForThreePeople",
      "outputs": [],
      "payable": false,
      "stateMutability": "nonpayable",
      "type": "function"
    },
    {
      "inputs": [
        {
          "name": "_betType",
          "type": "uint256"
        }
      ],
      "payable": false,
      "stateMutability": "nonpayable",
      "type": "constructor"
    }
  ],
  "bytecode": "0x6060604052341561000f57600080fd5b60405160208061011a83398101604052808051906020019091905050806000819055505060d9806100416000396000f300606060405260043610603f576000357c0100000000000000000000000000000000000000000000000000000000900463ffffffff168063fd3d2cdc146044575b600080fd5b3415604e57600080fd5b6097600480803573ffffffffffffffffffffffffffffffffffffffff1690602001909190803573ffffffffffffffffffffffffffffffffffffffff169060200190919050506099565b005b600160005414151560a957600080fd5b50505600a165627a7a7230582074ba4910e36b1925675464761086cd8c35dfb7c5f76d91e5a4f63b2af40092280029",
  "source": "pragma solidity ^0.4.4;\n\ncontract Bet {\n  uint betType;\n\n  function Bet(uint _betType) {\n    betType = _betType;\n  }\n\n  function betForThreePeople(address ppl1, address ppl2) isBetForTwoPeople() {\n    //Perform bet here\n  }\n\n  modifier isBetForTwoPeople() {\n    require(betType == 1);\n    _;\n  }\n}\n\ncontract MyBet is Bet {\n\n  function MyBet(uint _betType) public Bet(_betType) {\n    //do other things\n  }\n\n  function whatsMyBetType() returns(uint) {\n    return Bet.betType;\n  }\n}\n",
  "sourcePath": "D:\\ETB\\code\\episode8\\contracts\\MyContract.sol",
  "compiler": {
    "name": "solc",
    "version": "0.4.18+commit.9cf6e910.Emscripten.clang"
  },
  "schemaVersion": "1.0.1",
  "updatedAt": "2018-01-07T11:34:34.170Z"
}