{
  "contractName": "MyContract",
  "abi": [
    {
      "constant": true,
      "inputs": [],
      "name": "callBaz",
      "outputs": [
        {
          "name": "",
          "type": "uint256"
        }
      ],
      "payable": false,
      "stateMutability": "view",
      "type": "function"
    },
    {
      "inputs": [],
      "payable": false,
      "stateMutability": "view",
      "type": "function",
      "constant": true,
      "name": "callFoo",
      "outputs": [
        {
          "name": "",
          "type": "uint256"
        }
      ]
    },
    {
      "constant": false,
      "inputs": [],
      "name": "baz",
      "outputs": [
        {
          "name": "",
          "type": "uint256"
        }
      ],
      "payable": false,
      "stateMutability": "nonpayable",
      "type": "function"
    },
    {
      "constant": true,
      "inputs": [],
      "name": "callBar",
      "outputs": [
        {
          "name": "",
          "type": "uint256"
        }
      ],
      "payable": false,
      "stateMutability": "view",
      "type": "function"
    },
    {
      "constant": false,
      "inputs": [],
      "name": "foo",
      "outputs": [
        {
          "name": "",
          "type": "uint256"
        }
      ],
      "payable": false,
      "stateMutability": "nonpayable",
      "type": "function"
    },
    {
      "constant": false,
      "inputs": [],
      "name": "bar",
      "outputs": [
        {
          "name": "",
          "type": "uint256"
        }
      ],
      "payable": false,
      "stateMutability": "nonpayable",
      "type": "function"
    }
  ],
  "bytecode": "0x6060604052600080556001805560028055341561001b57600080fd5b6101f88061002a6000396000f300606060405260043610610078576000357c0100000000000000000000000000000000000000000000000000000000900463ffffffff168063255ff2131461007d5780636085f0e9146100a6578063a7916fac146100cf578063acffee6b146100f8578063c298557814610121578063febb0f7e1461014a575b600080fd5b341561008857600080fd5b610090610173565b6040518082815260200191505060405180910390f35b34156100b157600080fd5b6100b9610182565b6040518082815260200191505060405180910390f35b34156100da57600080fd5b6100e2610191565b6040518082815260200191505060405180910390f35b341561010357600080fd5b61010b61019b565b6040518082815260200191505060405180910390f35b341561012c57600080fd5b6101346101aa565b6040518082815260200191505060405180910390f35b341561015557600080fd5b61015d6101b3565b6040518082815260200191505060405180910390f35b600061017d610191565b905090565b600061018c6101aa565b905090565b6000600254905090565b60006101a56101b3565b905090565b60008054905090565b60006101bd6101c2565b905090565b60006001549050905600a165627a7a72305820b4cd79b3de2678e929a0519ba6de2da986d6f8f3b4465d6a7bb62acc3b20c0c30029",
  "source": "pragma solidity ^0.4.4;\n\ncontract Parent {\n  uint contractType = 0;\n\n  function foo() returns(uint) {\n    return contractType;\n  }\n\n  function bar() returns(uint) {\n    return contractType;\n  }\n\n  function baz() returns(uint) {\n    return contractType;\n  }\n}\n\ncontract Kid1 is Parent {\n  uint contractType = 1;\n\n  function bar() returns(uint) {\n    return contractType;\n  }\n\n  function baz() returns(uint) {\n    return contractType;\n  }\n}\n\ncontract Kid2 is Parent {\n  uint contractType = 2;\n  function bar() returns(uint) {\n    return super.bar();\n  }\n  function baz() returns(uint) {\n    return contractType;\n  }\n}\n\ncontract MyContract is Kid1, Kid2 {\n  function callFoo() constant returns(uint) {\n    return foo();\n  }\n\n  function callBar() constant returns(uint) {\n    return bar();\n  }\n\n  function callBaz() constant returns(uint) {\n    return baz();\n  }\n}\n",
  "sourcePath": "D:\\ETB\\code\\episode9\\contracts\\MyContract.sol",
  "compiler": {
    "name": "solc",
    "version": "0.4.18+commit.9cf6e910.Emscripten.clang"
  },
  "schemaVersion": "1.0.1",
  "updatedAt": "2018-01-07T11:34:34.228Z"
}