{
  "contractName": "PredictionMarket",
  "abi": [
    {
      "inputs": [
        {
          "internalType": "address",
          "name": "_oracle",
          "type": "address"
        }
      ],
      "stateMutability": "nonpayable",
      "type": "constructor"
    },
    {
      "inputs": [
        {
          "internalType": "enum PredictionMarket.Side",
          "name": "",
          "type": "uint8"
        }
      ],
      "name": "bets",
      "outputs": [
        {
          "internalType": "uint256",
          "name": "",
          "type": "uint256"
        }
      ],
      "stateMutability": "view",
      "type": "function",
      "constant": true
    },
    {
      "inputs": [
        {
          "internalType": "address",
          "name": "",
          "type": "address"
        },
        {
          "internalType": "enum PredictionMarket.Side",
          "name": "",
          "type": "uint8"
        }
      ],
      "name": "betsPerGambler",
      "outputs": [
        {
          "internalType": "uint256",
          "name": "",
          "type": "uint256"
        }
      ],
      "stateMutability": "view",
      "type": "function",
      "constant": true
    },
    {
      "inputs": [],
      "name": "oracle",
      "outputs": [
        {
          "internalType": "address",
          "name": "",
          "type": "address"
        }
      ],
      "stateMutability": "view",
      "type": "function",
      "constant": true
    },
    {
      "inputs": [
        {
          "internalType": "enum PredictionMarket.Side",
          "name": "_side",
          "type": "uint8"
        }
      ],
      "name": "placeBet",
      "outputs": [],
      "stateMutability": "payable",
      "type": "function",
      "payable": true
    },
    {
      "inputs": [],
      "name": "withdrawGain",
      "outputs": [],
      "stateMutability": "nonpayable",
      "type": "function"
    },
    {
      "inputs": [
        {
          "internalType": "enum PredictionMarket.Side",
          "name": "_winner",
          "type": "uint8"
        },
        {
          "internalType": "enum PredictionMarket.Side",
          "name": "_loser",
          "type": "uint8"
        }
      ],
      "name": "reportResult",
      "outputs": [],
      "stateMutability": "nonpayable",
      "type": "function"
    }
  ],
  "bytecode": "0x608060405234801561001057600080fd5b506040516108a63803806108a68339818101604052602081101561003357600080fd5b810190808051906020019092919050505080600460006101000a81548173ffffffffffffffffffffffffffffffffffffffff021916908373ffffffffffffffffffffffffffffffffffffffff16021790555050610811806100956000396000f3fe6080604052600436106100555760003560e01c80632b539c861461005a57806343046844146100715780634ec942b7146100a25780637dc0d1d0146100ed5780637e0ecc001461012e5780639d5a373914610180575b600080fd5b34801561006657600080fd5b5061006f6101f2565b005b6100a06004803603602081101561008757600080fd5b81019080803560ff169060200190929190505050610516565b005b3480156100ae57600080fd5b506100eb600480360360408110156100c557600080fd5b81019080803560ff169060200190929190803560ff16906020019092919050505061064d565b005b3480156100f957600080fd5b50610102610778565b604051808273ffffffffffffffffffffffffffffffffffffffff16815260200191505060405180910390f35b34801561013a57600080fd5b5061016a6004803603602081101561015157600080fd5b81019080803560ff16906020019092919050505061079e565b6040518082815260200191505060405180910390f35b34801561018c57600080fd5b506101dc600480360360408110156101a357600080fd5b81019080803573ffffffffffffffffffffffffffffffffffffffff169060200190929190803560ff1690602001909291905050506107b6565b6040518082815260200191505060405180910390f35b6000600360003373ffffffffffffffffffffffffffffffffffffffff1673ffffffffffffffffffffffffffffffffffffffff16815260200190815260200160002060008060000160009054906101000a900460ff16600181111561025257fe5b600181111561025d57fe5b8152602001908152602001600020549050600081116102e4576040517f08c379a000000000000000000000000000000000000000000000000000000000815260040180806020018281038252601f8152602001807f796f7520646f206e6f74206861766520616e792077696e6e696e67206265740081525060200191505060405180910390fd5b60011515600160009054906101000a900460ff1615151461036d576040517f08c379a00000000000000000000000000000000000000000000000000000000081526004018080602001828103825260198152602001807f656c656374696f6e206e6f742066696e6973686564207965740000000000000081525060200191505060405180910390fd5b6000600260008060000160009054906101000a900460ff16600181111561039057fe5b600181111561039b57fe5b81526020019081526020016000205482600260008060000160019054906101000a900460ff1660018111156103cc57fe5b60018111156103d757fe5b81526020019081526020016000205402816103ee57fe5b04820190506000600360003373ffffffffffffffffffffffffffffffffffffffff1673ffffffffffffffffffffffffffffffffffffffff168152602001908152602001600020600080600181111561044257fe5b600181111561044d57fe5b8152602001908152602001600020819055506000600360003373ffffffffffffffffffffffffffffffffffffffff1673ffffffffffffffffffffffffffffffffffffffff16815260200190815260200160002060006001808111156104ae57fe5b60018111156104b957fe5b8152602001908152602001600020819055503373ffffffffffffffffffffffffffffffffffffffff166108fc829081150290604051600060405180830381858888f19350505050158015610511573d6000803e3d6000fd5b505050565b60001515600160009054906101000a900460ff1615151461059f576040517f08c379a00000000000000000000000000000000000000000000000000000000081526004018080602001828103825260148152602001807f656c656374696f6e2069732066696e697368656400000000000000000000000081525060200191505060405180910390fd5b34600260008360018111156105b057fe5b60018111156105bb57fe5b81526020019081526020016000206000828254019250508190555034600360003373ffffffffffffffffffffffffffffffffffffffff1673ffffffffffffffffffffffffffffffffffffffff168152602001908152602001600020600083600181111561062457fe5b600181111561062f57fe5b81526020019081526020016000206000828254019250508190555050565b3373ffffffffffffffffffffffffffffffffffffffff16600460009054906101000a900473ffffffffffffffffffffffffffffffffffffffff1673ffffffffffffffffffffffffffffffffffffffff1614610710576040517f08c379a000000000000000000000000000000000000000000000000000000000815260040180806020018281038252600b8152602001807f6f6e6c79206f7261636c6500000000000000000000000000000000000000000081525060200191505060405180910390fd5b816000800160006101000a81548160ff0219169083600181111561073057fe5b0217905550806000800160016101000a81548160ff0219169083600181111561075557fe5b021790555060018060006101000a81548160ff0219169083151502179055505050565b600460009054906101000a900473ffffffffffffffffffffffffffffffffffffffff1681565b60026020528060005260406000206000915090505481565b600360205281600052604060002060205280600052604060002060009150915050548156fea264697066735822122011e9fe2dbd93ed653717e23c478e1dda5c01b2a6235dff994beaa4715c1cec3d64736f6c63430007030033",
  "immutableReferences": {},
  "source": "pragma solidity ^0.7.3;\n\ncontract PredictionMarket {\n  enum Side { Biden, Trump }\n  struct Result {\n    Side winner;\n    Side loser;\n  }\n  Result result;\n  bool electionFinished;\n\n  mapping(Side => uint) public bets;\n  mapping(address => mapping(Side => uint)) public betsPerGambler;\n  address public oracle;\n\n  constructor(address _oracle) {\n    oracle = _oracle; \n  }\n\n  function placeBet(Side _side) external payable {\n    require(electionFinished == false, 'election is finished');\n    bets[_side] += msg.value;\n    betsPerGambler[msg.sender][_side] += msg.value;\n  }\n\n  function withdrawGain() external {\n    uint gamblerBet = betsPerGambler[msg.sender][result.winner];\n    require(gamblerBet > 0, 'you do not have any winning bet');  \n    require(electionFinished == true, 'election not finished yet');\n    uint gain = gamblerBet + bets[result.loser] * gamblerBet / bets[result.winner];\n    betsPerGambler[msg.sender][Side.Biden] = 0;\n    betsPerGambler[msg.sender][Side.Trump] = 0;\n    msg.sender.transfer(gain);\n  }\n\n  function reportResult(Side _winner, Side _loser) external {\n    require(oracle == msg.sender, 'only oracle');\n    result.winner = _winner;\n    result.loser = _loser;\n    electionFinished = true;\n  }\n}\n",
  "sourcePath": "/Users/jklepatch/ETB/code/screencast/244-prediction-market-us-elections/contracts/PredictionMarket.sol",
  "compiler": {
    "name": "solc",
    "version": "0.7.3+commit.9bfce1f6.Emscripten.clang"
  },
  "schemaVersion": "3.3.1",
  "updatedAt": "2020-10-20T17:19:28.897Z",
  "networkType": "ethereum",
  "devdoc": {
    "kind": "dev",
    "methods": {},
    "version": 1
  },
  "userdoc": {
    "kind": "user",
    "methods": {},
    "version": 1
  }
}