{
  "contractName": "ToDo",
  "abi": [
    {
      "constant": true,
      "inputs": [],
      "name": "getTasks",
      "outputs": [
        {
          "components": [
            {
              "name": "id",
              "type": "uint256"
            },
            {
              "name": "date",
              "type": "uint256"
            },
            {
              "name": "content",
              "type": "string"
            },
            {
              "name": "author",
              "type": "string"
            },
            {
              "name": "done",
              "type": "bool"
            }
          ],
          "name": "",
          "type": "tuple[]"
        }
      ],
      "payable": false,
      "stateMutability": "view",
      "type": "function"
    },
    {
      "constant": true,
      "inputs": [
        {
          "name": "id",
          "type": "uint256"
        }
      ],
      "name": "getTask",
      "outputs": [
        {
          "name": "",
          "type": "uint256"
        },
        {
          "name": "",
          "type": "uint256"
        },
        {
          "name": "",
          "type": "string"
        },
        {
          "name": "",
          "type": "string"
        },
        {
          "name": "",
          "type": "bool"
        }
      ],
      "payable": false,
      "stateMutability": "view",
      "type": "function"
    },
    {
      "constant": false,
      "inputs": [
        {
          "name": "_content",
          "type": "string"
        },
        {
          "name": "_author",
          "type": "string"
        }
      ],
      "name": "createTask",
      "outputs": [],
      "payable": false,
      "stateMutability": "nonpayable",
      "type": "function"
    }
  ],
  "bytecode": "0x6060604052341561000f57600080fd5b6108ef8061001e6000396000f300606060405260043610610057576000357c0100000000000000000000000000000000000000000000000000000000900463ffffffff16806304a87e381461005c5780631d65e77e146100c1578063292a4585146101e2575b600080fd5b341561006757600080fd5b61006f610282565b60405180806020018281038252838181518152602001915080516000925b818410156100b0578284906020019060200201518152602001926001019261008d565b925050509250505060405180910390f35b34156100cc57600080fd5b6100e2600480803590602001909190505061045b565b60405180868152602001858152602001806020018060200184151515158152602001838103835286818151815260200191508051906020019080838360005b8381101561013c578082015181840152602081019050610121565b50505050905090810190601f1680156101695780820380516001836020036101000a031916815260200191505b50838103825285818151815260200191508051906020019080838360005b838110156101a2578082015181840152602081019050610187565b50505050905090810190601f1680156101cf5780820380516001836020036101000a031916815260200191505b5097505050505050505060405180910390f35b34156101ed57600080fd5b610280600480803590602001908201803590602001908080601f0160208091040260200160405190810160405280939291908181526020018383808284378201915050505050509190803590602001908201803590602001908080601f0160208091040260200160405190810160405280939291908181526020018383808284378201915050505050509190505061064b565b005b61028a610719565b6000805480602002602001604051908101604052809291908181526020016000905b82821015610452578382906000526020600020906005020160a060405190810160405290816000820154815260200160018201548152602001600282018054600181600116156101000203166002900480601f01602080910402602001604051908101604052809291908181526020018280546001816001161561010002031660029004801561037d5780601f106103525761010080835404028352916020019161037d565b820191906000526020600020905b81548152906001019060200180831161036057829003601f168201915b50505050508152602001600382018054600181600116156101000203166002900480601f01602080910402602001604051908101604052809291908181526020018280546001816001161561010002031660029004801561041f5780601f106103f45761010080835404028352916020019161041f565b820191906000526020600020905b81548152906001019060200180831161040257829003601f168201915b505050505081526020016004820160009054906101000a900460ff161515151581525050815260200190600101906102ac565b50505050905090565b60008061046661072d565b61046e61072d565b60008560008781548110151561048057fe5b9060005260206000209060050201600101546000888154811015156104a157fe5b90600052602060002090600502016002016000898154811015156104c157fe5b906000526020600020906005020160030160008a8154811015156104e157fe5b906000526020600020906005020160040160009054906101000a900460ff16828054600181600116156101000203166002900480601f0160208091040260200160405190810160405280929190818152602001828054600181600116156101000203166002900480156105955780601f1061056a57610100808354040283529160200191610595565b820191906000526020600020905b81548152906001019060200180831161057857829003601f168201915b50505050509250818054600181600116156101000203166002900480601f0160208091040260200160405190810160405280929190818152602001828054600181600116156101000203166002900480156106315780601f1061060657610100808354040283529160200191610631565b820191906000526020600020905b81548152906001019060200180831161061457829003601f168201915b505050505091509450945094509450945091939590929450565b6000805480600101828161065f9190610741565b9160005260206000209060050201600060a0604051908101604052806000805490508152602001428152602001868152602001858152602001600015158152509091909150600082015181600001556020820151816001015560408201518160020190805190602001906106d4929190610773565b5060608201518160030190805190602001906106f1929190610773565b5060808201518160040160006101000a81548160ff0219169083151502179055505050505050565b602060405190810160405280600081525090565b602060405190810160405280600081525090565b81548183558181151161076e5760050281600502836000526020600020918201910161076d91906107f3565b5b505050565b828054600181600116156101000203166002900490600052602060002090601f016020900481019282601f106107b457805160ff19168380011785556107e2565b828001600101855582156107e2579182015b828111156107e15782518255916020019190600101906107c6565b5b5090506107ef9190610856565b5090565b61085391905b8082111561084f576000808201600090556001820160009055600282016000610822919061087b565b600382016000610832919061087b565b6004820160006101000a81549060ff0219169055506005016107f9565b5090565b90565b61087891905b8082111561087457600081600090555060010161085c565b5090565b90565b50805460018160011615610100020316600290046000825580601f106108a157506108c0565b601f0160209004906000526020600020908101906108bf9190610856565b5b505600a165627a7a723058201508dbdde9fa735c8a9f37066c977bddea97c509ec6a63d0a4fc151bb70a27520029",
  "source": "pragma solidity ^0.4.4;\n\ncontract ToDo {\n  struct Task {\n    uint id;\n    uint date;\n    string content;\n    string author;\n    bool done;\n  }\n\n  Task[] tasks;\n\n  function createTask(string _content, string _author) public {\n    tasks.push(Task(tasks.length, now, _content, _author, false));\n  }\n\n  function getTask(uint id) public constant \n    returns(\n      uint,\n      uint,\n      string,\n      string,\n      bool\n    ) {\n      return(\n        id,\n        tasks[id].date,\n        tasks[id].content,\n        tasks[id].author,\n        tasks[id].done\n      );\n    }\n\n    function getTasks() public constant returns(Task[]) {\n      return tasks;\n    }\n}\n",
  "sourcePath": "D:\\ETB\\code\\special-episode-1\\step1\\contracts\\ToDo.sol",
  "compiler": {
    "name": "solc",
    "version": "0.4.18+commit.9cf6e910.Emscripten.clang"
  },
  "schemaVersion": "1.0.1",
  "updatedAt": "2018-01-07T14:07:08.303Z"
}