{
  "contractName": "ToDo",
  "abi": [
    {
      "anonymous": false,
      "inputs": [
        {
          "indexed": false,
          "name": "description",
          "type": "string"
        }
      ],
      "name": "Foo",
      "type": "event"
    },
    {
      "constant": true,
      "inputs": [
        {
          "name": "i",
          "type": "uint256"
        }
      ],
      "name": "getTask",
      "outputs": [
        {
          "name": "",
          "type": "string"
        }
      ],
      "payable": false,
      "stateMutability": "view",
      "type": "function"
    },
    {
      "constant": false,
      "inputs": [
        {
          "name": "taskName",
          "type": "string"
        }
      ],
      "name": "addTask",
      "outputs": [],
      "payable": false,
      "stateMutability": "nonpayable",
      "type": "function"
    },
    {
      "constant": false,
      "inputs": [
        {
          "name": "description",
          "type": "string"
        }
      ],
      "name": "triggerEvent",
      "outputs": [],
      "payable": false,
      "stateMutability": "nonpayable",
      "type": "function"
    }
  ],
  "bytecode": "0x608060405234801561001057600080fd5b50610441806100206000396000f300608060405260043610610057576000357c0100000000000000000000000000000000000000000000000000000000900463ffffffff1680631d65e77e1461005c5780636723856214610102578063e6c75c6b1461016b575b600080fd5b34801561006857600080fd5b50610087600480360381019080803590602001909291905050506101d4565b6040518080602001828103825283818151815260200191508051906020019080838360005b838110156100c75780820151818401526020810190506100ac565b50505050905090810190601f1680156100f45780820380516001836020036101000a031916815260200191505b509250505060405180910390f35b34801561010e57600080fd5b50610169600480360381019080803590602001908201803590602001908080601f016020809104026020016040519081016040528093929190818152602001838380828437820191505050505050919291929050505061028f565b005b34801561017757600080fd5b506101d2600480360381019080803590602001908201803590602001908080601f01602080910402602001604051908101604052809392919081815260200183838082843782019150505050505091929192905050506102d1565b005b60606000828154811015156101e557fe5b906000526020600020018054600181600116156101000203166002900480601f0160208091040260200160405190810160405280929190818152602001828054600181600116156101000203166002900480156102835780601f1061025857610100808354040283529160200191610283565b820191906000526020600020905b81548152906001019060200180831161026657829003601f168201915b50505050509050919050565b60008190806001815401808255809150509060018203906000526020600020016000909192909190915090805190602001906102cc929190610370565b505050565b7f9f0b7f1630bdb7d474466e2dfef0fb9dff65f7a50eec83935b68f77d0808f08a816040518080602001828103825283818151815260200191508051906020019080838360005b83811015610333578082015181840152602081019050610318565b50505050905090810190601f1680156103605780820380516001836020036101000a031916815260200191505b509250505060405180910390a150565b828054600181600116156101000203166002900490600052602060002090601f016020900481019282601f106103b157805160ff19168380011785556103df565b828001600101855582156103df579182015b828111156103de5782518255916020019190600101906103c3565b5b5090506103ec91906103f0565b5090565b61041291905b8082111561040e5760008160009055506001016103f6565b5090565b905600a165627a7a7230582061392de31f5f8fd7e214c20e93b16cef953522505acb6d4eaf5ce1c14874788f0029",
  "source": "pragma solidity ^0.4.24;\n\ncontract ToDo {\n  string[] tasks;\n\n  event Foo(string description);\n\n  //Read-only function (i.e will not trigger a transaction)\n  function getTask(uint i) public view returns(string) {\n    return tasks[i];\n  }\n\n  //Write function (i.e Will create a transaction)\n  function addTask(string taskName) public {\n    tasks.push(taskName);\n  }\n\n  function triggerEvent(string description) public {\n    emit Foo(description);\n  }\n\n}\n",
  "sourcePath": "/Users/jklepatch/ETB/code/episode14/contracts/ToDo.sol",
  "compiler": {
    "name": "solc",
    "version": "0.4.24+commit.e67f0147.Emscripten.clang"
  },
  "schemaVersion": "2.0.0",
  "updatedAt": "2018-06-14T23:51:06.343Z"
}