{
  "contractName": "ToDo",
  "abi": [
    {
      "constant": true,
      "inputs": [
        {
          "name": "i",
          "type": "uint256"
        }
      ],
      "name": "getTask",
      "outputs": [
        {
          "name": "",
          "type": "string"
        }
      ],
      "payable": false,
      "stateMutability": "view",
      "type": "function"
    },
    {
      "constant": false,
      "inputs": [
        {
          "name": "taskName",
          "type": "string"
        }
      ],
      "name": "willFail",
      "outputs": [],
      "payable": false,
      "stateMutability": "nonpayable",
      "type": "function"
    },
    {
      "constant": false,
      "inputs": [
        {
          "name": "taskName",
          "type": "string"
        }
      ],
      "name": "addTask",
      "outputs": [],
      "payable": false,
      "stateMutability": "nonpayable",
      "type": "function"
    },
    {
      "constant": false,
      "inputs": [
        {
          "name": "description",
          "type": "string"
        }
      ],
      "name": "willTriggerEvent",
      "outputs": [],
      "payable": false,
      "stateMutability": "nonpayable",
      "type": "function"
    },
    {
      "anonymous": false,
      "inputs": [
        {
          "indexed": false,
          "name": "description",
          "type": "string"
        }
      ],
      "name": "Foo",
      "type": "event"
    }
  ],
  "bytecode": "0x6060604052341561000f57600080fd5b6105068061001e6000396000f300606060405260043610610062576000357c0100000000000000000000000000000000000000000000000000000000900463ffffffff1680631d65e77e14610067578063625676a2146101035780636723856214610118578063dcbc8d4514610175575b600080fd5b341561007257600080fd5b61008860048080359060200190919050506101d2565b6040518080602001828103825283818151815260200191508051906020019080838360005b838110156100c85780820151818401526020810190506100ad565b50505050905090810190601f1680156100f55780820380516001836020036101000a031916815260200191505b509250505060405180910390f35b341561010e57600080fd5b610116610294565b005b341561012357600080fd5b610173600480803590602001908201803590602001908080601f016020809104026020016040519081016040528093929190818152602001838380828437820191505050505050919050506102a3565b005b341561018057600080fd5b6101d0600480803590602001908201803590602001908080601f016020809104026020016040519081016040528093929190818152602001838380828437820191505050505050919050506102e2565b005b6101da610381565b6000828154811015156101e957fe5b90600052602060002090018054600181600116156101000203166002900480601f0160208091040260200160405190810160405280929190818152602001828054600181600116156101000203166002900480156102885780601f1061025d57610100808354040283529160200191610288565b820191906000526020600020905b81548152906001019060200180831161026b57829003601f168201915b50505050509050919050565b600160001415156102a157fe5b565b600080548060010182816102b79190610395565b9160005260206000209001600083909190915090805190602001906102dd9291906103c1565b505050565b7f9f0b7f1630bdb7d474466e2dfef0fb9dff65f7a50eec83935b68f77d0808f08a816040518080602001828103825283818151815260200191508051906020019080838360005b83811015610344578082015181840152602081019050610329565b50505050905090810190601f1680156103715780820380516001836020036101000a031916815260200191505b509250505060405180910390a150565b602060405190810160405280600081525090565b8154818355818115116103bc578183600052602060002091820191016103bb9190610441565b5b505050565b828054600181600116156101000203166002900490600052602060002090601f016020900481019282601f1061040257805160ff1916838001178555610430565b82800160010185558215610430579182015b8281111561042f578251825591602001919060010190610414565b5b50905061043d919061046d565b5090565b61046a91905b80821115610466576000818161045d9190610492565b50600101610447565b5090565b90565b61048f91905b8082111561048b576000816000905550600101610473565b5090565b90565b50805460018160011615610100020316600290046000825580601f106104b857506104d7565b601f0160209004906000526020600020908101906104d6919061046d565b5b505600a165627a7a7230582042f9a59682316836f6f2d68322432681534dcb08d0f5661f6db0df4134aee9f90029",
  "source": "pragma solidity ^0.4.17;\r\n\r\ncontract ToDo {\r\n  string[] tasks;\r\n\r\n  event Foo(string description);\r\n\r\n  //non-constant functions (i.e create a transaction)\r\n  function addTask(string taskName) public {\r\n    tasks.push(taskName);\r\n  }\r\n\r\n  function willFail() public {\r\n    assert(0 == 1);\r\n  }\r\n\r\n  function willTriggerEvent(string description) public {\r\n    Foo(description);\r\n  }\r\n\r\n  //constant function(s) (i.e will not trigger a transaction)\r\n  function getTask(uint i) public constant returns(string) {\r\n    return tasks[i];\r\n  }\r\n}",
  "sourcePath": "D:\\ETB\\code\\episode13\\contracts\\ToDo.sol",
  "compiler": {
    "name": "solc",
    "version": "0.4.18+commit.9cf6e910.Emscripten.clang"
  },
  "schemaVersion": "1.0.1",
  "updatedAt": "2018-03-11T10:46:12.977Z"
}