{
  "contractName": "Wallet",
  "abi": [
    {
      "inputs": [
        {
          "internalType": "address[]",
          "name": "_approvers",
          "type": "address[]"
        },
        {
          "internalType": "uint256",
          "name": "_quorum",
          "type": "uint256"
        }
      ],
      "stateMutability": "nonpayable",
      "type": "constructor"
    },
    {
      "inputs": [
        {
          "internalType": "address",
          "name": "",
          "type": "address"
        },
        {
          "internalType": "uint256",
          "name": "",
          "type": "uint256"
        }
      ],
      "name": "approvals",
      "outputs": [
        {
          "internalType": "bool",
          "name": "",
          "type": "bool"
        }
      ],
      "stateMutability": "view",
      "type": "function",
      "constant": true
    },
    {
      "inputs": [
        {
          "internalType": "uint256",
          "name": "",
          "type": "uint256"
        }
      ],
      "name": "approvers",
      "outputs": [
        {
          "internalType": "address",
          "name": "",
          "type": "address"
        }
      ],
      "stateMutability": "view",
      "type": "function",
      "constant": true
    },
    {
      "inputs": [],
      "name": "quorum",
      "outputs": [
        {
          "internalType": "uint256",
          "name": "",
          "type": "uint256"
        }
      ],
      "stateMutability": "view",
      "type": "function",
      "constant": true
    },
    {
      "inputs": [
        {
          "internalType": "uint256",
          "name": "",
          "type": "uint256"
        }
      ],
      "name": "transfers",
      "outputs": [
        {
          "internalType": "uint256",
          "name": "id",
          "type": "uint256"
        },
        {
          "internalType": "uint256",
          "name": "amount",
          "type": "uint256"
        },
        {
          "internalType": "address payable",
          "name": "to",
          "type": "address"
        },
        {
          "internalType": "uint256",
          "name": "approvals",
          "type": "uint256"
        },
        {
          "internalType": "bool",
          "name": "sent",
          "type": "bool"
        }
      ],
      "stateMutability": "view",
      "type": "function",
      "constant": true
    },
    {
      "stateMutability": "payable",
      "type": "receive",
      "payable": true
    },
    {
      "inputs": [],
      "name": "getApprovers",
      "outputs": [
        {
          "internalType": "address[]",
          "name": "",
          "type": "address[]"
        }
      ],
      "stateMutability": "view",
      "type": "function",
      "constant": true
    },
    {
      "inputs": [],
      "name": "getTransfers",
      "outputs": [
        {
          "components": [
            {
              "internalType": "uint256",
              "name": "id",
              "type": "uint256"
            },
            {
              "internalType": "uint256",
              "name": "amount",
              "type": "uint256"
            },
            {
              "internalType": "address payable",
              "name": "to",
              "type": "address"
            },
            {
              "internalType": "uint256",
              "name": "approvals",
              "type": "uint256"
            },
            {
              "internalType": "bool",
              "name": "sent",
              "type": "bool"
            }
          ],
          "internalType": "struct Wallet.Transfer[]",
          "name": "",
          "type": "tuple[]"
        }
      ],
      "stateMutability": "view",
      "type": "function",
      "constant": true
    },
    {
      "inputs": [
        {
          "internalType": "uint256",
          "name": "amount",
          "type": "uint256"
        },
        {
          "internalType": "address payable",
          "name": "to",
          "type": "address"
        }
      ],
      "name": "createTransfer2",
      "outputs": [],
      "stateMutability": "nonpayable",
      "type": "function"
    },
    {
      "inputs": [
        {
          "internalType": "uint256",
          "name": "amount",
          "type": "uint256"
        },
        {
          "internalType": "address payable",
          "name": "to",
          "type": "address"
        }
      ],
      "name": "createTransfer",
      "outputs": [],
      "stateMutability": "nonpayable",
      "type": "function"
    },
    {
      "inputs": [
        {
          "internalType": "uint256",
          "name": "id",
          "type": "uint256"
        }
      ],
      "name": "approveTransfer",
      "outputs": [],
      "stateMutability": "nonpayable",
      "type": "function"
    }
  ],
  "bytecode": "0x60806040523480156200001157600080fd5b5060405162001524380380620015248339818101604052620000379190810190620001ef565b81600090805190602001906200004f9291906200005f565b5080600181905550505062000312565b828054828255906000526020600020908101928215620000db579160200282015b82811115620000da5782518260006101000a81548173ffffffffffffffffffffffffffffffffffffffff021916908373ffffffffffffffffffffffffffffffffffffffff1602179055509160200191906001019062000080565b5b509050620000ea9190620000ee565b5090565b6200013191905b808211156200012d57600081816101000a81549073ffffffffffffffffffffffffffffffffffffffff021916905550600101620000f5565b5090565b90565b6000815190506200014581620002de565b92915050565b600082601f8301126200015d57600080fd5b8151620001746200016e8262000277565b62000249565b915081818352602084019350602081019050838560208402820111156200019a57600080fd5b60005b83811015620001ce5781620001b3888262000134565b8452602084019350602083019250506001810190506200019d565b5050505092915050565b600081519050620001e981620002f8565b92915050565b600080604083850312156200020357600080fd5b600083015167ffffffffffffffff8111156200021e57600080fd5b6200022c858286016200014b565b92505060206200023f85828601620001d8565b9150509250929050565b6000604051905081810181811067ffffffffffffffff821117156200026d57600080fd5b8060405250919050565b600067ffffffffffffffff8211156200028f57600080fd5b602082029050602081019050919050565b6000620002ad82620002b4565b9050919050565b600073ffffffffffffffffffffffffffffffffffffffff82169050919050565b6000819050919050565b620002e981620002a0565b8114620002f557600080fd5b50565b6200030381620002d4565b81146200030f57600080fd5b50565b61120280620003226000396000f3fe60806040526004361061008a5760003560e01c80636cb3e8ef116100595780636cb3e8ef1461013e5780639377d71114610169578063cacca4a0146101aa578063d3650fb8146101d3578063ffabc6731461021057610091565b80631703a018146100965780632f65142c146100c15780634b3997f5146100ec5780634c12fa471461011557610091565b3661009157005b600080fd5b3480156100a257600080fd5b506100ab61024d565b6040516100b8919061103c565b60405180910390f35b3480156100cd57600080fd5b506100d6610253565b6040516100e39190610f9f565b60405180910390f35b3480156100f857600080fd5b50610113600480360361010e9190810190610c9a565b610341565b005b34801561012157600080fd5b5061013c60048036036101379190810190610c9a565b610517565b005b34801561014a57600080fd5b506101536106f1565b6040516101609190610f7d565b60405180910390f35b34801561017557600080fd5b50610190600480360361018b9190810190610c71565b61077f565b6040516101a1959493929190611057565b60405180910390f35b3480156101b657600080fd5b506101d160048036036101cc9190810190610c71565b6107ef565b005b3480156101df57600080fd5b506101fa60048036036101f59190810190610c71565b610b8b565b6040516102079190610f62565b60405180910390f35b34801561021c57600080fd5b5061023760048036036102329190810190610c35565b610bc7565b6040516102449190610fc1565b60405180910390f35b60015481565b60606002805480602002602001604051908101604052809291908181526020016000905b8282101561033857838290600052602060002090600502016040518060a001604052908160008201548152602001600182015481526020016002820160009054906101000a900473ffffffffffffffffffffffffffffffffffffffff1673ffffffffffffffffffffffffffffffffffffffff1673ffffffffffffffffffffffffffffffffffffffff168152602001600382015481526020016004820160009054906101000a900460ff16151515158152505081526020019060010190610277565b50505050905090565b600080905060008090505b6000805490508110156103d6573373ffffffffffffffffffffffffffffffffffffffff166000828154811061037d57fe5b9060005260206000200160009054906101000a900473ffffffffffffffffffffffffffffffffffffffff1673ffffffffffffffffffffffffffffffffffffffff1614156103c957600191505b808060010191505061034c565b50600115158115151461041e576040517f08c379a000000000000000000000000000000000000000000000000000000000815260040161041590610ffc565b60405180910390fd5b60026040518060a00160405280600081526020018581526020018473ffffffffffffffffffffffffffffffffffffffff16815260200160008152602001600015158152509080600181540180825580915050600190039060005260206000209060050201600090919091909150600082015181600001556020820151816001015560408201518160020160006101000a81548173ffffffffffffffffffffffffffffffffffffffff021916908373ffffffffffffffffffffffffffffffffffffffff1602179055506060820151816003015560808201518160040160006101000a81548160ff0219169083151502179055505050505050565b600080905060008090505b6000805490508110156105ac573373ffffffffffffffffffffffffffffffffffffffff166000828154811061055357fe5b9060005260206000200160009054906101000a900473ffffffffffffffffffffffffffffffffffffffff1673ffffffffffffffffffffffffffffffffffffffff16141561059f57600191505b8080600101915050610522565b5060011515811515146105f4576040517f08c379a00000000000000000000000000000000000000000000000000000000081526004016105eb90610ffc565b60405180910390fd5b60026040518060a0016040528060028054905081526020018581526020018473ffffffffffffffffffffffffffffffffffffffff16815260200160008152602001600015158152509080600181540180825580915050600190039060005260206000209060050201600090919091909150600082015181600001556020820151816001015560408201518160020160006101000a81548173ffffffffffffffffffffffffffffffffffffffff021916908373ffffffffffffffffffffffffffffffffffffffff1602179055506060820151816003015560808201518160040160006101000a81548160ff0219169083151502179055505050505050565b6060600080548060200260200160405190810160405280929190818152602001828054801561077557602002820191906000526020600020905b8160009054906101000a900473ffffffffffffffffffffffffffffffffffffffff1673ffffffffffffffffffffffffffffffffffffffff168152602001906001019080831161072b575b5050505050905090565b6002818154811061078c57fe5b90600052602060002090600502016000915090508060000154908060010154908060020160009054906101000a900473ffffffffffffffffffffffffffffffffffffffff16908060030154908060040160009054906101000a900460ff16905085565b600080905060008090505b600080549050811015610884573373ffffffffffffffffffffffffffffffffffffffff166000828154811061082b57fe5b9060005260206000200160009054906101000a900473ffffffffffffffffffffffffffffffffffffffff1673ffffffffffffffffffffffffffffffffffffffff16141561087757600191505b80806001019150506107fa565b5060011515811515146108cc576040517f08c379a00000000000000000000000000000000000000000000000000000000081526004016108c390610ffc565b60405180910390fd5b60001515600283815481106108dd57fe5b906000526020600020906005020160040160009054906101000a900460ff1615151461093e576040517f08c379a000000000000000000000000000000000000000000000000000000000815260040161093590610fdc565b60405180910390fd5b60001515600360003373ffffffffffffffffffffffffffffffffffffffff1673ffffffffffffffffffffffffffffffffffffffff168152602001908152602001600020600084815260200190815260200160002060009054906101000a900460ff161515146109e2576040517f08c379a00000000000000000000000000000000000000000000000000000000081526004016109d99061101c565b60405180910390fd5b6001600360003373ffffffffffffffffffffffffffffffffffffffff1673ffffffffffffffffffffffffffffffffffffffff168152602001908152602001600020600084815260200190815260200160002060006101000a81548160ff02191690831515021790555060028281548110610a5857fe5b90600052602060002090600502016003016000815480929190600101919050555060015460028381548110610a8957fe5b90600052602060002090600502016003015410610b8757600160028381548110610aaf57fe5b906000526020600020906005020160040160006101000a81548160ff021916908315150217905550600060028381548110610ae657fe5b906000526020600020906005020160020160009054906101000a900473ffffffffffffffffffffffffffffffffffffffff169050600060028481548110610b2957fe5b90600052602060002090600502016001015490508173ffffffffffffffffffffffffffffffffffffffff166108fc829081150290604051600060405180830381858888f19350505050158015610b83573d6000803e3d6000fd5b5050505b5050565b60008181548110610b9857fe5b906000526020600020016000915054906101000a900473ffffffffffffffffffffffffffffffffffffffff1681565b60036020528160005260406000206020528060005260406000206000915091509054906101000a900460ff1681565b600081359050610c0581611187565b92915050565b600081359050610c1a8161119e565b92915050565b600081359050610c2f816111b5565b92915050565b60008060408385031215610c4857600080fd5b6000610c5685828601610bf6565b9250506020610c6785828601610c20565b9150509250929050565b600060208284031215610c8357600080fd5b6000610c9184828501610c20565b91505092915050565b60008060408385031215610cad57600080fd5b6000610cbb85828601610c20565b9250506020610ccc85828601610c0b565b9150509250929050565b6000610ce28383610d24565b60208301905092915050565b6000610cfa8383610edc565b60a08301905092915050565b610d0f8161113f565b82525050565b610d1e8161113f565b82525050565b610d2d8161112d565b82525050565b610d3c8161112d565b82525050565b6000610d4d826110ca565b610d5781856110fa565b9350610d62836110aa565b8060005b83811015610d93578151610d7a8882610cd6565b9750610d85836110e0565b925050600181019050610d66565b5085935050505092915050565b6000610dab826110d5565b610db5818561110b565b9350610dc0836110ba565b8060005b83811015610df1578151610dd88882610cee565b9750610de3836110ed565b925050600181019050610dc4565b5085935050505092915050565b610e0781611151565b82525050565b610e1681611151565b82525050565b6000610e29601e8361111c565b91507f7472616e736665722068617320616c7265616479206265656e2073656e7400006000830152602082019050919050565b6000610e6960158361111c565b91507f6f6e6c7920617070726f76657220616c6c6f77656400000000000000000000006000830152602082019050919050565b6000610ea9601d8361111c565b91507f63616e6e6f7420617070726f7665207472616e736665722074776963650000006000830152602082019050919050565b60a082016000820151610ef26000850182610f44565b506020820151610f056020850182610f44565b506040820151610f186040850182610d06565b506060820151610f2b6060850182610f44565b506080820151610f3e6080850182610dfe565b50505050565b610f4d8161117d565b82525050565b610f5c8161117d565b82525050565b6000602082019050610f776000830184610d33565b92915050565b60006020820190508181036000830152610f978184610d42565b905092915050565b60006020820190508181036000830152610fb98184610da0565b905092915050565b6000602082019050610fd66000830184610e0d565b92915050565b60006020820190508181036000830152610ff581610e1c565b9050919050565b6000602082019050818103600083015261101581610e5c565b9050919050565b6000602082019050818103600083015261103581610e9c565b9050919050565b60006020820190506110516000830184610f53565b92915050565b600060a08201905061106c6000830188610f53565b6110796020830187610f53565b6110866040830186610d15565b6110936060830185610f53565b6110a06080830184610e0d565b9695505050505050565b6000819050602082019050919050565b6000819050602082019050919050565b600081519050919050565b600081519050919050565b6000602082019050919050565b6000602082019050919050565b600082825260208201905092915050565b600082825260208201905092915050565b600082825260208201905092915050565b60006111388261115d565b9050919050565b600061114a8261115d565b9050919050565b60008115159050919050565b600073ffffffffffffffffffffffffffffffffffffffff82169050919050565b6000819050919050565b6111908161112d565b811461119b57600080fd5b50565b6111a78161113f565b81146111b257600080fd5b50565b6111be8161117d565b81146111c957600080fd5b5056fea2646970667358221220294bd9d23ae96b2ee1bd692ef7d71dd8a9b6849423112f8d66783fbf69284ad764736f6c63430006000033",
  "source": "pragma solidity 0.6.0;\npragma experimental ABIEncoderV2;\n\ncontract Wallet {\n    address[] public approvers;\n    uint public quorum;\n    struct Transfer {\n        uint id;\n        uint amount;\n        address payable to;\n        uint approvals;\n        bool sent;\n    }\n    Transfer[] public transfers;\n    mapping(address => mapping(uint => bool)) public approvals;\n    \n    constructor(address[] memory _approvers, uint _quorum) public {\n        approvers = _approvers;\n        quorum = _quorum;\n    }\n    \n    function getApprovers() external view returns(address[] memory) {\n        return approvers;\n    }\n    \n    function getTransfers() external view returns(Transfer[] memory) {\n        return transfers;\n    }\n\n    function createTransfer2(uint amount, address payable to) external onlyApprover() {\n        transfers.push(Transfer(\n          0,\n            amount,\n            to,\n            0,\n            false\n        ));\n    }\n    \n    function createTransfer(uint amount, address payable to) external onlyApprover() {\n        transfers.push(Transfer(\n            transfers.length,\n            amount,\n            to,\n            0,\n            false\n        ));\n    }\n    \n    function approveTransfer(uint id) external onlyApprover() {\n        require(transfers[id].sent == false, 'transfer has already been sent');\n        require(approvals[msg.sender][id] == false, 'cannot approve transfer twice');\n        \n        approvals[msg.sender][id] = true;\n        transfers[id].approvals++;\n        \n        if(transfers[id].approvals >= quorum) {\n            transfers[id].sent = true;\n            address payable to = transfers[id].to;\n            uint amount = transfers[id].amount;\n            to.transfer(amount);\n        }\n    }\n    \n    receive() external payable {}\n    \n    modifier onlyApprover() {\n        bool allowed = false;\n        for(uint i = 0; i < approvers.length; i++) {\n            if(approvers[i] == msg.sender) {\n                allowed = true;\n            }\n        }\n        require(allowed == true, 'only approver allowed');\n        _;\n    }\n}\n",
  "sourcePath": "/Users/jklepatch/ETB/code/blockchain-masterclass/wallet-3-frontend/11-send-transaction-from-frontend/contracts/Wallet.sol",
  "compiler": {
    "name": "solc",
    "version": "0.6.0+commit.26b70077.Emscripten.clang"
  },
  "schemaVersion": "3.0.21",
  "updatedAt": "2020-04-15T18:37:31.730Z",
  "networkType": "ethereum",
  "devdoc": {
    "methods": {}
  },
  "userdoc": {
    "methods": {}
  }
}